:020000040804EE
:200000000000011051B307085DB307085DB307085DB307085DB307085DB307085DB3070802
:200020005DB307085DB307085DB307085DB307085DB307085DB307085DB307085DB30708C8
:20004000DFF8A408806D20F04040DFF89C188865DFF89408C06D80088000DFF88C18C865D8
:20006000DFF88408C06D30F00C00DFF87C18C865DFF87408C06D30F0C000DFF86C18C86544
:20008000DFF86408C06D30F03000DFF85C18C865DFF85408C06D30F44070DFF84C18C8658C
:2000A000DFF84408806D30F04050DFF83C188865DFF83408006E30F08060DFF82C1808665E
:2000C0000020DFF82418A1F870010020DFF8181881F8D9010020DFF8141808700020DFF8D7
:2000E000101808807047DFF80008006EC0F38060002829D1DFF8F007006E50F08060DFF864
:20010000E81708660020DFF8E8170880DFF8E4070078DFF8D41781F8D9010120DFF8C817CE
:20012000896D60F31D71DFF8C00781650220DFF8B817896D60F39F71DFF8AC0781650820AB
:20014000DFF8A817087084E2DFF89C0790F8D901DFF8A0170978884214D00020DFF89017F4
:200160000880DFF890070078DFF87C1781F8D9010120DFF87417896D60F31D71DFF86807B4
:20018000816549E0DFF86007806DC0F30170012820D1DFF864070078002809D00220DFF833
:2001A0004817896D60F31D71DFF83C07816533E0DFF83C07008800282ED0DFF83407018893
:2001C000DFF83807006890F88900091ADFF82007018021E0DFF820070078002809D1012054
:2001E000DFF80417896D60F31D71DFF8FC06816512E0DFF8FC0600884FF6FF7188420BD0CA
:20020000DFF8EC060088DFF8F416096891F888104018DFF8DC160880DFF8CC06806D800F4C
:20022000012803D0022800F08B80CEE0DFF8B80690F85C0010F00300012802D0022842D03C
:200240005DE00820DFF8A4160870DFF8A8060078032816D1DFF898060088DFF8A016096826
:20026000B1F8861088420CD3DFF87C06C06D50F00300DFF87416C8651120DFF87016087039
:2002800020E0DFF870060078012804D0DFF85C060078102816D1DFF858060088DFF85C16C6
:2002A0000968B1F8841088420CD30220DFF83816C96D60F30101DFF83006C1651020DFF8DB
:2002C0002C1608703BE01020DFF820160870DFF820060088DFF824160968B1F88410884286
:2002E0000CD20120DFF80016C96D60F30101DFF8F805C1650820DFF8F41508701FE01120DD
:20030000DFF8E8150870DFF8E8050088DFF8EC150968B1F88610884211D2DFF8D0050078EC
:2003200008280CD10120DFF8C015C96D60F30101DFF8B405C1650820DFF8B015087088E1FD
:200340000820DFF8A8150870DFF8B005006890F88000012812D10120DFF88C15896D60F37F
:200360009F71DFF8840581650120DFF87C15C96D60F30101DFF87005C16525E0DFF87C0544
:20038000006890F88000FF281ED0DFF85C05806D50F04040DFF8501588650120DFF8481575
:2003A000C96D60F38301DFF84005C1650120DFF83815C96D60F38711DFF82C05C16500203A
:2003C000DFF82415A1F8700143E1DFF81C05C06D800810F00300012803D0022800F0928007
:2003E000E9E0DFF814050078012828D1DFF804050078032823D1DFF8F404007810281ED0C6
:20040000DFF8E404C06D30F0C000DFF8DC14C865DFF8D404C06D50F00C00DFF8CC14C86510
:200420000120DFF8C414C96D60F30921DFF8B804C1650020DFF8B014A1F8700161E0DFF8A3
:20044000B8040078012829D1DFF8A8040078012804D0DFF89804007810281FD1DFF88804D7
:20046000C06D30F0C000DFF88014C8650220DFF87814C96D60F38301DFF86C04C1650120B7
:20048000DFF86414C96D60F30511DFF85C04C1650020DFF85414A1F8700132E0DFF8480473
:2004A000C06DC0F38110012827D1DFF83C04B0F87001DFF848140968B1F88210884204D2FB
:2004C000DFF82804007808280DD10220DFF81814C96D60F38711DFF81004C1650820DFF83D
:2004E0000C1408700DE0DFF80004B0F87001401CDFF8F413A1F8700103E00820DFF8EC135E
:200500000870A6E0DFF8F003007801281FD0DFF8D803C06D30F03000DFF8CC13C865012050
:20052000DFF8C413C96D60F38301DFF8BC03C1650120DFF8B413C96D60F38711DFF8A803E2
:20054000C1650020DFF8A013A1F8700132E0DFF89803C06DC0F30110012827D1DFF88803C9
:20056000B0F87001DFF894130968B1F88410884204D2DFF87803007810280DD10220DFF8BD
:200580006813C96D60F30511DFF85C03C1651020DFF8581308700DE0DFF84C03B0F87001CF
:2005A000401CDFF84413A1F8700103E01020DFF83C1308704DE0DFF840030078012823D01B
:2005C000DFF82803007808281ED1DFF81C03C06D30F44070DFF81013C8650120DFF8081351
:2005E000C96D60F38301DFF80003C1650120DFF8F812C96D60F38711DFF8EC02C1650020C0
:20060000B949A1F8700124E0B748C06DC0F3012001281BD1B448B0F87001B8490968B1F885
:20062000861088420AD30220AF49C96D60F30921AD48C1651120AD4908700AE0AA48B0F872
:200640007001401CA849A1F8700102E01120A74908707047A448806D800E10F0030001280D
:2006600004D03AD3032827D013D336E001209E49896D60F319619C48816501209A49896DEC
:2006800060F39B6198488165FD209D4981F8AB0135E002209449896D60F319619248816586
:2006A00002209149896D60F39B618F4881650820934981F8AB0122E08B48806D50F0407061
:2006C000894988658848806D50F0406086498865FE208B4981F8AB0111E002208249896D17
:2006E00060F319618048816502207F49896D60F39B617D4881650820814981F8AB017047D7
:200700007948806D800C10F00300012804D03AD3032827D013D336E001207349896D60F34E
:2007200011417148816501206F49896D60F393416D488165FD20724981F8A90135E0022005
:200740006949896D60F311416748816502206649896D60F39341644881650820684981F8E5
:20076000A90122E06048806D50F440305E4988655D48806D50F440205B498865FE20604962
:2007800081F8A90111E002205749896D60F311415548816502205449896D60F393415248EF
:2007A00081650820564981F8A90170474E48806D30F440104C4988654B48806D30F4400055
:2007C000494988654848006B30F03800464908634548806D30F04070434988654248806D13
:2007E00030F040604049886500203F4981F8D8013D48006E30F080703B49086600203A4931
:20080000A1F8B8000020384981F8D70100203649A1F86A0100203449A1F86C0100203849AE
:2008200081F8AB0100203649A1F848000820344981F8AA014FF4FA703149A1F8BA004FF48D
:20084000FA702F49A1F8B8002748006BC008C000254908630020244981F8D6012248806DF6
:2008600030F44050204988651F48806D30F440401D4988651C48806D30F440301A498865EE
:200880001948806D30F44020174988651648006E30F400001449086600201349A1F8B600B3
:2008A0000020114981F8D50100200F49A1F8660100200D49A1F868010020114981F8A901E2
:2008C00000200F49A1F8460008200D4981F8A8014FF4FA700A49A1F8B6004FF4FA700849D4
:2008E000A1F8B40070470000FC2F0020CF7600207075002063760020127600209C72002070
:20090000A04300202DE9F84FDFF854080078012801D1012600E00026DFF84808006890F88D
:20092000B006FF2801D1012700E00027DFF83408006890F88603FF2806D15FF000085FF0A9
:2009400000095FF0000B23E03000C0B200280AD03800C0B2002806D05FF001085FF0000935
:200960005FF0000B14E03000C0B200280AD03800C0B2002806D15FF000085FF001095FF0DD
:20098000010B05E05FF000085FF000095FF0000B4046C0B2002800F0C484DFF8CC0790F8D3
:2009A000F101002857D1DFF8C007806D30F44010DFF8B4178865DFF8B007806D30F4400088
:2009C000DFF8A4178865DFF8A007006B30F03800DFF894170863DFF89007806D30F040703F
:2009E000DFF884178865DFF88007806D30F04060DFF8741788650020DFF86C1781F8D80172
:200A0000DFF86407006E30F08070DFF85C1708660020DFF85417A1F8B8000020DFF8481755
:200A200081F8D7010020DFF84017A1F86A010020DFF83417A1F86C010020DFF8301781F814
:200A4000AB010020DFF82417A1F848000120DFF8181781F8F101DFF818070088002802D1CC
:200A60004FF6FF7008E0DFF8E00C0088C003DFF800170988B0FBF1F0DFF8E8160968B1F8D2
:200A80008E1380B200FB01F0C00BDFF8E016A1F8B800DFF8D806B0F9B8008246DFF8C8062B
:200AA00090F8D801FF2808D0DFF8BC0690F8D801401CDFF8B41681F8D801DFF8AC06006E96
:200AC000C0F30060002857D1DFF89C06006E50F08070DFF8941608660120DFF88C16896D1D
:200AE00060F31551DFF8800681650820DFF8781681F8D7010020DFF87016A1F8B800DFF877
:200B000064060068B0F88413DFF85806006890F89003091ADFF85006A0F86A11DFF8440688
:200B20000068B0F88403DFF83C16096891F890134018DFF83416A1F86C010220DFF82816A2
:200B4000896D60F39751DFF8200681650120DFF81816096B60F3C501DFF80C060163DFF8AA
:200B60000806B0F8B80010EB0A00DFF80016A1F84800FFF76FFDB6E3DFF8EC05806D000D77
:200B800010F00300012802D002280AD0AAE00220DFF8D415896D60F31551DFF8CC058165AA
:200BA00032E1DFF8C80590F80901012811D0DFF8BC0590F8090102280BD0DFF8B00590F89F
:200BC0000901032805D0DFF8A40590F8090104281BD1DFF88C0C0078012816D1DFF8840C83
:200BE0000078022811D0DFF8840590F8AB0116280BD0DFF8780590F8AB01152805D0DFF854
:200C00006C0590F80A01082827D0DFF85C0C0078002804D1DFF8540C0078002861D0DFF816
:200C20004C0590F80801002805D0DFF8400590F80901002855D1DFF8340590F8AB01162857
:200C40004FD0DFF8280590F8AB01152849D0DFF81C0590F80A01082843D1504600B2DFF8F9
:200C600004150968B1F88013884219DBDFF8F4040068B0F88203514609B2884210DB08205D
:200C8000DFF8E41481F8D701DFF8D8040068B0F98403B0EB0A00DFF8D014A1F8B80018E040
:200CA000DFF8C80490F8AB0118280ED01820DFF8B81481F8D7010020DFF8AC14A1F8B8000B
:200CC0003020DFF8AC1B087003E0FF20DFF8A01B0870DFF89404806D50F44010DFF888143F
:200CE000886591E0DFF8780B0078012816D1DFF8740B0078022811D0DFF8700490F8AB015C
:200D000016280BD0DFF8640490F8AB01152805D0DFF8580490F80A01082809D00220DFF86D
:200D20004814896D60F31551DFF83C0481656BE0DFF8340B0078002804D1DFF8300B00784B
:200D4000002861D0DFF8240490F80801002805D0DFF8180490F80901002855D1DFF80C04F3
:200D600090F8AB0116284FD0DFF8000490F8AB01152849D0DFF8F40390F80A01082843D1D8
:200D8000504600B2DFF8DC130968B1F88013884219DBDFF8D0030068B0F88203514609B249
:200DA000884210DB0820DFF8C01381F8D701DFF8B4030068B0F98403B0EB0A00DFF8A813FE
:200DC000A1F8B80018E0DFF8A40390F8AB0118280ED01820DFF8901381F8D7010020DFF800
:200DE0008813A1F8B8003020DFF8841A087003E0FF20DFF87C1A0870DFF86C03806D50F46C
:200E00004010DFF864138865DFF85C03806DC0F3815001282AD10820DFF8501381F8AB01F5
:200E2000DFF8480390F80A01082840F05C820220DFF83413896D60F39751DFF82C03816562
:200E40000120DFF82413096B60F3C501DFF818030163DFF81403B0F8B80010EB0A00DFF856
:200E60000C13A1F84800FFF7F5FB3CE2DFF8FC0290F80A01082820D0DFF8EC02806D30F014
:200E80004070DFF8E4128865B748006B30F03800B54908630120B449896D60F39751B24874
:200EA00081650820B14981F8AB01AE480068B0F98403AE49A1F8480015E2AB48006BC00882
:200EC00010F0070001280CD0C0F0D581032800F05181C0F02A81052800F09481C0F06E81E7
:200EE000C9E1A0480068B0F88803514609B2884218DA9D48806D30F040709B49886505201F
:200F00009949096B60F3C501974801630020964981F8D80193480068B0F984039349A1F8E6
:200F2000480001E1504600B28E490968B1F88A13884218DA8C48806D30F040708A498865A4
:200F400006208949096B60F3C501874801630020854981F8D80183480068B0F9840383496A
:200F6000A1F84800E0E0804890F8D701182818D17D48806D30F040707B49886502207A4967
:200F8000096B60F3C501784801631820774981F8AB0174480068B0F984037449A1F8480091
:200FA000C2E07148B0F8B80010EB0A0A6F48A0F848A06D48806D000E10F00300012802D082
:200FC00002283DD072E0FD20684981F8AB01504600B26549B1F86C11884217DB6248B0F86B
:200FE0006A01514609B2884210DA5F48806D50F040705D4988655C48806D50F040605A4955
:201000008865FE20594981F8AB0118E0504600B25549B1F86A11884211DB02205249896D93
:2010200060F319615048816502204F49896D60F39B614D48816508204C4981F8AB0173E0B6
:2010400008204A4981F8AB014748B0F86C01514609B2884210DA4448806D50F04070424912
:2010600088654148806D50F040603F498865FE203E4981F8AB0118E0504600B23A49B1F882
:201080006A11884211DA01203749896D60F319613548816501203449896D60F39B613248FC
:2010A0008165FD20314981F8AB013DE0FE202F4981F8AB012C48B0F86C01514609B2884211
:2010C00019DB504600B22849B1F86A11884212DA01202549896D60F31961234881650120C5
:2010E0002149896D60F39B611F488165FD201F4981F8AB0118E01C48B0F86C01514609B287
:20110000884211DB02201849896D60F319611648816502201449896D60F39B61124881658B
:201120000820124981F8AB01DDE018200F4981F8AB010D4890F8D701182810D001200A494C
:20114000096B60F3C501084801630748B0F8B80010EB0A000549A1F84800FFF77BFAC2E05E
:201160004F7600209C720020FC2F0020A0430020B47400201520DFF8901981F8AB01DFF815
:201180008C090068B0F88803514609B2884214DB0120DFF87C19096B60F3C501DFF87009AA
:2011A0000163DFF86C09B0F8B80010EB0A00DFF85819A1F84800FFF74DFA94E01620DFF833
:2011C000481981F8AB01504600B2DFF840190968B1F88A13884214DB0120DFF83419096BE8
:2011E00060F3C501DFF828090163DFF82409B0F8B80010EB0A00DFF81019A1F84800FFF72A
:2012000029FA70E0DFF8080990F8D801DFF8FC18096891F88C1388420ED30320DFF8F018E1
:20122000096B60F3C501DFF8E80801631520DFF8D81881F8AB011DE0DFF8D0080068B0F819
:201240008803514609B2884214DB0120DFF8C018096B60F3C501DFF8B8080163DFF8B00811
:20126000B0F8B80010EB0A00DFF89C18A1F84800FFF7F0F937E0DFF8980890F8D801DFF8F8
:201280008C18096891F88C1388420ED30420DFF88018096B60F3C501DFF874080163162059
:2012A000DFF8641881F8AB011DE0504600B2DFF85C180968B1F88A13884214DB0120DFF8BE
:2012C0005018096B60F3C501DFF844080163DFF84008B0F8B80010EB0A00DFF82C18A1F85A
:2012E0004800FFF7B7F9DFF8200890F8AB01DFF8181881F8AA01DFF81008B0F848000500BE
:20130000280080B2B0F57A7F04DADFF8FC07A0F8BA5022E04FF47A70DFF8EC17A1F8BA001F
:201320001BE0DFF8EC0790F8F101002815D00820DFF8D41781F8AA014FF4FA70DFF8C817F0
:20134000A1F8BA004FF4FA70DFF8BC17A1F8B8000020DFF8BC1781F8F1014846C0B2002835
:2013600000F06F83DFF8A80790F8F001002857D1DFF89C07006BC008C000DFF894170863E2
:201380000020DFF88C1781F8D601DFF88407806D30F44050DFF878178865DFF87407806DCE
:2013A00030F44040DFF868178865DFF86407806D30F44030DFF858178865DFF85407806D31
:2013C00030F44020DFF848178865DFF84407006E30F40000DFF8381708660020DFF83017E0
:2013E000A1F8B6000020DFF8281781F8D5010020DFF81C17A1F866010020DFF81417A1F834
:2014000068010020DFF8001781F8A9010020DFF8F816A1F846000120DFF8F41681F8F001E2
:20142000DFF8200BB0F9000040424FF4804110FB01F0C01310F5FA700400DFF8D40690F800
:20144000D6017F2808D2DFF8C80690F8D601401CDFF8BC1681F8D601DFF8B406006EC0F329
:20146000C05000285BD1DFF8A806006E50F40000DFF89C1608660120DFF89416096B60F371
:201480000201DFF88C0601630020DFF8841681F8D6010820DFF8781681F8D5010020DFF8C8
:2014A0007016A1F8B600DFF864060068B0F88413DFF85806006890F89003091ADFF8500667
:2014C000A0F86611DFF844060068B0F88403DFF83C16096891F890134018DFF83416A1F86D
:2014E00068010220DFF82816896D60F30D31DFF8200681650120DFF81816896D60F38F31B3
:20150000DFF80C068165DFF80806B0F8B6000019DFF8F415A1F84600FFF7F2F875E2DFF8D3
:20152000F00590F8300010F00700012805D0C0F0A580032821D010D3A0E0DFF8D40590F86D
:20154000D601642808DB0320DFF8C415096B60F30201DFF8BC0501630AE1DFF8B40590F8A9
:20156000D601642808DB0320DFF8A415096B60F30201DFF89C050163FAE0DFF88C0590F802
:201580000901012811D0DFF8800590F8090102280BD0DFF8740590F80901032805D0DFF88B
:2015A000680590F8090104280CD1AD480078012808D1AC480078022804D0DFF82C0A0088B5
:2015C000642818DBA8480078002803D1A7480078002852D0DFF8300590F80801002805D0DD
:2015E000DFF8240590F80901002846D1DFF8F8090088642841DA200000B2DFF810150968D4
:20160000B1F88013884218DBDFF800050068B0F88203210009B288420FDB0820DFF8F014CD
:2016200081F8D501DFF8E4040068B0F98403001BDFF8DC14A1F8B60016E0DFF8CC0490F8AE
:20164000A90118280DD01820DFF8C41481F8D5010020DFF8BC14A1F8B600302084490870E2
:2016600002E0FF20824908700420DFF8A414096B60F30201DFF89804016379E07848007841
:20168000012809D00320DFF88814096B60F30201DFF87C0401636BE073480078002803D1B3
:2016A00072480078002851D0DFF85C0490F80801002805D0DFF8500490F80901002845D1EF
:2016C000200000B2DFF844140968B1F88013884218DBDFF838040068B0F88203210009B21B
:2016E00088420FDB0820DFF8281481F8D501DFF81C040068B0F98403001BDFF81414A1F86A
:20170000B60016E0DFF8000490F8A90118280DD01820DFF8FC1381F8D5010020DFF8F0138C
:20172000A1F8B60030205249087002E0FF20504908700420DFF8D813096B60F30201DFF85E
:20174000D003016314E000BFC07400204548007802280DD10220DFF8B813096B60F30201B0
:20176000DFF8AC0301630020DFF8A41381F8D601DFF89C03806DC0F30130012805D1082013
:20178000DFF8841381F8A9013FE1DFF85C08008840F2E931884227DBDFF87403806D30F45E
:2017A0004030DFF86C138865DFF86403806D30F44040DFF85C1388650120DFF85413896D1F
:2017C00060F30D31DFF8480381650820DFF8381381F8A901DFF834030068B0F98403DFF886
:2017E0002813A1F8460010E1DFF82403806DC0F38130012840F0F080DFF8140390F8D5017A
:2018000018281BD1DFF80803806D30F44030DFF8001388650220DFF8F812896D60F38F3156
:20182000BB4881651820B84981F8A901B7480068B0F98403B449A1F84600E6E0B448B0F886
:20184000B60000198246B048A0F846A0B048806D000C10F0030001280CD0022847D07CE0E5
:20186000CA76002063760020CD760020CE760020A8750020FD20A44981F8A901504600B296
:20188000A349B1F86811884217DBA148B0F86601514609B2884210DA9D48806D50F44030FA
:2018A0009B4988659A48806D50F4402098498865FE20954981F8A90118E0504600B29449DA
:2018C000B1F86611884211DB02209149896D60F311418F48816502208D49896D60F39341C9
:2018E0008B4881650820884981F8A9018DE00820854981F8A9018648B0F86801514609B25C
:20190000884210DA8248806D50F44030804988657F48806D50F440207D498865FE207A4906
:2019200081F8A90118E0504600B27949B1F86611884211DA01207649896D60F31141744876
:20194000816501207249896D60F3934170488165FD206D4981F8A90157E0FE206A4981F893
:20196000A9016B48B0F86801514609B2884219DB504600B26649B1F86611884212DA0120FB
:201980006349896D60F311416148816501206049896D60F393415E488165FD205A4981F8C5
:2019A000A90118E05A48B0F86801514609B2884211DB02205649896D60F3114154488165EC
:2019C00002205349896D60F393415148816508204D4981F8A90118E018204B4981F8A901E5
:2019E0004B4890F8D50118280FD001204849896D60F38F31464881654548B0F8B6000019A4
:201A00004149A1F84600FEF77BFE3F48A0F8B4403D4890F8A9013C4981F8A8013A48B0F854
:201A200046000500280080B2B0F57A7F03DA3648A0F8B6501CE04FF47A703349A1F8B60076
:201A400016E0334890F8F001002811D008202E4981F8A8014FF4FA702B49A1F8B6004FF41F
:201A6000FA702949A1F8B4000020294981F8F0015846C0B2002806D1234890F8AA01DFF8BD
:201A80001C1B087005E0204890F8A801DFF80C1B08705846C0B2002806D11B48B0F8BA00CF
:201AA000DFF8FC1A088005E01748B0F8B600DFF8F01A08805846C0B2002806D11248B0F895
:201AC000B800DFF8E01A088005E00F48B0F8B400DFF8D01A0880BDE8F18F00200C4981F801
:201AE000D4010B48006E30F48000094908660848806D30F44060064988650020DFF8A81AF6
:201B000081F8DD0170470000A04300209C720020FC2F0020F0B4DFF8940A007810F00C009E
:201B2000042801D1012100E00021DFF8800AC27812F03002102A01D1012300E00023DFF8AB
:201B40006C0AC07810F00300012801D1012400E00024DFF8580A807810F00C00042801D175
:201B6000012500E00025DFF8440A0079032801D1012600E00026DFF8380A90F8D4013F2895
:201B800008D2DFF82C0A90F8D401401CDFF8207A87F8D401DFF8180A006EC0F380500028CE
:201BA00015D1DFF80C0A006E50F48000DFF8007A3866DFF8FC09806D50F44060DFF8F07944
:201BC000B8650020DFF8E07987F8DD0143E0DFF8E009806D800A10F00300012802D00228B9
:201BE00012D026E03000C0B200280CD1DFF8C009806D50F44060DFF8B879B8650020DFF8C9
:201C0000A87987F8DD0126E0DFF8A40990F8D40132280DDB0120DFF89879BF6D60F38B27E3
:201C2000DFF88C0987650120DFF87C7987F8DD0111E03000C0B200280DD00220DFF8707988
:201C4000BF6D60F38B27DFF8680987650020DFF8607987F8D401DFF85C09007808280ED138
:201C60000800DFF84C7997F8A571C0B2B84206D2DFF8380900794C2801D1012000E00020DF
:201C8000B04FB870DFF82C090078082811D11800DFF81C7997F8A671C0B2B84209D2DFF83F
:201CA0000C0900794E2804D10120DFF80C79387003E00020DFF800793870DFF8F8080078DC
:201CC000082811D12000DFF8E87897F8A371C0B2B84209D2DFF8D40800794E2804D1012019
:201CE000DFF8D878387003E00020DFF8D0783870DFF8C0080078082811D12800DFF8B078FB
:201D000097F8A471C0B2B84209D2DFF8A00800794E2804D10120DFF8A878387003E00020D2
:201D2000DFF89C783870DFF89C0890F8F809002806D0DFF89408006890F89004FF2806D119
:201D4000DFF88408006890F80006FF2801D0012600E00026DFF87408007808280BD1DFF857
:201D60007008007810F0C000402804D10120DFF86478387003E00020DFF858783870300078
:201D8000C0B2002837D0DFF84008006890F80006FF280ED0DFF840080078012804D10120D2
:201DA000DFF83878387036E00020DFF83078387031E0DFF8F807C07810F00C00042804D16B
:201DC000DFF8E807007901280BD0DFF8E007007810F00300012809D1DFF8D0070079032832
:201DE00004D10120DFF8F477387014E00020DFF8EC7738700FE0DFF8D807007810F00300ED
:201E0000012804D10120DFF8D477387003E00020DFF8C87738703000C0B2002814D0DFF893
:201E2000A807006890F80006FF2806D0DFF8B0070078DFF8B07738700CE0DFF8780700789A
:201E4000DFF8A077387005E0DFF880070078DFF8947738703000C0B2002811D0102A0AD1E7
:201E6000DFF8440790F8DD01002804D00120DFF87877387014E00020DFF86C7738700FE0EA
:201E8000DFF84C07007810F00C00042804D10120DFF85477387003E00020DFF84C773870E3
:201EA000DFF82407006890F80006FF280ED0DFF83C070078012804D10120DFF8347738704A
:201EC0002EE00020DFF82877387029E03000C0B2002815D0DFF8D406407810F00C0004285D
:201EE00009D1DFF8C8060079032804D10120DFF80077387014E00020DFF8F47638700FE0E7
:201F0000DFF8CC06007810F03000102804D10120DFF8DC76387003E00020DFF8D4763870A5
:201F2000DFF88C0680F8A341DFF8840680F8A451DFF87C0680F8A511DFF8740680F8A631E7
:201F4000F0BC7047FC56002080B5DFF8A8060DF030FCDFF85C06406D20F04040DFF8501616
:201F60004865DFF84C06806D80088000DFF840168865DFF83C06806D30F00C00DFF830162D
:201F80008865DFF82C06806D30F03000DFF820168865DFF81C06806D30F0C000DFF8101651
:201FA0008865DFF80C06806D30F44070DFF800168865DFF8FC05006E30F40010DFF8F0155A
:201FC0000866DFF8EC05406D30F04050DFF8E01548650020DFF8D815A1F864010020DFF81C
:201FE0001816087001BD0000127500201CB54FF47A730DF10202DFF804060188DFF800068C
:2020000000880DF00BFCBDF9024024B2DFF8E4256946200000B20DF0CFFBBDF90000401137
:20202000DFF8E0150880DFF88805006EC0F34050002815D1DFF87805006E50F40010DFF83C
:20204000701508660120DFF86815496D60F31D71DFF85C054165FF20DFF89C1508709BE207
:20206000DFF84C05406DC0F30170012841D1FF20DFF884150870DFF85005006890F8C00049
:20208000FF2800F08982DFF880050078012840F08382DFF878050078002800F07D820220E7
:2020A000DFF80C15496D60F31D71DFF8040541650120DFF8FC14496D60F39F71DFF8F0041F
:2020C00041650120DFF8E814896D60F30101DFF8E00481650220DFF8D814896D60F38301C8
:2020E000DFF8CC0481650020DFF8C414A1F8640152E2DFF81405007801283DD0DFF8B00429
:20210000806D30F00C00DFF8A8148865DFF8A004806D80088000DFF898148865DFF89004DB
:20212000806D30F03000DFF888148865DFF88004406D20F04040DFF878144865DFF870040F
:20214000806D30F0C000DFF868148865DFF86004806D30F44070DFF8581488650120DFF84E
:202160005014496D60F31D71DFF844044165FF20DFF8841408700FE2DFF83404406D800F5D
:20218000012803D0022800F05681ADE1DFF838040068B0F8C200DFF868140988884234D32A
:2021A000DFF8040490F8FF0008282ED1DFF80004806D30F00C00DFF8F8138865DFF8F003FD
:2021C000806D80088000DFF8E8138865DFF8E003806D30F03000DFF8D8138865DFF8D003FB
:2021E000406D50F04040DFF8C81348650120DFF8C013896D60F30921DFF8B4038165002041
:20220000DFF8AC13A1F8640114E1DFF8F4030088DFF8B4130968B1F8C810884235D3DFF8A6
:20222000880390F8FF0008282FD1DFF88403806D30F00C00DFF878138865DFF87403806D5B
:2022400080088000DFF868138865DFF86403806D30F03000DFF8581388650220DFF8501331
:20226000496D60F39F71DFF8480341650120DFF84013896D60F38711DFF83403816500203D
:20228000DFF82C13A1F86401D4E0DFF8240390F8580010F00300012869D1DFF86803008868
:2022A000DFF824130968B1F8C410884233D3DFF818030068B0F8C600DFF8481309888842FD
:2022C00029D3DFF8E40290F8FF00082823D1DFF8D80290F8FE0008281DD1DFF8380C0078B2
:2022E000002818D1B248806D30F00C00B04988650220AF49896D60F30101AD488165012073
:20230000AB49896D60F30511A94881650020A849A1F864018EE0A648806DC0F381000128DE
:2023200003D10020B449087084E0A148B0F86401A5490968B1F8CC10884203D2AE480078E9
:2023400000280CD101209A49896D60F38301984881650020A84908700FF099FE6AE094489C
:20236000B0F86401401C9249A1F8640162E0A548008895490968B1F8C410884216D392480B
:202380000068B0F8C6009F49098888420ED3864890F8FF00082809D1834890F8FE00082863
:2023A00004D1DFF8700B0078012818D18048806D30F030007E49886501207D49896D60F383
:2023C00001017B48816502207949896D60F383017748816500207649A1F864012AE0744859
:2023E000806DC0F30110012821D17148B0F8640175490968B1F8CE10884203D27E480078B8
:2024000001280CD102206A49896D60F30511684881650120784908700FF039FE0AE06448C6
:20242000B0F86401401C6249A1F8640102E0012071490870B0E07248008863490968B1F8BD
:20244000C810884203D26C480078152804D1564890F8FF0008281FD05548806D30F0C00019
:202460005349886501205249496D60F39F715048416501204E49896D60F301014C48816543
:2024800002204B49896D60F383014948816500204749A1F8640126E04548806DC0F38110D0
:2024A00001281DD14248B0F8640147490968B1F8D01088420CD302203D49896D60F38711B2
:2024C0003B48816515204C4908700FF0E0FD0AE03748B0F86401401C3549A1F8640102E045
:2024E00015204549087057E037480068B0F8C20043490988884203D23F480078162804D14B
:20250000294890F8FF0008281FD02948806D30F440702749886501202549496D60F39F716D
:202520002348416501202249896D60F301012048816502201E49896D60F383011C488165C5
:2025400000201B49A1F8640126E01948806DC0F3012001281DD11648B0F864011A4909687B
:20256000B1F8CA1088420CD302201149896D60F309210F48816516201F4908700FF087FD6A
:202580000AE00B48B0F86401401C0949A1F8640102E016201849087013BD0000CC76002022
:2025A0006C7500206E750020A043002024720020FC2F002039760020F1760020F276002035
:2025C000F3760020EC2500209C7200206E7600201C720020F47600204A760020F57600206C
:2025E0006F760020CB760020F676002049760020F7760020F4330020CA760020B47400208E
:20260000B07400206A7500204F760020507600200200D2B2152A02D103220A7008E002008B
:20262000D2B2162A02D101220A7001E002220A707047DFF8E4080078082805D1DFF8EC0923
:2026400090F8F200012847D0DFF8D008D0F8940030F44050DFF8C418C1F89400DFF8BC0866
:20266000006F30F4E010DFF8B4180867DFF8AC08D0F8940030F0C000DFF8A018C1F8940022
:20268000DFF89808D0F8940030F44070DFF88C18C1F89400DFF88408D0F8940030F4406048
:2026A000DFF87818C1F89400DFF87008D0F8940030F03000DFF86418C1F894000120DFF8D3
:2026C0005C18096F60F3D131DFF8500801670820DFF84C18087071E3DFF848080068B0F8BC
:2026E000D201DFF844180988884258D3DFF8300800780F2853D0DFF82408D0F8940030F4EA
:202700004050DFF81818C1F89400DFF81008006F30F4E010DFF804180867DFF80008D0F85A
:20272000940030F0C000DFF8F417C1F89400DFF8EC07D0F8940030F44070DFF8E017C1F875
:202740009400DFF8D807D0F8940030F44060DFF8CC17C1F89400DFF8C407D0F8940030F0EA
:202760003000DFF8B817C1F894000420DFF8AC17096F60F3D131DFF8A40701670120DFF8C9
:202780009C17D1F8941060F31141DFF89007C0F894100020DFF88417A1F862010EE3DFF854
:2027A00088070088DFF87C170968B1F8DA11884258D3DFF86C0700780F2853D0DFF85C0748
:2027C000D0F8940030F44050DFF85017C1F89400DFF84807006F30F4E010DFF84017086718
:2027E000DFF83807D0F8940030F0C000DFF82C17C1F89400DFF82407D0F8940030F44070EE
:20280000DFF81817C1F89400DFF81007D0F8940030F44060DFF80417C1F89400DFF8FC063F
:20282000D0F8940030F03000DFF8F016C1F894000320DFF8E816096F60F3D131DFF8DC0644
:2028400001670120DFF8D416D1F8941060F38F31DFF8C806C0F894100020DFF8C016A1F847
:202860006201ABE2DFF8B406006F800C10F00700012809D0C0F04682032800F0198175D35E
:20288000042800F0B6813DE2DFF898060068B0F8D401DFF890160968B1F820120818DFF8AC
:2028A0008C17B1F8B210884205DBDFF8800790F8F400032823D0DFF86406D0F8940030F4A7
:2028C0004050DFF85816C1F894000420DFF84C16096F60F39441DFF8440601670120DFF858
:2028E0003C16D1F8941060F38B21DFF83006C0F894100020DFF82416A1F8620135E0DFF898
:202900001C06D0F89400C0F30130012804D10C20DFF80C16087028E0DFF80006B0F86201CA
:20292000DFF800160968B1F8DE11884204D2DFF8F00500780C280FD10120DFF8E015D1F8F3
:20294000941060F30D31DFF8D405C0F894100C20DFF8CC15087008E0DFF8C005B0F862014B
:20296000401CDFF8B815A1F8620127E2DFF8BC06B0F8B210DFF8AC050068B0F8D821DFF8E7
:20298000A4050068B0F82002121A914205DBDFF89C0690F8F400032823D0DFF88005D0F846
:2029A000940030F0C000DFF87415C1F894000320DFF86815096F60F39441DFF8600501673B
:2029C0000120DFF85815D1F8941060F30921DFF84C05C0F894100020DFF84015A1F86201DC
:2029E00065E0DFF84005006890F87803FF2828D0DFF82C0500780B2823D1DFF82005D0F881
:202A0000940030F0C000DFF81415C1F894000520DFF80815096F60F39441DFF800050167F8
:202A20000120DFF8F814D1F8941060F30511DFF8EC04C0F894100020DFF8E014A1F86201B2
:202A400035E0DFF8D804D0F89400C0F38110012829D1DFF8C804B0F86201DFF8C814096819
:202A6000B1F8E411884204D2DFF8B40400780B280FD10220DFF8A414D1F8941060F38711F5
:202A8000DFF89804C0F894100B20DFF8941408700DE0DFF88804B0F86201401CDFF87C1427
:202AA000A1F8620103E00B20DFF87414087085E1DFF87805B0F8B210DFF868040068B0F8BE
:202AC000D621DFF860040068B0F82002121A914205DBDFF8580590F8F400032823D0DFF80E
:202AE0003C04D0F8940030F44070DFF83014C1F894000420DFF82414096F60F39441DFF854
:202B00001C0401670120DFF81414D1F8941060F38B21DFF80804C0F894100020DFF8FC135C
:202B2000A1F8620164E0DFF80405B0F8B200DFF8F4130968B1F8D811884223D3DFF8DC03C4
:202B4000D0F8940030F44070DFF8D013C1F894000220DFF8C813096F60F39441DFF8BC0334
:202B600001670120DFF8B413D1F8941060F38711DFF8A803C0F894100020DFF8A013A1F8B5
:202B8000620135E0DFF89403D0F89400C0F30120012829D1DFF88403B0F86201DFF8841325
:202BA0000968B1F8E211884204D2DFF8740300780A280FD10220DFF86413D1F8941060F360
:202BC0000921DFF85803C0F894100A20DFF8501308700DE0DFF84403B0F86201401CDFF818
:202BE0003C13A1F8620103E00A20DFF834130870E4E0DFF830030068B0F8D401DFF82C141D
:202C0000B1F8B210884223D3DFF8200490F8F40003281DD1DFF80403D0F8940030F44060FB
:202C2000BE49C1F894000120BC49096F60F39441BA4801670220B949D1F8941060F30D31EE
:202C4000B648C0F894100020B449A1F8620158E0DFF8D803B0F8B200B2490968B1F8D611C1
:202C6000884222D3DFF8C40390F8F40003281CD1AA48D0F8940030F44060A849C1F8940013
:202C80000320A649096F60F39441A44801670120A249D1F8941060F30921A048C0F89410F4
:202CA00000209E49A1F862012BE09C48D0F89400C0F38120012821D19848B0F8620199498A
:202CC0000968B1F8E011884203D29548007808280CD102209149D1F8941060F38B218F48A9
:202CE000C0F8941008208E4908700AE08B48B0F86201401C8949A1F8620102E00820884934
:202D000008705BE0864800780F282FD0C748B0F8B21084480068B0F8D82182480068B0F85C
:202D20002002121A914204DBC04890F8F40003281CD07A48D0F8940030F030007749C1F811
:202D4000940002207549096F60F394417348016701207249D1F8941060F387116F48C0F899
:202D6000941000206D49A1F8620127E06B48D0F89400C0F3011001281DD16848B0F8620131
:202D800068490968B1F8E61188420CD302206349D1F8941060F305116048C0F894100F20F1
:202DA0005F4908700AE05D48B0F86201401C5B49A1F8620102E00F2059490870704780B546
:202DC0005A480CF049FD5A4968460CF0C7FD594959480CF07DFD5148D0F8940030F44020CC
:202DE0004E49C1F894004D48006F30F460004B4908674A48D0F8940030F440004749C1F8C9
:202E000094004648D0F8940030F040704349C1F894004248D0F8940030F040603F49C1F8A4
:202E200094003E48D0F8940030F440103B49C1F894003A48D0F89400800880003749C1F8B8
:202E400094003648006F30F46030344908673348006F30F4E010314908673048D0F8940096
:202E600030F440502D49C1F894002C48D0F8940030F0C0002949C1F894002848D0F89400A0
:202E800030F440702549C1F894002448D0F8940030F440602149C1F894002048D0F894009C
:202EA00030F030001D49C1F894001C48D0F8940030F440401949C1F894001848D0F8940040
:202EC00030F440301549C1F894001448D0F8940030F00C001149C1F894001048D0F8980070
:202EE00030F080700D49C1F898000C48D0F8900020F040400949C1F8900000200749A1F83B
:202F000062010020064908700020DFF8D01B088001BD00005D760020B7760020FC2F0020B4
:202F2000C97600209C72002068750020F0330020E8330020EC330020D44300207FB5DFF808
:202F4000A00B006890F84005FF2871D1DFF8940B90F8EF01002813D1DFF88C0B0CF081FC47
:202F6000DFF8881B02A80CF0FEFCDFF8841BDFF8840B0CF0B8FC0120DFF8681B81F8EF01C7
:202F80004FF47A730DF106022848B0F85E102748B0F85C000CF042FCDFF84C2B0DF10A0171
:202FA000BDF806000CF062FCBDF90A004011DFF8481B0880DFF8280B0068B0F8D2010090AC
:202FC000DFF81C0B0068B0F8DA31DFF8202B02A9BDF806000CF0CCFCBDF9080000B2050017
:202FE000DFF80C3BDFF80C2B290009B2DFF8F00A006890F8EA010CF081FC0C48406B001489
:2030000006004FF4AA73DFF8F40A0268310089B268460FF00DF9DFF8E80A0068009930F8FA
:2030200011000249A1F8B2000DE000BFA0430020DFF8B00A90F8EF01002804D00020DFF83E
:20304000A41A81F8EF01DFF89C0AD0F89800C0F30060002829D1DFF88C0AD0F8980050F02A
:203060008070DFF8801AC1F898000220DFF8741AD1F8901060F39F71DFF8680AC0F89010AA
:203080000220DFF8601AD1F8941060F30101DFF8540AC0F894100820DFF8681A0870002051
:2030A000DFF8381A088000F0EEBCDFF8380AD0F89000800F012803D0022800F0C782A4E3DF
:2030C000DFF8200AD0F89400C0F38140012840F08B82DFF8340A90F8F30004283FD1DFF816
:2030E000040AD0F8940030F44000DFF8F819C1F89400DFF8F009006F30F46000DFF8E41936
:203100000867DFF8E009D0F8940030F04070DFF8D419C1F89400DFF8CC09D0F8940030F01B
:203120004060DFF8C019C1F89400DFF8B809D0F8940030F44010DFF8AC19C1F8940002207F
:20314000DFF8A019D1F8941060F39341DFF89409C0F894100020DFF88419088075E2DFF831
:20316000A809B0F86000DFF874190880DFF87409006F400D10F00700012807D0C0F0BF81A3
:20318000032800F05181C0F0AB80B8E1DFF84C090188DFF84C090068B0F8D821DFF84009C4
:2031A0000068B0F82002121A914205DBDFF8580990F8F400032823D0DFF82809D0F89400C8
:2031C00030F44000DFF81C19C1F894000220DFF81419096F60F35751DFF808090167012028
:2031E000DFF80019D1F8941060F31961DFF8F408C0F894100020DFF8EC18A1F862016EE031
:20320000DFF8DC08006890F87803FF2831D0DFF8CC080088DFF8C8180968B1F8F011884291
:2032200027D3DFF8C008D0F8940030F44000DFF8B418C1F894000420DFF8A818096F60F3BF
:203240005751DFF8A00801670120DFF89818D1F8941060F31551DFF88C08C0F8941000202A
:20326000DFF88018A1F862011A20DFF89818087035E0DFF87008D0F89400C0F3815001283D
:2032800029D1DFF86008B0F86201DFF854180968B1F8E411884204D2DFF8680800780B2806
:2032A0000FD10220DFF83C18D1F8941060F39751DFF83008C0F894100B20DFF848180870F4
:2032C0000DE0DFF82008B0F86201401CDFF81418A1F8620103E00B20DFF828180870B4E16A
:2032E000DFF8F8070188DFF8F8070068B0F8D621DFF8EC070068B0F82002121A914205DBB7
:20330000DFF8040890F8F400032823D0DFF8D407D0F8940030F04070DFF8C817C1F894004F
:203320000320DFF8C017096F60F35751DFF8B40701670120DFF8AC17D1F8941060F39B61D8
:20334000DFF8A007C0F894100020DFF89817A1F8620168E0DFF884070088DFF884170968DC
:20336000B1F8D811884228D3DFF8980700780A2823D1DFF87007D0F8940030F04070DFF891
:203380006417C1F894000120DFF85817096F60F35751DFF8500701670120DFF84817D1F8D5
:2033A000941060F39751DFF83C07C0F894100020DFF83017A1F8620135E0DFF82807D0F89B
:2033C0009400C0F30160012829D1DFF81807B0F86201DFF80C170968B1F8E211884204D27A
:2033E000DFF8200700780A280FD10220DFF8F416D1F8941060F31961DFF8E806C0F89410E7
:203400000A20DFF8001708700DE0DFF8D806B0F86201401CDFF8CC16A1F8620103E00A2051
:20342000DFF8E016087010E1DFF8B0060088DFF8B0160968B1F8D611884229D3DFF8C80638
:2034400090F8F400032823D1DFF89806D0F8940030F04060DFF88C16C1F894000220DFF881
:203460008416096F60F35751DFF8780601670120DFF87016D1F8941060F31961DFF8640689
:20348000C0F894100020DFF85C16A1F8620135E0DFF85006D0F89400C0F38160012829D116
:2034A000DFF84006B0F86201DFF834160968B1F8E011884204D2DFF84C06007808280FD167
:2034C0000220DFF82016D1F8941060F39B61DFF81406C0F894100820DFF8281608700DE012
:2034E000DFF80006B0F86201401CDFF8F815A1F8620103E00820DFF80C160870A5E0DFF8D0
:20350000040600780F2839D0DFF8D0050188DFF8D0050068B0F8F021DFF8C4050068B0F837
:203520002002121A914205DBDFF8DC0590F8F400032823D0DFF8AC05D0F8940030F44010E0
:20354000DFF8A015C1F894000120DFF89815096F60F35751DFF88C0501670120DFF8841519
:20356000D1F8941060F39751DFF87805C0F894100020DFF87015A1F8620134E0DFF8640527
:20358000D0F89400C0F30150012828D11A20DFF874150870DFF84C05B0F86201DFF8401538
:2035A0000968B1F8E61188420FD30220DFF83415D1F8941060F31551DFF82805C0F8941086
:2035C0000F20DFF8401508700DE0DFF81805B0F86201401CDFF80C15A1F8620103E00F20CA
:2035E000DFF82015087030E0DFF81C0590F8F30004282AD00120DFF8EC14D1F8941060F3E6
:203600009341DFF8E004C0F89410DFF8FC04B0F86000DFF8C81408800320DFF8C814096F57
:2036200060F35751DFF8BC0401670120DFF8B414D1F8941060F39B61DFF8A804C0F8941035
:203640000020DFF8A014A1F862011CE2DFF89004006890F8D001FF2857D0DFF88404006884
:2036600090F84005FF2850D1DFF87804D0F8940080088000DFF86C14C1F89400DFF864049B
:20368000D0F8900050F04040DFF85814C1F890000120DFF85014D1F8941060F38301DFF80F
:2036A0004404C0F894100020DFF830140880DFF830040068B0F8D201DFF83C140988884233
:2036C00009D2DFF834040088DFF814140968B1F8DA11884204D30020DFF80014088006E05A
:2036E000DFF82404B0F8B200DFF8F01308800120DFF8F013096F60F3D131DFF8E80301671D
:203700000820DFF8001408707EE0DFF8D403006890F84005FF2847D0DFF8C403006890F811
:20372000D001FF2840D0DFF8BC03D0F8940080088000DFF8B013C1F894000120DFF8A413F1
:20374000D1F8901060F39F71DFF89803C0F890100120DFF89013D1F8941060F39341DFF8CD
:203760008403C0F89410DFF8A003B0F86000DFF86C1308800320DFF86C13096F60F357511A
:20378000DFF8600301670120DFF85813D1F8941060F39B61DFF84C03C0F894100020DFF8EF
:2037A0004413A1F862012FE0DFF8380390F8940010F0030001280BD10820DFF8481308709F
:2037C000DFF84403B0F86000DFF8101308801BE00820DFF830130870DFF80403006890F8BE
:2037E0004005FF2810D00120DFF8F812D1F8941060F30101DFF8EC02C0F89410DFF80803B6
:20380000B0F86000B54908803DE1B648D0F89400C0F3810001280FD1DFF8EC0290F8F20026
:2038200001280ED10220AF49D1F8941060F38301AC48C0F8941004E0B348B0F8B200A749A9
:203840000880A848006FC00B10F00700012805D0C0F0A58003282DD029D3A0E00820A9491E
:203860000870DFF81C0B007808281FD1A64890F8F20001281AD102209A49096F60F3D131EC
:203880009848016704209749096F60F394419548016701209349D1F8941060F38B219148B5
:2038A000C0F8941000208F49A1F86201EBE0FEF7C0FEE8E09048008889490968B1F8DA113B
:2038C000884223D28748D0F8940030F440408549C1F8940002208349096F60F3D1318148BB
:2038E000016704207F49096F60F394417D48016701207C49D1F8941060F38B217948C0F8DC
:20390000941000207749A1F8620147E0DFF8700A0078082816D07B480078152812D071480E
:20392000D0F8940030F440406E49C1F8940001206C49096F60F3D1316A48016708207149E4
:2039400008702BE06748D0F89400C0F38130012821D16448B0F8620161490968B1F8E811E6
:20396000884203D26748007815280CD102205D49D1F8941060F38F315A48C0F894101520EC
:20398000604908700AE05748B0F86201401C5549A1F8620102E015205A49087073E050485F
:2039A0000068B0F8D20154490988884223D24D48D0F8940030F440304A49C1F894000220B0
:2039C0004849096F60F3D1314648016704204549096F60F394414348016701204149D1F8DA
:2039E000941060F38B213F48C0F8941000203D49A1F8620147E0DFF888090078082816D082
:203A000040480078162812D03648D0F8940030F440303449C1F8940001203249096F60F3E7
:203A2000D131304801670820364908702BE02D48D0F89400C0F30140012821D12948B0F881
:203A4000620127490968B1F8DC11884203D22D48007816280CD102202249D1F8941060F398
:203A600011412048C0F894101620264908700AE01C48B0F86201401C1A49A1F8620102E01D
:203A800016202049087001A91E480078FEF7C0FD9DF80400012802D0022805D018E000202A
:203AA000DFF8381D088017E00C480088B0F5AA7F02D34FF4AA7001E008480088DFF8C41813
:203AC000096831F810000400DFF8100D048003E0FA20DFF8081D08807FBD00006675002008
:203AE0009C720020FC2F0020F0330020E8330020EC330020D443002068750020B07200201A
:203B0000B4720020C9760020A043002010B4DFF87C2D92F81521082A37D0DFF8742D526D89
:203B200032F04072DFF8684D6265DFF8642D526D32F04062DFF8584D6265DFF8542D526D19
:203B400032F44002DFF8484D6265DFF8442DD26A32F06052DFF8384DE2620122DFF8304D5B
:203B6000646D62F31554DFF8282D54650822DFF81C4D84F8A721DFF81C2D1268B2F9562266
:203B8000DFF8084DA4F8442011E3DFF8042DD26AD20E12F00702012A0CD0C0F0A882032AC8
:203BA00000F03882C0F0EC81052A00F03F82C0F037829CE2DFF8DC2C1268B2F85A2204886C
:203BC000A2422FD2DFF8C82C526D32F04072DFF8C04C6265DFF8B82C526D32F04062DFF8E3
:203BE000B04C6265DFF8A82C526D32F44002DFF8A04C62650522DFF8984CE46A62F3DD64E0
:203C0000DFF88C2CD4620022DFF8844C84F8D321DFF8802C1268B2F95622DFF8704CA4F857
:203C20004420ACE10288DFF86C4C2468B4F85C42A2422FD2DFF8582C526D32F04072DFF8FA
:203C4000504C6265DFF8482C526D32F04062DFF8404C6265DFF8382C526D32F44002DFF8D0
:203C6000304C62650622DFF8284CE46A62F3DD64DFF81C2CD4620022DFF8144C84F8D3218C
:203C8000DFF8102C1268B2F95622DFF8004CA4F8442074E1DFF8F82B92F8D121182A2FD144
:203CA000DFF8EC2B526D32F04072DFF8E44B6265DFF8DC2B526D32F04062DFF8D44B626598
:203CC000DFF8CC2B526D32F44002DFF8C44B62650222DFF8BC4BE46A62F3DD64DFF8B02BAA
:203CE000D4621822DFF8A44B84F8A721DFF8A42B1268B2F95622DFF8944BA4F844203EE132
:203D0000DFF88C2B526DC2F38152012A40F010810C88DFF87C2BB2F8B42014192300DFF82B
:203D20006C2BA2F84430DFF8682B526DC2F30162012A2FD10822DFF8544B84F8A721DFF8B7
:203D4000F82B1278012A40F01A811A0012B2DFF8404BB4F85E41A242C0F21181DFF8302BDB
:203D6000B2F860211C0024B2A242C0F208810222DFF81C4B646D62F31964DFF8142B546533
:203D80000222DFF80C4B646D62F39B64DFF8002B5465F4E0DFF8A02B1278012A16D0DFF809
:203DA000F02A526D32F04062DFF8E44A62650122DFF8DC4A646D62F31964DFF8D42A546549
:203DC0000822DFF8C84A84F8A721D8E0DFF8C02A526D920E12F00302012A02D0022A3AD07A
:203DE0006BE0FD22DFF8A44A84F8A7211A0012B2DFF89C4AB4F85E41A24215DBDFF8902A05
:203E0000B2F860211C0024B2A2420DDADFF8802A526D52F04062DFF8784A6265FE22DFF83F
:203E20006C4A84F8A72115E01A0012B2DFF8604AB4F85E41A2420DDB0222DFF8544A646DB3
:203E400062F39B64DFF8482A54650822DFF83C4A84F8A72193E00822DFF8304A84F8A7210F
:203E6000DFF82C2AB2F860211C0024B2A2420DDADFF81C2A526D52F04062DFF8144A626571
:203E8000FE22DFF8084A84F8A72115E01A0012B2DFF8FC49B4F85E41A2420DDA0122DFF896
:203EA000F049646D62F39B64DFF8E4295465FD22DFF8D84984F8A72161E0FE22DFF8CC495F
:203EC00084F8A721DFF8C829B2F860211C0024B2A24216DB1A0012B2DFF8B449B4F85E41E7
:203EE000A2420EDA0122DFF8A849646D62F39B64DFF89C295465FD22DFF8904984F8A7217E
:203F000015E0DFF88C29B2F860211C0024B2A2420DDB0222DFF87849646D62F39B64DFF87F
:203F2000702954650822DFF8644984F8A72126E00822DFF8584984F8A721DFF8542992F873
:203F4000D121002A1BD00122DFF84449646D62F39754DFF83C2954650C88DFF83429B2F85B
:203F6000B4201419DFF82429A2F844400122DFF82049646D62F31964DFF81429546516E134
:203F80001822DFF8084984F8A721DFF8042992F8D121182A3DD00122DFF8F448E46A62F3D3
:203FA000DD64DFF8EC28D4620222DFF8E448646D62F39754DFF8D82854650822DFF8CC48C2
:203FC00084F8A721DFF8CC281268B2F85642DFF8C428126892F86222A41ADFF8B428A2F8C0
:203FE0005E41DFF8B0281268B2F85622DFF8A448246894F862421219DFF89448A4F860215D
:20400000DFF890281268B2F95622DFF88048A4F84420CCE01522DFF8744884F8A721C6E075
:204020001622DFF8684884F8A721C0E0DFF8602892F8D321DFF85C48246894F85E42A242E9
:204040000ED30322DFF84848E46A62F3DD64DFF84028D4621522DFF8344884F8A72145E0A7
:20406000DFF830281268B2F85A220488A2423DD30122DFF81C48E46A62F3DD64DFF81028A0
:20408000D4620222DFF80848646D62F39754DFF8002854650822DFF8F44784F8A721DFF87F
:2040A000F4271268B2F85642DFF8E827126892F86222A41ADFF8D827A2F85E41DFF8D4271C
:2040C0001268B2F85622DFF8CC47246894F862421219DFF8BC47A4F86021DFF8B82712684C
:2040E000B2F95622DFF8A447A4F844205FE0DFF8A02792F8D321DFF89C47246894F85E420E
:20410000A2420ED30422DFF88847E46A62F3DD64DFF87C27D4621622DFF8704784F8A72170
:2041200045E00288DFF86C472468B4F85C42A2423DD30122DFF85847E46A62F3DD64DFF828
:204140005027D4620222DFF84847646D62F39754DFF83C2754650822DFF8304784F8A72168
:20416000DFF830271268B2F85642DFF82827126892F86222A41ADFF81827A2F85E41DFF8C3
:2041800014271268B2F85622DFF80847246894F862421219DFF8F846A4F86021DFF8F42618
:2041A0001268B2F95622DFF8E446A4F8442010BC7047DFF8DC06406D30F44020DFF8D01637
:2041C00048650020DFF8C81681F8D201DFF8C006406D30F44010DFF8B8164865DFF8B00674
:2041E000C06A30F06050DFF8A816C862DFF8A006406D30F44000DFF898164865DFF89006D9
:20420000406D30F04070DFF888164865DFF88006406D30F04060DFF8781648650020DFF82C
:20422000701681F8D301DFF86806006E30F48010DFF85C1608660020DFF85416A1F8B400DF
:204240000020DFF84C1681F8D1010020DFF84016A1F85E010020DFF83816A1F86001002016
:20426000DFF8281681F8A7010020DFF82016A1F844000820DFF8701708704FF4FA70DFF87C
:204280000C16A1F842004FF4FA70DFF8601708807047DFF8FC05406D30F44020DFF8F01502
:2042A00048650020DFF8E81581F8D201DFF8E005406D30F44010DFF8D8154865DFF8D00517
:2042C000C06A30F06050DFF8C815C862DFF8C005406D30F44000DFF8B8154865DFF8B0057C
:2042E000406D30F04070DFF8A8154865DFF8A005406D30F04060DFF8981548650020DFF8EF
:20430000901581F8D301DFF88805006E30F48010DFF87C1508660020DFF87415A1F8B40082
:204320000020DFF86C1581F8D1010020DFF86015A1F85E010020DFF85815A1F860010020D8
:20434000DFF8481581F8A7010020DFF84015A1F8440070470820DFF8901608704FF4FA705E
:20436000DFF82815A1F842004FF4FA70DFF87C1608800020DFF8181581F8EE01704700006D
:20438000B7760020AC7200201CB5DFF8000590F8B801002800F01982DFF8F40490F8EE01AB
:2043A000002806D1FFF775FF0120DFF8E41481F8EE01DFF83C060088002802D14FF6FF70EC
:2043C00008E0DFF830060088C003DFF824160988B0FBF1F0DFF8BC140968B1F8601280B20A
:2043E00000FB01F0C00BADF80200DFF8A804006890F82308FF2810D1BDF80200B0F57A7F64
:2044000005DABDF80200DFF8E415088016E04FF47A70DFF8D815088010E0BDF80200B0F5F3
:204420007A7F03DABDF80200040002E04FF47A700400D4F57A70DFF8B4150880DFF8AC0575
:20444000B0F90000ADF80000DFF8440490F8D2013F2808D2DFF8380490F8D201401CDFF8B2
:20446000301481F8D201DFF8280490F8D301FF2808D0DFF81C0490F8D301401CDFF81014A4
:2044800081F8D301DFF80804006EC0F30050002867D1DFF8FC03006E50F48010DFF8F01329
:2044A00008660120DFF8E813496D60F39341DFF8E00341650020DFF8D81381F8D201002010
:2044C000DFF8CC1381F8D1010020DFF8C413A1F8B4000220DFF8B813496D60F31551DFF8B6
:2044E000B00341650120DFF8A813C96A60F3DD61DFF89C03C1620220DFF89413496D60F3AA
:204500009751DFF88C0341650820DFF8801381F8A701DFF880030068B0F85612DFF87403D4
:20452000006890F86202091ADFF86403A0F85E11DFF860030068B0F85602DFF8581309686A
:2045400091F862124018DFF84813A1F86001DFF844030068B0F95602DFF83013A1F844005C
:2045600027E1DFF82C03406D800C10F00300012802D0022810D07AE0DFF8140390F8D20149
:20458000322808DB0220DFF80813496D60F39341DFF8FC024165BFE0DFF8F00290F8B701CA
:2045A00000280FD0DFF8E40290F8A701162809D0B64890F8A701152804D0B44890F8150117
:2045C000082818D0DFF83004007801284ED1DFF82C040078022849D0AC4890F8A7011628D4
:2045E00044D0AA4890F8A70115283FD0A74890F8150108283AD1BDF90000A6490968B1F8B2
:204600002818884216DBA3480068B0F82A08BDF9001088420EDB08209D4981F8D1019D48BB
:204620000068B0F95612BDF80000091A9848A0F8B41015E0964890F8D10118280CD018206C
:20464000934981F8D10100209149A1F8B4003020DFF8AC13087003E0FF20DFF8A413087086
:204660008B48406D50F440208949486554E0DFF888030078012809D1DFF88003007802288A
:2046800004D0824890F81501082807D002208049496D60F393417E4841653DE07B4890F83B
:2046A000B701002838D0BDF900007A490968B1F82818884216DB77480068B0F82A08BDF9CD
:2046C000001088420EDB0820714981F8D10171480068B0F95612BDF80000091A6C48A0F894
:2046E000B41013E06A4890F8D10118280BD01820674981F8D10100206549A1F8B40030203E
:20470000BF49087002E0FF20BD4908706048406D50F440205E4948655D48406DC0F30150F7
:20472000012841D10820594981F8A701574890F8150108283DD102205549496D60F31551A9
:204740005348416501205249C96A60F3DD615048C16202204E49496D60F397514C484165F9
:2047600008204A4981F8A7014A480068B0F856124848006890F86202091A4548A0F85E11B8
:2047800044480068B0F856024249096891F8621240183F49A1F860013E480068B0F9560263
:2047A0003A49A1F8440004E069460DF10200FFF7ADF93648B0F844003449A1F8420033482D
:2047C00090F8A7018849087006E0314890F8EE01002801D0FFF7BEFD13BD00006475002017
:2047E0002B48406D000C10F00300012804D03AD3032827D013D336E001202549496D60F3CA
:204800008F312348416501202149496D60F311411F484165FD201D4981F8A60135E00220FA
:204820001B49496D60F38F311948416502201849496D60F31141164841650820134981F865
:20484000A60122E01248406D50F44040104948650F48406D50F440300D494865FE200B49B1
:2048600081F8A60111E002200949496D60F38F310748416502200649496D60F311410448DD
:2048800041650820014981F8A6017047A0430020FC2F00209C7200205A48406D30F440609A
:2048A000584948655748406D30F44050554948655448C06A30F0E0605249C8625148406D2E
:2048C00030F440404F4948654E48406D30F440304C49486500204B4981F8D0014948006ED9
:2048E00030F400204749086600204649A1F8B2000020444981F8CF0100204249A1F85A01E7
:2049000000204049A1F85C0100203F4981F8A60100203D49A1F840000820DFF8101A087010
:204920004FF4FA70DFF8081A08804FF4FA70DFF8041A088070470000A37600203148406D09
:2049400030F440602F4948652E48406D30F440502C4948652B48C06A30F0E0602949C862DC
:204960002848406D30F44040264948652548406D30F44030234948650020224981F8D001BE
:204980002048006E30F400201E49086600201D49A1F8B20000201B4981F8CF010020194908
:2049A000A1F85A0100201749A1F85C010020DFF8881981F8A6010020DFF87C19A1F8400070
:2049C00070470820DFF8641908704FF4FA70DFF8601908804FF4FA70DFF85819088000200A
:2049E000084981F8ED017047C876002062750020B4740020B6740020CA7600206376002008
:204A0000A8750020FC2F0020A0430020F8B5DFF8280990F8B601002800F08084DFF81C09FF
:204A200090F8ED01002806D1FFF788FF0120DFF80C1981F8ED01DFF808090088002802D195
:204A40004FF6FF7008E0DFF8FC080088C003DFF8F0180988B0FBF1F0DFF8EC180968B1F8A3
:204A60008E6380B24643F60BDFF8DC08006890F82308FF280ED1300080B2B0F57A7F03DAD0
:204A8000DFF8B008068014E04FF47A70DFF8A41808800EE0300080B2B0F57A7F01DA3500C7
:204AA00002E04FF47A700500D5F57A70DFF884180880DFF88008B0F900000400DFF87C08CC
:204AC00090F8D001FF2808D0DFF8700890F8D001401CDFF8681881F8D001DFF86008006E2C
:204AE000C0F3C040002856D1DFF85008006E50F40020DFF8481808660120DFF84018496D08
:204B000060F38B21DFF8340841650820DFF82C1881F8CF010020DFF82418A1F8B200DFF8FC
:204B200028080068B0F88413DFF81C08006890F89003091ADFF80408A0F85A11DFF8080830
:204B40000068B0F88403DFF80018096891F890134018DFF8E817A1F85C010220DFF8DC1722
:204B6000496D60F30D31DFF8D40741650120DFF8CC17C96A60F31A61DFF8C007C162DFF822
:204B8000BC07B0F8B2000019DFF8AC17A1F84000FFF726FEADE3DFF8A407406D800A10F009
:204BA0000300012802D002280AD0CDE00220DFF88C17496D60F38B21DFF8800741656CE1A4
:204BC000DFF8740790F81201012811D0DFF8680790F8120102280BD0DFF85C0790F8120123
:204BE000032805D0DFF8500790F8120104281BD1DFF858070078012816D1DFF8540700786C
:204C0000022811D0DFF8300790F8A60116280BD0DFF8240790F8A601152805D0DFF81807FA
:204C200090F8130108284BD0DFF828070078002804D1DFF824070078002829D0DFF8F806A2
:204C400090F8B501002823D1DFF8EC0690F8140104281DD0DFF8E00690F81101002805D027
:204C6000DFF8D40690F81201002811D1DFF8C80690F8A60116280BD0DFF8BC0690F8A60129
:204C8000152805D0DFF8B00690F81301082817D0DFF8A40690F8B401002854D0DFF8980643
:204CA00090F8A60116284ED0DFF88C0690F8A601152848D0DFF8800690F81301082842D140
:204CC000200000B2DFF880160968B1F82818884218DBDFF874060068B0F82A08210009B20F
:204CE00088420FDB0820DFF8541681F8CF01DFF858060068B0F98403001BDFF84016A1F8A0
:204D0000B20018E0DFF8300690F8A60118280ED01820DFF8281681F8CF010020DFF81C16D0
:204D2000A1F8B2003020DFF83416087003E0FF20DFF828160870DFF80406406D50F440603E
:204D4000DFF8F8154865A8E0DFF800060078012816D1DFF8FC050078022811D0DFF8D805C6
:204D600090F8A60116280BD0DFF8CC0590F8A601152805D0DFF8C00590F81301082809D0C1
:204D80000220DFF8B815496D60F38B21DFF8AC05416582E0DFF8BC050078002804D1DFF824
:204DA000B805007800282FD0DFF88C0590F8B501002829D1DFF8800590F81401042805D1D4
:204DC000DFF8780590F8CF0118281DD1DFF8680590F81101002805D0DFF85C0590F812014B
:204DE000002811D1DFF8500590F8A60116280BD0DFF8440590F8A601152805D0DFF83805C0
:204E000090F81301082805D0DFF82C0590F8B401002842D0200000B2DFF82C150968B1F86E
:204E20002818884218DBDFF820050068B0F82A08210009B288420FDB0820DFF8001581F81A
:204E4000CF01DFF804050068B0F98403001BDFF8EC14A1F8B20018E0DFF8DC0490F8A601EF
:204E600018280ED01820DFF8D41481F8CF010020DFF8C814A1F8B2003020DFF8E014087023
:204E800003E0FF20DFF8D4140870DFF8B004406D50F44060DFF8A4144865DFF8A004406D59
:204EA000C0F30130012829D10820DFF88C1481F8A601DFF8840490F81301082840F0198236
:204EC0000220DFF87814496D60F30D31DFF86C0441650120DFF86414C96A60F31A61DFF8D1
:204EE0005C04C162DFF85404B0F8B2000019DFF84814A1F84000FFF773FCFAE1DFF838042E
:204F000090F81301082827D0DFF83004406D30F44040DFF828144865DFF82004C06A30F06D
:204F2000E060DFF81814C8620120DFF81014496D60F30D31DFF8040441650820DFF8F81312
:204F400081F8A601DFF800040068B0F98403DFF8E813A1F84000CCE1DFF8E003C06A000E74
:204F600010F0070001280CD0C0F09681032800F05B81C0F03F81052800F06081C0F059816F
:204F80008AE1DFF8C4030068B0F88803310089B288421FD2DFF8A403406D30F44040DFF8A0
:204FA0009C1348650520DFF89413C96A60F31A61DFF88803C1620020DFF8801381F8D00198
:204FC000DFF884030068B0F98403DFF86C13A1F840000EE13000DFF870130968B1F88A137C
:204FE00080B288421FD2DFF85403406D30F44040DFF8481348650620DFF84013C96A60F390
:205000001A61DFF83803C1620020DFF8301381F8D001DFF834030068B0F98403DFF81813B4
:20502000A1F84000E5E0DFF8140390F8CF0118281DD1DFF80803406D30F44040DFF8FC1246
:2050400048650220DFF8F412C96A60F31A61DFF8EC02C1621820B84981F8A601DFF8E802A1
:205060000068B0F98403B449A1F84000C1E0B348B0F8B2000419B048A0F84040AF48406DFB
:20508000800B10F00300012802D002283DD072E0FD20A94981F8A601200000B2A749B1F864
:2050A0005C11884217DBA548B0F85A01210009B2884210DAA148406D50F440409F49486558
:2050C0009E48406D50F440309C494865FE209A4981F8A60118E0200000B29849B1F85A1117
:2050E000884211DB02209549496D60F38F319348416502209149496D60F311418F484165DC
:2051000008208D4981F8A60173E008208A4981F8A6018A48B0F85C01210009B2884210DA9C
:205120008648406D50F44040844948658348406D50F4403081494865FE207F4981F8A6010D
:2051400018E0200000B27D49B1F85A11884211DA01207A49496D60F38F31784841650120C2
:205160007649496D60F3114174484165FD20724981F8A6013DE0FE206F4981F8A6016F48F1
:20518000B0F85C01210009B2884219DB200000B26A49B1F85A11884212DA01206749496D9A
:2051A00060F38F316548416501206449496D60F3114162484165FD205F4981F8A60118E033
:2051C0005E48B0F85C01210009B2884211DB02205A49496D60F38F315848416502205749FC
:2051E000496D60F31141554841650820524981F8A6017EE01820504981F8A6014F4890F8C0
:20520000CF0118280FD001204C49C96A60F31A614A48C1624948B0F8B20000194649A1F807
:205220004000FFF7DDFA64E01520434981F8A6015FE01620404981F8A6015AE03F4890F8D5
:20524000D0014149096891F88C1388420BD303203A49C96A60F31A613848C16215203649B4
:2052600081F8A60117E038480068B0F88803310089B288420FD301203049C96A60F31A6149
:205280002E48C1622D48B0F8B20000192A49A1F84000FFF7A5FA2CE0284890F8D0012A4964
:2052A000096891F88C1388420BD304202349C96A60F31A612148C16216201F4981F8A601D2
:2052C00017E0300020490968B1F88A1380B288420FD301201949C96A60F31A611748C162A3
:2052E0001648B0F8B20000191349A1F84000FFF777FA114890F8A6010C4908700E48B0F8EE
:205300004070380080B2B0F57A7F02DA084807800BE04FF47A700649088006E0074890F876
:20532000ED01002801D0FFF74CFBF1BDC7760020607500205E750020A0430020FC2F002008
:20534000B4740020C07400209C720020CA76002063760020CD760020CE760020A875002026
:20536000DFF80C0CD0F89000C0F30140012811D1DFF8000C90F8EC00012813D10220DFF88A
:20538000F01BD1F8901060F31141DFF8E40BC0F8901007E0DFF8DC0BB0F8AA00DFF8D41B19
:2053A000A1F8B000DFF8C80B006F400A10F00700012807D0C0F08784032800F0F68336D3E2
:2053C00000F081BC0820DFF8AC1B81F8A501DFF8A40B90F8A401082827D1DFF8980B90F8DE
:2053E000EC00012821D10220DFF8841B096F60F34B21DFF87C0B01670320DFF8741B096F10
:2054000060F30E31DFF8680B01670120DFF8601BD1F8901060F39341DFF8540BC0F89010B7
:205420000020DFF84C1BA1F8580100F0C6BCDFF8440B90F8A401082805D1DFF8380B90F8AF
:20544000EC0001283ED0DFF8280BD0F8900030F44010DFF81C1BC1F89000DFF8140B006F97
:2054600030F4E040DFF8081B0867DFF8040BD0F8900030F44000DFF8F81AC1F89000DFF8D4
:20548000F00AD0F8900030F44020DFF8E41AC1F89000DFF8DC0AD0F8900030F04070DFF85C
:2054A000D01AC1F890000120DFF8C41A096F60F34B21DFF8BC0A01670820DFF8B81A81F85D
:2054C000A50171E3DFF8B00A0068B0F83202DFF8A41AB1F8A81088424FD3DFF8980A90F81A
:2054E000A5010F2849D0DFF8880AD0F8900030F44010DFF87C1AC1F89000DFF8740A006F07
:2055000030F4E040DFF8681A0867DFF8640AD0F8900030F44000DFF8581AC1F89000DFF815
:20552000500AD0F8900030F44020DFF8441AC1F89000DFF83C0AD0F8900030F04070DFF89B
:20554000301AC1F890000420DFF8241A096F60F34B21DFF81C0A01670120DFF8141AD1F8F4
:20556000901060F31D71DFF8080AC0F890100020DFF8FC19A1F8580116E3DFF8F809B0F8F2
:20558000A800DFF8F4190968B1F8341288424FD3DFF8E00990F8A5010F2849D0DFF8D00945
:2055A000D0F8900030F44010DFF8C419C1F89000DFF8BC09006F30F4E040DFF8B4190867C0
:2055C000DFF8AC09D0F8900030F44000DFF8A019C1F89000DFF89809D0F8900030F4402056
:2055E000DFF88C19C1F89000DFF88409D0F8900030F04070DFF87819C1F890000320DFF8AF
:205600007019096F60F34B21DFF8640901670120DFF85C19D1F8901060F39B61DFF85009C9
:20562000C0F890100020DFF84819A1F85801BBE2DFF83C09006F000B10F00700012807D08E
:20564000C0F04582032800F08881C0F0E4803EE2DFF82009B0F8AC00DFF81C190968B1F801
:205660004A120818DFF80C19B1F8AA1088422DDADFF80009B0F8AE00DFF8F818B1F8AA10FE
:20568000884223D3DFF8E808D0F8900030F44010DFF8DC18C1F890000220DFF8D418096F46
:2056A00060F30E31DFF8C80801670120DFF8C018D1F8901060F39751DFF8B408C0F89010EA
:2056C0000020DFF8AC18A1F85801A3E0DFF8A808006890F87803FF2829D0DFF8980890F889
:2056E000A5010E2823D1DFF88808D0F8900030F44010DFF87C18C1F890000420DFF8701870
:20570000096F60F30E31DFF8680801670120DFF86018D1F8901060F31961DFF85408C0F83F
:2057200090100020DFF84818A1F8580172E0DFF84408B0F8AE00DFF840180968B1F84A1210
:205740000818DFF83018B1F8AA10884205DBDFF8240890F8EF00032823D0DFF81408D0F8AA
:20576000900030F44010DFF80818C1F890000320DFF8FC17096F60F30E31DFF8F407016794
:205780000120DFF8EC17D1F8901060F39341DFF8E007C0F890100020DFF8D417A1F8580194
:2057A00038E0DFF8CC07D0F89000C0F3015001282BD1DFF8BC07B0F85801DFF8BC170968F0
:2057C000B1F83C12884205D2DFF8A80790F8A5010E2810D10220DFF89817D1F8901060F302
:2057E0001551DFF88C07C0F890100E20DFF8841781F8A5010EE0DFF87807B0F85801401C21
:20580000DFF86C17A1F8580104E00E20DFF8641781F8A501C8E1DFF85C07B0F8AE00DFF8A9
:2058200058170968B1F84A120818DFF84817B1F8AA10884205DBDFF83C0790F8EF00032864
:2058400023D0DFF82C07D0F8900030F44000DFF82017C1F890000320DFF81417096F60F348
:205860000E31DFF80C0701670120DFF80417D1F8901060F39341DFF8F806C0F890100020A7
:20588000DFF8EC16A1F8580166E0DFF8E806B0F8AC00DFF8E016B1F8AA10884223D3DFF817
:2058A000D006D0F8900030F44000DFF8C416C1F890000120DFF8B816096F60F30E31DFF8B5
:2058C000B00601670120DFF8A816D1F8901060F31551DFF89C06C0F890100020DFF8901664
:2058E000A1F8580138E0DFF88806D0F89000C0F3815001282BD1DFF87806B0F85801DFF80B
:2059000078160968B1F83E12884205D2DFF8640690F8A501092810D10220DFF85416D1F841
:20592000901060F39751DFF84806C0F890100920DFF8401681F8A5010EE0DFF83406B0F8F3
:205940005801401CDFF82816A1F8580104E00920DFF8201681F8A50126E1DFF81806B0F8AE
:20596000AE00DFF81016B1F8AA1088423AD3DFF80406B0F8AC00DFF8FC15B1F8AA108842F8
:2059800030D2DFF8F00590F8EF0003282AD1DFF8E805006890F84902FF2823D0DFF8D005D7
:2059A000D0F8900030F44020DFF8C415C1F890000220DFF8BC15096F60F30E31DFF8B005B2
:2059C00001670120DFF8A815D1F8901060F39751DFF89C05C0F890100020DFF89415A1F8FD
:2059E000580173E0DFF88C05B0F8AC00DFF88415B1F8AA10884230D3DFF8780590F8EF00D4
:205A000003282AD1DFF87005006890F84902FF2823D0DFF85C05D0F8900030F44020DFF8D4
:205A20005015C1F890000120DFF84415096F60F30E31DFF83C0501670120DFF83415D1F8D3
:205A4000901060F31551DFF82805C0F890100020DFF81C15A1F8580138E0DFF81405D0F8A7
:205A60009000C0F3814001282BD1DFF80405B0F85801DFF804150968B1F84012884205D21F
:205A8000DFF8F00490F8A501082810D10220DFF8E014D1F8901060F39341DFF8D404C0F818
:205AA00090100820DFF8CC1481F8A5010EE0DFF8C004B0F85801401CDFF8B414A1F85801D1
:205AC00004E00820DFF8AC1481F8A5016CE0DFF8A404B0F8AC00DFF8A0140968B1F84A12E4
:205AE0000818DFF89014B1F8AA10884229DADFF8840490F8A5010F2823D0DFF87404D0F80D
:205B0000900030F04070DFF86814C1F890000220DFF85C14096F60F30E31DFF8540401677F
:205B20000120DFF84C14D1F8901060F39751DFF84004C0F890100020DFF83414A1F85801C5
:205B400032E0DFF82C04D0F89000C0F30160012825D1DFF81C04B0F85801DFF81C14096831
:205B6000B1F83A12884210D30220DFF80414D1F8901060F31961DFF8F803C0F890100F20E3
:205B8000DFF8F01381F8A5010EE0DFF8E403B0F85801401CDFF8D813A1F8580104E00F203C
:205BA000DFF8D01381F8A50107E1DFF8C803B0F8A800DFF8C4130968B1F8341288422CD25C
:205BC000DFF8AC03D0F8900030F04060DFF8A013C1F890000220DFF89813096F60F34B2179
:205BE000DFF88C0301670320DFF88413096F60F30E31DFF87C0301670120DFF87413D1F836
:205C0000901060F39341DFF86803C0F890100020DFF85C13A1F8580154E0DFF8580390F8DD
:205C2000A40108281ED0DFF84C0390F8A501152818D0DFF83C03D0F8900030F04060DFF823
:205C40003013C1F890000120DFF82413096F60F34B21DFF81C0301670820DFF8181381F851
:205C6000A5012FE0DFF80803D0F89000C0F38160012823D1BE48B0F85801BF490968B1F85B
:205C80004212884204D2BB4890F8A50115280DD10220B749D1F8901060F39B61B448C0F836
:205CA00090101520B34981F8A5010BE0B048B0F85801401CAE49A1F8580103E01520AD49BD
:205CC00081F8A50179E0AC480068B0F83202A949B1F8A810884223D2A548D0F8900030F09D
:205CE0004050A349C1F890000220A149096F60F34B219F48016703209D49096F60F30E313A
:205D00009B48016701209A49D1F8901060F393419748C0F8901000209549A1F858014CE051
:205D2000944890F8A401082818D0924890F8A501162813D08E48D0F8900030F040508C4966
:205D4000C1F8900001208A49096F60F34B21884801670820874981F8A5012EE08448D0F8DE
:205D60009000C0F30170012823D18148B0F8580181490968B1F83812884204D27D4890F86D
:205D8000A50116280DD102207949D1F8901060F31D717748C0F890101620764981F8A501E8
:205DA0000BE07348B0F85801401C7149A1F8580103E016206F4981F8A501704780B56F48A1
:205DC00009F04AFD6E49684609F0C8FD6D496E4809F07EFD0820674981F8A4016448D0F816
:205DE000900030F0C0006249C1F890006048D0F8900030F440705E49C1F890005C48D0F80F
:205E0000900030F440505A49C1F890005848D0F8900030F440605649C1F890005448D0F84A
:205E2000900030F440405249C1F890005048D0F8900030F030004E49C1F890004C48006F27
:205E400030F460604A4908674948006F30F4E040474908674648D0F8900030F44010444932
:205E6000C1F890004248D0F8900030F440004049C1F890003E48D0F8900030F440203C49DA
:205E8000C1F890003A48D0F8900030F040703849C1F890003648D0F8900030F04060344932
:205EA000C1F890003248D0F8900030F040503049C1F890002E48D0F8900030F440302C497E
:205EC000C1F890002A48D0F8980030F400002849C1F898002648D0F8900030F00C00244962
:205EE000C1F8900000202249A1F858010020214981F8A50100201F49A1F8B00008201D49D4
:205F000081F8A3011A48D0F88C0020F040401849C1F88C001648D0F88C0030F040501449B9
:205F2000C1F88C001248D0F89000800880001049C1F890000E48D0F8980030F480000C4911
:205F4000C1F898000A48D0F88C0030F040600849C1F88C0000200649A1F856010020054927
:205F600081F8A2010820034981F8A10101BD0000FC2F0020A04300209C720020E433002005
:205F8000DC330020E0330020D04300207FB5DFF8EC0C006890F83002012804D10120DFF851
:205FA000E01C087003E00020DFF8D41C0870DFF8CC0C006890F83002012800F07684DFF870
:205FC000100D90F8EB01002804D10120DFF8001D81F8EB01DFF8A40C006890F84005FF28D6
:205FE00040F0EA80DFF8E80C90F8EC01002814D1DFF8900C09F035FCDFF88C1C0DF106009A
:2060000009F0B1FCDFF8841CDFF8840C09F06BFC0120DFF8BC1C81F8EC01DFF8600C0068BB
:2060200090F83002002805D1DFF8A80CB0F85000060004E0DFF89C0CB0F8520006004FF479
:206040007A7301AA310089B2DFF8880CB0F84E0009F0E4FBDFF82C2C02A9BDF8040009F077
:2060600005FCBDF908004011DFF8681CA1F8A800DFF8080C0068B0F832020090DFF8FC0BD7
:206080000068B0F83432DFF8002C0DF10601BDF8040009F06DFCBDF9060000B20400DFF81E
:2060A000EC3BDFF8EC2B210009B2DFF8D00B006890F8440209F022FCDFF8180C006B001476
:2060C00005009623DFF8100C0268290089B268460CF0AEF8DFF8040C009900EB4100B0F89D
:2060E000AA02DFF8F01BA1F8AA00DFF8900B006890F83002002807D1DFF8E40B0078DFF826
:20610000D41B81F8A40106E0DFF8D80B0078DFF8C41B81F8A401DFF8BC0BB0F8580041F2B5
:206120008831884201D3322014E0DFF8A80BB0F858006421B0FBF1F0DFF8981BB1F858207C
:206140006423B2FBF3F103FB1121D1F16402914200D3401CDFF8901B096831F81000DFF8CA
:20616000741BA1F8AC00DFF86C0BB0F8580041F28831884201D3322014E0DFF8580BB0F84B
:2061800058006421B0FBF1F0DFF8481BB1F858206423B2FBF3F103FB1121D1F164029142F8
:2061A00000D3401CDFF8441B096831F81000DFF8241BA1F8AE000AE0DFF8140B90F8EC011E
:2061C000002804D00020DFF8081B81F8EC01DFF8000BD0F89800C0F3C05000282AD1DFF844
:2061E000F00AD0F8980050F40000DFF8E41AC1F898000220DFF8D81AD1F8901060F38301B0
:20620000DFF8CC0AC0F890100220DFF8C41AD1F8901060F30511DFF8B80AC0F890100820B7
:20622000DFF8B01A81F8A5010020DFF8A81AA1F8B000FFE2DFF8980AD0F89000800810F062
:206240000300012803D0022800F01582F0E2DFF8800AD0F89000C0F38110012840F0DE8107
:20626000DFF8700A90F8EE0004283DD1DFF8600AD0F8900030F44050DFF8541AC1F8900042
:20628000DFF84C0AD0F8900030F44070DFF8401AC1F89000DFF8380AD0F8900030F44060F6
:2062A000DFF82C1AC1F89000DFF8240AD0F8900030F44040DFF8181AC1F890000220DFF82C
:2062C000101AD1F8901060F38711DFF8040AC0F890100020DFF8FC19A1F8B0000820DFF8AF
:2062E000F41981F8A501C5E1DFF8E80990F8ED00DFF8E019A1F8B000DFF8D409D0F890006A
:20630000000A10F00300012803D0022800F0A48013E1DFF8C009B0F8B000DFF86019096889
:20632000B1F83612884205D2DFF8A80990F8EF00032825D0DFF89809D0F8900030F4405028
:20634000DFF88C19C1F890000220DFF88419D1F8901060F30921DFF87809C0F8901001202B
:20636000DFF86C19D1F8901060F38B21DFF86009C0F890100020DFF85819A1F858016AE01D
:20638000DFF8F808006890F87803FF282AD0DFF8440990F8A5010E2824D1DFF83409D0F841
:2063A000900030F44050DFF82819C1F89000DFF82009D0F8900050F44070DFF81419C1F82F
:2063C00090000120DFF80819D1F8901060F38F31DFF8FC08C0F890100020DFF8F418A1F8C9
:2063E000580138E0DFF8E808D0F89000C0F3013001282BD1DFF8D808B0F85801DFF87C18E1
:206400000968B1F83C12884205D2DFF8C80890F8A5010E2810D10220DFF8B418D1F8901059
:2064200060F30D31DFF8A808C0F890100E20DFF8A41881F8A5010EE0DFF89408B0F85801AA
:20644000401CDFF88C18A1F8580104E00E20DFF8841881F8A5010DE1DFF820080068B0F8D2
:206460003602DFF87018B1F8B01088422BD3DFF8640890F8EF00032825D1DFF85408D0F87E
:20648000900030F44060DFF84818C1F890000120DFF83C18D1F8901060F30921DFF83008E7
:2064A000C0F890100120DFF82818D1F8901060F30D31DFF81C08C0F890100020DFF81018E0
:2064C000A1F8580138E0DFF80808D0F89000C0F3812001282BD1DFF8F807B0F85801DFF84C
:2064E0009C170968B1F84012884205D2DFF8E40790F8A501082810D10220DFF8D417D1F82E
:20650000901060F38B21DFF8C807C0F890100820DFF8C01781F8A5010EE0DFF8B407B0F8C1
:206520005801401CDFF8A817A1F8580104E00820DFF8A01781F8A5019CE0DFF89807B0F8CB
:20654000B000DFF838170968B1F83612884205D2DFF8800790F8EF0003282BD0DFF8740715
:2065600090F8A5010F2825D0DFF86407D0F8900030F44040DFF85817C1F890000120DFF8FC
:206580005017D1F8901060F30921DFF84407C0F890100120DFF83817D1F8901060F30D31F3
:2065A000DFF82C07C0F890100020DFF82417A1F8580132E0DFF81807D0F89000C0F3813091
:2065C000012825D1DFF80807B0F85801DFF8AC160968B1F83A12884210D30220DFF8F0160A
:2065E000D1F8901060F38F31DFF8E406C0F890100F20DFF8E01681F8A5010EE0DFF8D00650
:20660000B0F85801401CDFF8C816A1F8580104E00F20DFF8C01681F8A5012BE00820DFF88D
:20662000B41681F8A501DFF8AC0690F8EE00042820D00120DFF89816D1F8901060F387115C
:20664000DFF88C06C0F890100220DFF88416D1F8901060F30921DFF87806C0F89010022031
:20666000DFF86C16D1F8901060F38B21DFF86006C0F89010DEE0DFF80406006890F8300203
:20668000FF285DD0DFF8F405006890F84005FF2856D1DFF83C06D0F8900030F03000DFF8BB
:2066A0003016C1F89000DFF82806D0F8900050F00C00DFF81C16C1F890000120DFF8101632
:2066C000D1F8901060F31141DFF80406C0F890100020DFF80016A1F8B000DFF8A005006839
:2066E000B0F83202DFF8EC15B1F8A81088420AD2DFF8E005B0F8A800DFF880150968B1F84D
:206700003412884205D30020DFF8C815A1F8B00007E0DFF8C005B0F8AA00DFF8B815A1F862
:20672000B0000120DFF8A815096F60F34B21DFF8A00501670820DFF89C1581F8A50176E0B4
:20674000DFF83805006890F83002FF2842D0DFF82C05006890F84005FF283BD0DFF870050F
:20676000D0F8900030F03000DFF86415C1F890000120DFF85C15D1F8901060F38301DFF858
:206780005005C0F890100120DFF84415D1F8901060F38711DFF83805C0F890100220DFF842
:2067A0003015D1F8901060F30921DFF82405C0F890100220DFF81815D1F8901060F38B21C8
:2067C000DFF80C05C0F890100820DFF8081581F8A5012CE0DFF8F804D0F89000C0F3011043
:2067E00001280DD10820DFF8EC1481F8A501DFF8E40490F8ED00DFF8DC14A1F8B00016E03A
:206800000820DFF8D01481F8A501DFF87004006890F84005FF280AD00120DFF8B414D1F86C
:20682000901060F30511DFF8A804C0F8901001E0FEF796FDDFF89C04B0F8B000DFF89414BD
:20684000A1F8A400DFF88C04B0F8AC00DFF8B4160880DFF88004B0F8AE00DFF8AC16088045
:20686000DFF87004B0F8A800DFF8A0160880DFF8640490F8A501DFF85C1481F8A301DFF8C0
:206880005404B0F8B000962801D3962003E0DFF84404B0F8B000DFF87816096831F8100097
:2068A000DFF83014A1F8A60015E0DFF8240490F8EB0100280FD0DFF8180490F8EC0100287F
:2068C00004D00020DFF8081481F8EC010020DFF8001481F8EB01DFF8A8030078002800F0E9
:2068E0009981DFF8EC03D0F89800C0F38050002825D1DFF8DC03D0F8980050F48000DFF806
:20690000D013C1F898000220DFF8C413D1F88C1060F39B61DFF8B803C0F88C100220DFF8E0
