:020000040804EE
:2000000000000110350106084301060843010608430106084301060843010608430106089F
:20002000430106084301060843010608430106084301060843010608430106084301060830
:20004000F8B5DFF82429DFF8185995F8A10102F5DE742178884205F17401B6414B6AF60F90
:20006000C3F34000B8B943F002034B62DFF8FC28DFF8F008136893F80066FF2E04D10B6889
:20008000062262F3954358E00A6822F44C0242F404020A6052E00B68C3F38140012850D1F1
:2000A000980D00F00300012802D002280ED01EE0DFF8B0080423037092F81C21082A40F055
:2000C0008E800B68072262F3995336E0DFF8942800201070DFF89428136893F8B001FF287B
:2000E0007DD00A68072060F399520A6077E002F58E72DFF870081678082E05D0012262F3C4
:2001000099530B6004211AE0C3F30163012B0BD1002303705279012A61D10B68022262F39D
:2001200019630B6001210AE0012303705279012A55D00B68012262F319630B6000210170B6
:200140004DE0180D00F00300012802D0022819D02DE0DFF81068DFF81408002232700668CB
:2001600096F8B021FF2A1CBF6078002837D0DFF8182C92F8EC0970B902201A4660F3155216
:200180000A602AE0DFF8DC77002038703EB392F81C01082823D143F440130B600121DFF84F
:2001A000C407DFF8E42B017082F8EC1915E0DFF8B4070123037092F81C21082A08BF002E92
:2001C0000DD00B68022262F315530B60002101700020DFF8B41B81F8EC0907F0A5FF20788A
:2001E00085F8A101F1BD70B4DFF87407DFF87457012180F8A11100F19802416F136821F007
:200200007C71416723F0020321F440211360416700242C7021F44031446E416724F0E044C8
:20022000446600F1E60524F0606444660026DFF85C0BDFF83417AE80034013606E8023F04B
:20024000806396822E80136081F8866170BC70472DE9F843DFF81447216891F89004FF28EF
:2002600006D0DFF82C2B907A012808BF012200D00022DFF8F486DFF8107B91F8006697F83A
:20028000EE7908F21D15A7F1040CEB78181FF7288041C00FBCF1F70F6CEB0C0CFF2E1CBFB0
:2002A000002803EB830004D112EADC7F03D007EB8700470001E091F8BC71FFF7C1FEDFF8C3
:2002C000A016AA7891F8DC01012A40F09F8101F1E60201F19803F8B9486E20F0E0404866B9
:2002E00000269680486F20F440304867486E20F0606048665680DFF8940A1E6806401E600F
:2003000000209882108026F080601860002088F88601012081F8DC014FF6FF7ED4F80090E9
:2003200099F8F004FF280EBF4FF0FF30DFF8644AB4F90000548874451CBF641C54809488C4
:2003400074451CBF641C9480D3F800C05FEACC741DD44CF00100186002204D6E60F35B65CB
:20036000002050804D660522186820F0007062F31E7518604D66002288F8862140F0806047
:200380001860FF27486F40F44030486734E14C6E640E04F00704012C36D01CD3032C08D04C
:2003A00019D25488052C37DB99F8F064FF2E19D132E0B3F9144004F119068642A4BF193C91
:2003C000A04229DA4E6E012464F35B664E664CF000741C601FE05488BEB2B44202D22C78A6
:2003E000012C08D14E6E032464F35B664E662CF000741C600FE0B3F9144004F10A06864280
:20040000A4BF0A3CA04207DA4C6E042666F35B644C66002454809882486E000F00F00700F4
:20042000401E042862D8DFE800F0030D14404C00908899F8B171B84250D22878012840F0B1
:20044000878091E028780127012888F8867114D165E018689488BFB2800EBC4280F0010088
:200460003CD22F78012F01D0C00737D409F5D977B8F87C007C88A0420ED2DFF8E804077872
:20048000012F09D16878022818BF012804D01868C0F34060002867D04F6E062060F31E7777
:2004A0004F66002088F886015EE0012088F8860128780128DAD04F6E022060F31E774F660B
:2004C0004EE0002788F88671DFF898040778012F06D109F5D974A079FF2801D0042038E0BF
:2004E0004F6E062060F31E774F663DE0002088F886011868B8F87C60B9F8B241470E87F0BC
:200500000107A64207F0010710D2DFF858643478012C04BF6C78032C08D13FB103204F6E1F
:2005200060F31E7700204F6690801DE02C78800E012C80F0010017D0DFF828442678012E2A
:2005400004BF6C78032C0FD100F0010038420BD002204F6E60F31E774F66012088F88601FB
:20056000186820F0806018604F6F3F0C07F00307012F02D0022F11D032E009F5D974B8F868
:200580007C006488A04230D26878022818BF01282BD01868C0F3406038BB2DE009F5A07029
:2005A000002744881088A04208D3744506D04A6F012060F311424A6701271DE01968B8F8DD
:2005C0007C30B9F8B241490EA34281F0010112D26B78032B0FD1C9070DD5401C10800BE0BE
:2005E00099F84001FF27FF2806D04B6F022060F311434B670027178098F88601DFF8981776
:200600000870DFF898170F70BDE8F18310B1002081F8DC01BDE8F183FCB4DFF8780B017871
:20062000022909D0DFF8702B1078012802BFDFF870170A78012A16D0C948416C826A21F026
:20064000F0014164022161F3944282620020DFF85417DFF8482B08701070DFF8442B107069
:20066000DFF8442723E0DFF844070078152818BF16280AD1BA48416C826A21F0F00141642C
:20068000032161F3944282620BE0B54A516C18280FD121F0F00151640420916A60F3944163
:2006A00091620020DFF8FC16DFF8F42A087005F047B80B0903F00303012B07D0C0F04D814F
:2006C000032B00F0C280C0F0968046E11069A8B1A54BDFF8DC5693F8CD41287804430DD1A4
:2006E000DFF8D036187800281EBFDFF8CC462378012B16D0DFF8D81C102008700220516CA0
:2007000060F3071151640020DFF8941ADFF8942608701070DFF8702682F8D809CBE2F3BC67
:2007200070478B0903F00303012B04D05ED3032B44D02AD35AE0DFF8683A01241C70132569
:20074000DFF8604600282570E9D0DFF87066DFF838063778DFF8785C012F09D110242C70B0
:2007600041F0C00151640321197080F8D819D5E7102129700221556C61F307155564002108
:200780001970217080F8D819C8E7DFF8141ADFF8144602230B70132300282370BFD0DFF8FA
:2007A000303C102018700120536C60F3871353640870DFF8D41581F8D809AFE7DFF8E01999
:2007C000DFF8E0450B70132300282370A7D0DFF8003C102018700220536C60F387135364EA
:2007E0000870DFF8A41581F8D80997E721F0C0015164F3BC7047DFF8A81900200870DFF825
:20080000A4150870DFF8A8050178002987D1DFF8A4351878002802BF534991F8840100282E
:200820003FF47DAFDFF8A83B102119700120516C60F30511106E516440F000501066C1F3C1
:200840008110032878D1F3BC7047DFF86405017800297FF464AFDFF85C351878002802BFE4
:20086000414991F8840100283FF459AFDFF8603B10211970DFF8101591F8D809012825D1CC
:2008800091F8F809002849D1384B1C6894F8A503FF2843D0536C012060F30513106E536497
:2008A00040F000501066C3F3811001283FF437AF012060F387135364DFF8E428DFF8E43422
:2008C000107013221A7081F8D80927E7022804BF91F8F809002821D1244B1C6894F8A503B9
:2008E000FF281BD0536C012060F30513106E536440F000501066C3F3811002283FF40FAF0E
:20090000022060F387135364DFF89428DFF89434107013221A7081F8D809FFE6516C012083
:2009200060F30511106E516440F000501066C1F3811003283FF4F3AE506C40F0C000506481
:200940000321DFF85C08DFF85C24017013201070DFF8342482F8D819E0E621F0300147E7ED
:20096000B0400020925E0020503E0020B05B0020FCB4DFF8080B0178012902BFDFF8002B7E
:200980001078082829D1DFF8FC1A0A6802F2B2604178FF2921D0DFF8F00A416C21F0F001EE
:2009A0004164816A426C21F4E0118162022161F3830242641146C1F30122032A00F0798129
:2009C00041F4407141640320DFF8D417DFF8D423087013211170002064E1DFF8B00A01783D
:2009E000012902BFDFF8A82A1078082828D1DFF8941A0A6892F8B206FF2821D0DFF8880AF8
:200A0000416C21F0F0014164816A426C21F4E0118162012161F3830242641146C1F38122B1
:200A2000032A00F0468141F4406141640320DFF87017DFF87023087013211170F3BC7047D9
:200A4000DFF8442A906A810C01F00701491E032900F22C81DFE811F004000600A900CE0056
:200A6000F3BCD9E5DFF83C33DFF83017DFF830470020187008702070CB490870DFF8141719
:200A80000D78022D00F01581DFF80C070178012902BFC34D2E78012E40F00B81DFF8F41949
:200AA0000878002800F00581916AB74D012060F39441916295F8D81939B9506CC0F30110ED
:200AC000022840F08D80F3BC7047DFF8B809066806F621000778FF2F04BF4078FF2804D003
:200AE000106EC0F34070002859D0012927D195F8F80900284DD196F8A513FF2949D0506C8B
:200B0000C0F30110012808D0516C012060F30511106E516440F000501066506CC0F38110A0
:200B2000012800F0C680516C012060F387115164207013201870012085F8D809B5E002294E
:200B400004BF95F8F809002823D196F8A513FF291FD0506CC0F30110012808D0516C01206C
:200B600060F30511106E516440F000501066506CC0F38110022800F09C80516C022060F37B
:200B800087115164207013201870022085F8D8098BE0506CC0F3011001286BD173E0506CDE
:200BA00040F030005064F3BC70477E48DFF8F0350021017019707D490878152818BF162846
:200BC00077D0DFF8D4050178012972D1916A012060F39441506C9162C0F30110022868D01F
:200BE000516C022060F3051151640020664981F8D8095AE06B49DFF8A8350020087018700D
:200C000067480378012B0AD0916A022060F3944191620020DFF88415634A04F090BD634843
:200C20000078152818BF162806D1916A032060F394419162F3BC704718283AD05C4801780D
:200C40000029C3D15B4B1878002802BFDFF8241C91F884010028B9D0DFF8743710211970A6
:200C60000120916A60F39441506C9162C0F30110012808D0516C012060F30511106E516442
:200C800040F000501066506CC0F38111032910D040F0C00050640320DFF80415414A087097
:200CA00013211170384A82F8D80904E020F4E0109062F3BC7047F3BC07F036BA324991F8C8
:200CC000D80990B9DFF8C007016CC1F30121022959D0026C022161F3092202640020DFF848
:200CE000C014304A087010704BE0012817D1DFF89407026892F8A533FF2B2AD0DFF88807AA
:200D0000036C012262F30923C3F38122012A036439D0012262F38B230364012029E00228EB
:200D200017D1DFF86007026892F8A533FF2B10D0DFF85407036C012262F30923C3F3812219
:200D4000022A03641FD0022262F38B23036402200FE0DFF83407036C012262F309230364E6
:200D60001A46C2F38123032B0DD042F4406202640320DFF82C24107081F8D80913200949C8
:200D8000087007F0D1B9704740340020FEFFFFFD2E3E0020E85E0020905E0020915E002007
:200DA0002C6C0020A86800208F5E0020296C0020366C00202F6C00209F680020AB680020B2
:200DC000FCB4DFF8B8060178012902BFDFF8B0261078082829D1DFF8AC160A6802F2B260FA
:200DE0004178FF2921D0DFF8A006816A026C21F4FC718162022161F38B1202641146C1F361
:200E00000132032A00F0E28241F4405101640320DFF88C13DFF8142C0870132111700020F6
:200E2000DFF80C2C82F8D8099EE2DFF860060178012902BFDFF858261078082828D1DFF84A
:200E400044160A6892F8B206FF2821D0DFF83806816A026C21F4FC718162012161F38B1286
:200E600002641146C1F38132032A00F0AF8241F4404101640320DFF82813DFF8B02B087086
:200E8000132111700020DFF8A82B82F8D8096BE2DFF8F425916AC80800F00700401E0428EF
:200EA00000F29182DFE810F00500B800CA0139026102B84B1878012818BF002808D1DFF8D5
:200EC000740B03780D2B03D0B34C207801280CD0032060F3C80191620020DFF8501BAF4AE4
:200EE00008701070AE4A107054E2880900F00700401E042800F28D80DFE800F00327405CBE
:200F00007800A74920230B70DFF8083C187860B1936A032060F388130020A2F8E40093624E
:200F200021200870FD219D4841E0DFF8EC3B1878002800F04B82936A052060F3881393625C
:200F40001020087000209549E5E1954B222119700020924B1870DFF82C050368B2F8E410E3
:200F600003F574746088814280F0CD81DFF8AC1B0878002840F0C781F3BC70478849874864
:200F800021230B70FD21DFF8FC3401701C68B2F8E410B4F8D053A942C0F01882936A0421B4
:200FA00061F388130021A2F8E4109362FE210170F3BC7047DFF8CC347848FE2101701C68FD
:200FC000B2F8E410B4F8D053A942C0F0FF81936A022161F3881300219362A2F8E410222193
:200FE0006F4A117000220270F3BC70476C496B4B1020087000201870DFF8243B58780028D4
:2010000000F0E481936A012060F388139362202081E121F4E071D8E15E480178022908D097
:201020005D4B1878012802BFDFF8F81A0B78012B11D0106C916A20F470601064032060F3D0
:20104000C50191620020DFF8E419544A08701070534A10709EE1DFF8D00A0078152818BF74
:2010600016280ED1106C916A20F470601064042060F3C50191620020DFF8B019484A08708A
:201080008AE118280ED1106C916A20F470601064052060F3C50191620020DFF89019404A9C
:2010A000087079E1116C0B0A03F00303012B03D0022B00F08B80BCE01069002872D08B0A98
:2010C00003F00303012B05D0C0F07D80032B44D02CD378E0324BDFF85449DFF8505A01203D
:2010E0001870132020702878002800F06F81DFF8906CB74D3778DFF83809012F09D1102421
:201100002C7041F4406111640321197080F8D8192AE1102129700221156C61F30B2515645C
:201120000021197080F8D81921701DE11C49DFF8FC49022008701323DFF8F00803702078E2
:20114000002800F04381A24C102323700120136C60F38B231364087002E11149DFF8CC4946
:20116000032008701323DFF8C40803702078002800F02C81C34B1C6894F8A503FF2811D05D
:20118000934C102323700220136C60F38B2313640870E5E09A680020906E00208E5E002008
:2011A000AA680020116C022060F30B2111640020DFF8141BDFF87828087082F8D809DFF823
:2011C0006C180870D0E021F4406134E0DFF8F81ADFF85838DFF8544900200870187020781D
:2011E000002802BFDFF88C5695F88401002800F0ED80A44C256895F8A503FF2802D0744D4A
:2012000010242C700120146C60F3092414642046C0F38124032C00F0D98040F440601064E7
:20122000132203200870DFF8081881F8D8091A709AE021F440711164F3BC7047DFF8EC170E
:20124000DFF8A83C002008701870DFF87C3A1870DFF8DC381870DFF8DC080078022821D0DD
:20126000032810D087490C6804F2A5356978FF2909D0DFF8BC5795F8F819002904BF94F86D
:201280000046FF2C16D1DFF8B0180D78012D02BFDFF890482678012E04D17E4D29780029FD
:2012A00040F08A80774C256805F2A5314C78FF2C00F08C80012818BF002840F08780DFF8B6
:2012C000740701780D2900F08180DFF86C38187801287BD1DFF8584794F8F81900291EBF5A
:2012E0006C4B1878002871D066490B6893F80006FF286BD1916A012060F3C501C1F38210AD
:201300000528916262D0916A052060F3881191621020DFF8B41900F042BEDFF81037002179
:201320001970DFF8A4391970DFF8FC170878152818BF16284AD0DFF800080178012945D179
:20134000916A022060F3C501106C9162C0F3012002283BD0116C022060F30921116400202E
:20136000DFF8CC1681F8D809A5E4DFF8C016DFF85839002008701870DFF8A8070378012B6F
:201380000CD0916A032060F3C50191620020DFF85C1B0870DFF8982704F0D2B9DFF88807E6
:2013A0000078152818BF162804D1916A042060F3C5010AE0182809D0916A022060F3C5011D
:2013C0009162F3BC7AE421F038019162F3BC704745040020DFF858262B4992F8D80988B98C
:2013E000086CC0F38140022846D00A6C022060F393420A640020DFF8D018DFF83026087013
:20140000107037E001280ED10B6C60F393430B64086CC0F3015001282ED00B6C012060F394
:2014200015530B641DE002280DD10B6C012060F39343C3F3015002280B641DD0022060F30D
:2014400015530B640DE00B6C012060F393430B641846C0F30153032B0ED040F44010086437
:201460000320DFF86418087082F8D8091320DFF8BC15087006F058BE70470000726E00200D
:20148000706E0020B05B0020B0400020846E0020816E0020916E0020FCB4DFF8080B0178C0
:2014A000012902BFDFF8002B107808282DD1DFF8FC1A0A6802F2B2604178FF2925D0DFF877
:2014C000540C016C21F470110164816A026C21F460618162022161F3114202641146C1F3F7
:2014E0008152032A00F0C48141F4400101640320DFF8D417DFF8342508701321117000207A
:20150000DFF82C2582F8D80988E1DFF8A40A0178012902BFDFF89C2A107808282CD1DFF8CD
:201520008C1A0A6892F8B206FF2825D0DFF8E40B016C21F470110164816A026C21F46061D8
:201540008162012161F3114202641146C1F30162032A00F08D8141F0407101640320DFF89F
:201560006817DFF8C8240870132111700020DFF8C02482F8D80951E1DFF8981B886A420ACC
:2015800002F00702521E032A00F26F81DFE812F00400030122014801DFF898050378022B78
:2015A00009D0DFF894251078012802BFDFF874351A78012A10D0086C8A6A20F470100864CB
:2015C000022060F34B228A620020DFF86014DFF81C29087010701BE0DFF84C2510781528B6
:2015E00018BF162805D1086C20F470100864032006E00A6C18280FD122F470120A640420C3
:201600008A6A60F34B228A620020DFF820140870DFF8B42604F094B8930C03F00303012BD2
:2016200003D0022B00F08880B0E0086978B9022060F395420A640020DFF88C16DFF8F02343
:20164000087082F8D809DFF8E4130870E6E0130D03F00303012B04D06BD3032B4CD02ED309
:2016600067E0DFF86436DFF8C443DFF8C05401201870132020702878002800F0F980DFF875
:201680000067DFF8305B3778DFF8A403012F09D110242C7042F440120A640321197080F85F
:2016A000D819BBE010222A7002220D6C62F395450D640021197080F8D8192170AEE0DFF88C
:2016C0000826DFF86844022010701323DFF85C0303702078002800F0CB80DFF8D84A1023B1
:2016E000237001200B6C60F315530B641070DFF8401381F8D80991E0DFF8CC25DFF82C4411
:20170000032010701323DFF8240303702078002800F0AE80DFF89C4A1023237002200B6C85
:2017200060F315530B641070DFF8041381F8D80974E022F440122BE0DFF88C25BB4BDFF88B
:20174000EC430020107018702078002802BF494D95F88401002800F08B80DFF8585A102429
:201760002C7001200C6C60F393440C642046C0F30154032C7CD040F4401008640320AC49A9
:20178000107081F8D80913221A7047E022F440220A64F3BC7047A54ADFF850370020107050
:2017A0001870DFF82435DFF88C2318701378022B5ED0DFF884030278012A02BFDFF864334B
:2017C0001C78012C54D1DFF8F0291078002845D1F3BC7047954A00231370DFF8EC24137018
:2017E000DFF844231078152818BF162840D0DFF848030278012A3BD18A6A012060F34B2219
:20180000086C8A62C0F38140022831D00A6C022060F393420A64864981F8D839FFF74BBA47
:20182000824ADFF8A434002010701870BD480378012B04D08A6A022060F34B22ABE3BA4A1D
:201840001078152818BF162806D18A6A032060F34B228A62F3BC7047182809D08A6A012080
:2018600060F34B228A62F3BCB4E520F460608862F3BC7047503E002018B4DFF898180A6CD9
:20188000130C03F00303012B06D0C0F0C980032B00F0C48054D3C3E0DFF81447207820B16E
:2018A000DFF810371C78082C0BD0886A22F04072C0F3422042F4403202280A6453D111BC6B
:2018C0007047100E00F00300012864D035D303280BD032D2554800230370964B1C78022CFB
:2018E00000F0A18042F0407263E0DFF8DC23107013234E4A8F4813700378022B04D10B6C3E
:20190000022060F3196383E087480078152818BF16280DD0834B1B78162B1CBF152B182800
:2019200006D085480378012B02D1086900287AD10B6C012060F319636AE022F0407271E0E0
:20194000DFF86036187820B1DFF85C462378082B17D0886A22F44002C0F3422042F4403284
:2019600002280A645FD08A6A022060F34B228A6200202E49DFF8742508701070DFF848239D
:2019800048E0930D03F00303012B04D043D3032B1BD005D33FE025490020087011BC7047D6
:2019A000224800230370634B1C78022C3BD042F440020A640321C44A11701322027000204C
:2019C0001B4981F8D80900F0F9BBBF4A032010701323164A574813700378022B08BF0220B0
:2019E00013D051480078152818BF16280CD04D4B1B78162B1CBF152B182805D04E48037818
:201A0000012B01D1086970B901200B6C60F397530B640020D5E322F4400203E011BC3BE5EA
:201A200022F440320A6411BC70470000A868002040340020266C0020DFF8382CDFF8D416BA
:201A400092F8D80982B080B9086CC0F3017002285ED00A6C022060F31D720A6400209A49D5
:201A6000DFF8142C087010704FE001280FD10B6C60F31D73886A0B64C0F3C230022847D07E
:201A80008B6A022060F3D1338B62012035E0022810D10B6C012060F31D73886A0B64C0F31B
:201AA000C230032834D08B6A032060F3D1338B62022022E0032810D10B6C012060F31D73FE
:201AC000886A0B64C0F3C230042821D08B6A042060F3D1338B6203200FE00B6C012060F389
:201AE0001D73886A0B64C0F3C230012810D08B6A012060F3D1338B6204207349087082F81B
:201B0000D8091320DFF8701B087002B006F00CBB02B07047CB5E0020CC5E0020CD5E002021
:201B2000D43F00202C6C00202E6C00202F6C00208F5E00209A680020906E0020FCB4DFF871
:201B400064040178012902BFDFF85C24107808282DD1DFF858140A6802F2B2604178FF2910
:201B600025D0DFF8B005816A026C21F46031816222F0405221F4E04181620264022161F368
:201B80009B62026411468A0F032A00F0028241F04041016403204C49DFF8DC2A08701321F9
:201BA00011700020DFF8CC2A82F8D809C6E1DFF800040178012902BFDFF8F82310780828CC
:201BC0002DD1DFF8E8130A6892F8B206FF2826D0DFF84005816A026C21F46031816222F054
:201BE000405221F4E04181620264012161F39B620264416C01F00302032A00F0CA8141F0BF
:201C00000301416403203049DFF86C2A0870132111700020DFF85C2A82F8D8098EE1DFF8C7
:201C2000F4148A6A100B00F00700401E032800F2AD81DFE810F004003C015D018501DFF82A
:201C40003C3A1C78022C09D0DFF8340A0378012B02BFDFF8304A2078012811D0086C20F07F
:201C6000405022F4603208648A62022060F30E328A620020DFF8001A9C4A0870107020E044
:201C8000DFF8043A1878152818BF162808D1086C20F04050086422F460328A62032009E054
:201CA000182813D1086C20F04050086422F460328A62042060F30E328A620020DFF8B81981
:201CC0000870014A03F03CBDAA680020086C030F03F00303012B03D0022B00F0B580E1E092
:201CE000086998B922F460328A6202200A6C60F31D720A640020DFF89419DFF87829087012
:201D000082F8D809DFF87019087017E1D30B03F007035B1E032B00F29480DFE803F0022034
:201D20005674DFF86829DFF86849042010701323DFF8440903702078002800F02A81DFF846
:201D400074441023237004208B6A60F3D1338B620320DFF82019107081F8D809EEE0DFF8F6
:201D60002C39DFF81449DFF8285901201870132020702878002800F00C81014E02E000BFD1
:201D8000AB680020DFF82C543778DFF8E808012F0BD110222A7001228C6A62F3D1348C620A
:201DA0000421197080F8D819C8E010262E7022F460328A6202220D6C62F31D750D640021E6
:201DC000197080F8D8192170B8E0DFF8C028DFF8C048022010701323DFF89C0803702078EC
:201DE000002800F0D680DFF8CC431023237002208B6A60F3D1338B620120DFF87818107066
:201E000081F8D8099AE0DFF88428DFF88448032010701323DFF8600803702078002800F08D
:201E2000B880DFF890431023237003208B6A60F3D1338B620220DFF83C18107081F8D80977
:201E40007CE022F46032A3E0DFF84038DFF82848DFF83C580020187020702878002802BF39
:201E6000DFF8306896F88401002800F09280DFF844631025357001200D6C60F31D75C2F32A
:201E8000C23001280D6400F08480012060F3D1328A620420DFF8DC17187081F8D80913225A
:201EA00022704BE020F040500864F3BC7047DFF8C8270E4B002010701870DFF8D037DFF8F7
:201EC000BC2718701378022B63D0DFF8B4070278012A02BFDFF8AC371C78012C59D1B64A0F
:201EE000107800284BD1F3BC704700BF8E5E0020DFF8842700231370DFF890271370DFF8D5
:201F000088271078152818BF162842D0DFF870070278012A3DD18A6A012060F30E32086C09
:201F20008A62C0F30170022833D00A6C022060F31D720A64DFF83C1781F8D839FEF7BBBE5A
:201F4000DFF83427DFF84437002010701870DFF834070378012B04D08A6A022060F30E329F
:201F600019E0DFF824271078152818BF162804D18A6A032060F30E320AE0182809D08A6AF6
:201F8000012060F30E328A62F3BC55E522F4E0428A62F3BC70478A620020DFF8FC160870C1
:201FA000F3BC7047726E0020706E0020B05B0020846E0020816E002018B456490A6C930EEF
:201FC00003F00303012B06D0C0F0EF80032B00F0EA806ED3E9E0DFF8C446207820B1DFF834
:201FE000C0361C78082C0DD0486C80088000486442F04062886A0A64C0F3023002286BD15F
:2020000011BC7047486C00F00302012A7BD04BD3032A19D048D2DFF8602600231370DFF8F5
:202020005C361C78022C00F0C38040F0030048640320DFF858160870132111700021DFF8AD
:20204000340680F8D8197EE0DFF8400602701320DFF824261070DFF824060378022B05D19D
:202060004B6C022060F301034B6497E0DFF818060078152818BF162810D0DFF808361B78C3
:20208000162B1CBF152B182808D0DFF8F4050378012B03D10869002840F08A804B6C0120D6
:2020A00060F301034B6479E080088000486411BC7047DFF8243B187820B1DFF8204B237815
:2020C000082B18D0886A22F04042C0F3023042F0406202280A646BD08A6A022060F30E322A
:2020E0008A620020DFF89015DFF8AC2508701070DFF8982553E0930F012B04D050D3032BFE
:2021000022D009D34CE0DFF870050021017011BC704700BFB0400020DFF85C0500230370C6
:20212000DFF858351C78022C42D042F040420A640321DFF858251170132202700020DFF8AE
:20214000341581F8D80939E0DFF84025032010701323DFF82425DFF8240513700378022B63
:2021600008BF022016D0DFF820050078152818BF16280ED0DFF80C351B78162B1CBF152BE5
:20218000182806D0DFF8F8040378012B01D1086970B901200B6C60F39F730B64002010E0C7
:2021A00022F0404203E011BCC8E422F040620A6411BC704745040020916E002011BC05F03F
:2021C000B3BF107011BC704730B4DFF8081B8A6A02F00700401E042800F24682DFE810F0B3
:2021E0000500F5006B013F0242024B6C9C0804F00304012C06D0C0F0E380032C00F0DD800C
:202200006AD3DDE0DFF89454287820B1DFF890442578082D0ED0086E20F00050086623F4DE
:202220004063C2F3824043F00C0302284B646AD130BC7047980A00F00300012800F0C38199
:2022400047D3032815D044D2DFF82C0400220270DFF828241478022C00F0098243F4406371
:202260004B640321DFF8242411701322027030BC7047DFF8182410701323DFF8FC23DFF80B
:20228000FC0313700378022B05D14B6C022060F38B234B64D4E1DFF8F0030078152818BFAA
:2022A000162810D0DFF8DC331B78162B1CBF152B182808D0DFF8C8030378012B03D1086985
:2022C000002840F0D4814B6C012060F38B234B64B6E123F4406375E0DFF8FC48207820B19F
:2022E000DFF8F8582C78082C1ED0086E20F00050086623F44073C2F3824043F00C03022800
:202300004B6400F0B481022060F394428A620020DFF86413DFF8802308701070DFF86C236C
:202320001070DFF8402B8CE1180A00F00300012800F049813ED303280ED03BD2DFF838033D
:2023400000220270DFF834231478022C00F08F8143F440734B6445E1DFF830231070132362
:20236000DFF81423DFF8140313700378022B05D14B6C022060F309234B6461E1DFF8080335
:202380000078152818BF16280ED0BE4B1B78162B1CBF152B182807D0B9480378012B03D10A
:2023A0000869002840F063814B6C012060F309234B6445E123F4407304E030BCFEF7D8BA23
:2023C00023F00C034B6430BC7047AB4AAF4B002010701870DFF8F00A026892F8A0030128E1
:2023E00020D18A6A60F302028A62486CC0F38102032A06D040F00C004864086E20F000500A
:202400000866886AC0F38240022800F030818A6A022060F394428A6200209F49DFF8442AA4
:2024200008700EE1B8B98A6A032060F30202086C8A6240F0C0000864C2F3C200032800F008
:202440001681032060F3C5028A6200209249DFF8142A0870F5E0032840F0098192F8C3032A
:20246000FF2811D18A6A042060F30202086C8A6240F440300864C2F34220022800F0F780CC
:20248000022060F34B2210E08A6A052060F30202086C8A6240F040600864C2F3023002284D
:2024A00000F0E580022060F30E328A6200207A49087030BC70470B6C9C0904F00304012CE4
:2024C00006D0C0F0C780032C00F0C18051D3C1E0724D287818B1724C2578082D0AD023F461
:2024E0004043C2F3C20043F0C00303280B6452D130BC7047980B00F00300012863D035D392
:2025000003280BD032D25C48002202705B4A1478022C00F0AC8043F4404362E05B4A1070DD
:202520001323554A554813700378022B04D10B6C022060F38F3382E053480078152818BFF2
:2025400016280ED04F4B1B78162B1CBF152B182807D04B480378012B03D10869002840F0E8
:2025600086800B6C012060F38F3368E023F4404372E0DFF86446207820B1DFF860562C7859
:20258000082C16D023F44053C2F3C20043F0C00303280B646BD0032060F3C5028A620020EC
:2025A00035493D4A08701070384A1070DFF8B42847E0180B00F00300012804D044D30328ED
:2025C0001BD005D340E02C4A0021117030BC7047294800220270294A1478022C47D043F4DD
:2025E00040530B64294A03211170132202700020204981F8D80902F07CBC244A10701323E9
:202600001D4A1E4813700378022B08BF022013D01D480078152818BF16280CD0194B1B78F4
:20262000162B1CBF152B182805D015480378012B01D10869D8B901200B6C60F30D330B64B7
:202640000020107030BC704723F4405304E030BCFEF7B6BB23F0C0030B6430BC704730BC83
:20266000FFF70AB930BCA7E4D208D2008A6230BC7047000040340020A86800209A68002009
:20268000906E00202C6C00202E6C0020AA6800202F6C0020503E00208E5E0020846E0020F1
:2026A000816E0020F8B5DFF82C56E96B0446080E00F00300012807D0C0F08982032800F088
:2026C0003382C0F0248182E2E86DC0F38060002859D0880E00F00300012802D0022825D0B0
:2026E0008EE0DFF8E80700210170DFF8E4170A78132A02BFDFF8DC3793F88411012942D17B
:20270000DFF8D4271378082B02BFDFF8D0170A78012A38D1DFF8C81710230B700221EA6B18
:2027200061F39B62EA63012101702CE0DFF89C6701203070DFF8A007017808291CD1DFF8D5
:2027400090271078C0B1DFF89C170A78012A13D1DFF8800790F88411012948D12F69002038
:202760002861E86DC0F3807008B1FFF72DFDDFF870172F61102008700120E96B60F39B61A5
:20278000E96300203070E86DC0F3C060002800F02182EA6B110F01F00301012906D0C0F030
:2027A000B280032900F09A8046D3ACE0DFF838371878A8BBDFF81467317800291EBFDFF8FB
:2027C0001037187800282BD0910F012902D002291AD02EE0DFF8140701702078002800F02D
:2027E000F981DFF80C170A78FE2A19D14BE028690128C1D0DFF8E4160A78012ABCD1C2E7A7
:2028000021F04061E963BEE7DFF8E00601702078002800F0DF81DFF8C8130A78FD2A3ED06E
:20282000E96B022060F31F71E9630020DFF8BC165EE122F0404268E0DFF8B01600200870DA
:202840002078002800F0C681DFF890361878012802BFDFF878462378012B02BFDFF87066A0
:202860003478132C23D1DFF888361B78182B1ED0114660F31D71E963FE2BE86B0BD1800FB5
:20288000022800F0A781E96B022060F39F71E963DFF858162CE1800F012800F09B81E96B67
:2028A000012060F39F71E963DFF8401620E1012802BFDFF818361878002802BFDFF8104665
:2028C0002378132B40F08681DFF824060478182C00F0808142F04052EA6302E1DFF8342C0B
:2028E000DFF8080601701368B3F8CC43A96904EB8402B1EB420FC0F06D81EA6B022161F36F
:202900001D72EA6309E122F04052EA63F1BDE86DC0F3007000284CD0286C00F003010129E4
:2029200002D002291CD07EE0DFF8A00500210170DFF89C150A78132A02BFDFF8983593F80B
:202940008411012902BFDFF890251378082B30D12A6C022161F301022A640121017028E073
:20296000DFF8686501203070DFF86C050178082918D1DFF85C251078A0B1DFF868150A7810
:20298000012A0FD1DFF84C0590F88411012946D12F6900202861E86DC0F3807008B1FFF7BE
:2029A00013FC2F61296C012060F30101296400203070E86DC0F34070002800F00B812A6C2E
:2029C000910801F00301012906D0C0F0A980032900F0908042D3A3E0DFF80C35187888BBE1
:2029E000DFF8E864317800291EBFDFF8E4341878002827D0110901F00301012902D0022931
:202A000015D028E0DFF8E404012202702078002800F0E08072490A78FE2A13D13FE028696C
:202A20000128C6D1BEE7800880002864C1E7DFF8BC0401702078002800F0CC8068490A78BE
:202A4000FD2A37D0296C022060F3850129640020DFF898144CE022F0300263E0DFF88C145E
:202A6000002008702078002800F0B480DFF85C341878012802BFDFF858442378132B21D1BB
:202A8000574E3378182B1DD01146FE2B60F383012964C1F301100AD1022800F09B80296C68
:202AA000022060F305112964DFF8401420E0012800F09080296C012060F305112964DFF827
:202AC0002C1415E0002802BFDFF804341878132840F08080424C2378182B7BD042F00C02D7
:202AE0002A640020A861032008702020DFF8F0130870F1BDDFF81C2ADFF8F0030170136871
:202B0000B3F8CC43A96904EB8402B1EB420F61D32A6C022161F383022A6400210170F1BDF3
:202B200022F00C022A64F1BDDFF8A013DFF8BC23002008701070DFF8DC09006890F81E18FF
:202B4000FF291ED0E96B012060F31961E963C1F38161E86D40F080600129E86504D0EA6B36
:202B6000012161F39B62EA6340F00060E865E86BC0F3017002282DD0E96B022060F31D71C3
:202B800027E090F8A003FF2824D0E96B022060F31961E96395F84010E86D01F0030140F002
:202BA00080500129E86504D02A6C012161F301022A6440F00050E865286CC0F3810002289E
:202BC00008D0296C022060F383012964F1BD21F04071E963F1BD0000726E0020706E00209A
:202BE0002E6C002030B43B49CA6D0D6C8B6A4C6C22F08042CA65DB08DB0022F002428B6252
:202C0000CA6523F4E01322F000624FF0FF308B62CA65086123F4FC7322F08062DFF8F808C3
:202C20008B62CA650440DFF8F4084C6405400020A1F8E4000D6423F46063DFF8E4088B62D4
:202C400005400D6422F00052DFF8D808CA650540C86B0D6420F04070C86325F0404520F0F6
:202C60007040C8630D6420F04060C86325F04055002088610D6401F5DA7024F0F0044C6411
:202C800023F4E04325F03C0522F080528B620D64CA65A408A40023F460330025058022F07D
:202CA0008072086E4C6420F0005008668B620D64CA6587488D4A05701570DFF86C28157011
:202CC000824A1570DFF864281570664A157030BC70470000B04000202DE9FE4FDFF85058F1
:202CE000DFF85088DFF8509898F80010DFF84CA805F5C774207888428041C00F8DF800004F
:202D000099F80010607888428041DFF83418C00F0870A27C9AF8000090428041C00F48707B
:202D20004FF6FF724FF0FF302861A86910F1010F1CBF401CA861B5F8E40090421CBF401CEA
:202D4000A5F8E400E96DC1F3006098BB41F08241E96595F8280000F0070002280AD0AA6A2F
:202D6000DFF8C437022060F30202AA620020584A1070187041F00071E965E86BC0F30162D9
:202D8000032A07D040F04070E86300204F4A574B10701870C80F58D141F00041E96505F5E7
:202DA000DA70DFF8A0170A780270DFF89C27137843704AE0C1F3807008B1FFF705FAE86D9E
:202DC000C0F3406010B16846FFF76CFCE86DC00F3BD03D4E306890F8B216FF2919D005F526
:202DE000DA7001900199DFF85C770A78387890420FD0D5F810B001202861E86DC0F34060F2
:202E000010B16846FFF74EFCC5F810B0019938780870316891F8B306FF2816D005F5DA7692
:202E2000DFF824777178387888420ED0D5F810B001202861E86DC0F3406010B16846FFF79B
:202E400031FCC5F810B03878707003B098F80000207099F8000060709AF80000A074BDE8B9
:202E6000F08F00008F5E002010B4DFF8C406416F21F47051416700F1DE02002321F44041A9
:202E80005380416721F47071436E41671B091B01D0F89410436621F0004100F2B113C0F853
:202EA000941000240B489C7094801C705C701480A0F88A4000F5C170DFF8741C0480082050
:202EC000887110BC70470000B05B0020AB680020A8680020503E00202D6C00209F6800205A
:202EE000450400202C6C00202F6C0020A9680020296C00202DE9F04F87B0DFF83446DFF85C
:202F00001466DFF8CCBB04F194000390B0F80AA0306800F5E0610A78FF2A00F0AD820BF2D6
:202F2000231004900278012A40F0A6820BF1880001900BF5C17894F8DB0104F1DE0904F245
:202F4000B11528BB626FA9F8020022F47052626722F4404060670022606E00090001606696
:202F6000AA70A9F80420606F20F4707060670398026822F000420260002028706870A9F8FC
:202F80000000019A5080A8F80000012084F8DB0105AB0398DFF89C7B8089A0EB0A0002B222
:202FA000002A48BF4042ADF80A004FF47A720020ADF81800ADF81A20497878883A88FF2919
:202FC00007BFADF814005A80ADF8142058800120009006ABDFF8600B028805A902A805F06C
:202FE00076F9B9F802004FF6FF7188421CBF401CA9F80200B9F8040088421CBF401CA9F8FF
:203000000400A8781F283CBF401CA87003990968C80F17D1039841F000410160606F20F4B9
:203020004C6040F490606067002088F801002870082088F80000606F20F4704040F42340EE
:20304000606705E2606FC0F3811001281CBF9BF8BE0100282BD0616F012060F38711616792
:20306000387B082818D17888398881423FBF326802F20672D38898420ED213898B420BD2A1
:20308000401AA9F8000080B2918952898B189842BCBF511A81420ADB17203873306800F297
:2030A0000670018879804088388005F03DF8606F810A01F00301012902D0022940D075E093
:2030C000049A5178022918BF032908D1616F032060F38D2100206167A9F8020049E0297839
:2030E00003290FDD616F022060F38D2161672020DFF8481A08706320397B6970387305F05C
:2031000013F836E0C0F301300128DFF82C0A018809D140F2DB1291422BDA616F022060F3D5
:203120000D31616725E040F20E22914221DB616F012060F30D3161672878401C287018E07D
:2031400004998878082804BF98F80010082905D104984078022818BF032823D16878387339
:2031600004F0E2FF606F40F4406000216067A9F80210606F010A01F00301012902D0022946
:2031800029D02CE03268BDF80A3002F202714A88934202D33A7B082A13D040F44070606749
:2031A000082019E0387B6328DCD1E2E73068B9F80210B0F80A279142DBD3002188F80110D3
:2031C000D7E7B9F80400098888421ED3616F022060F3092161671C2088F8000015E0082020
:2031E00088F80000306800F20271BDF80A004A8882420AD2387B082807D1616F012060F322
:20320000092100206167A9F80400606FC0F381300128387B40F00481172818BF082824D1F8
:20322000606E00F00F01052902D006290BD013E0316801F20272508AAAEB0000788004F068
:2032400073FF606E08E0316801F20272508A5044388004F069FF606E616F00090001606656
:20326000022060F38F316167F2E094F8640000F00F00401E072800F2A880DFE800F0EDED58
:20328000040A14477984A9781429C0F2E580052072E0616E032060F3030161660020A87094
:2032A0004FF47A70D6E0306800F20270418951451ADA012188F80110408AAAEB00007880D1
:2032C00004F032FF616E012060F30301616600200199488017203873306800F206700188CE
:2032E000798040883880B0E0A9780A29C0F2B480408AAAEB0000788004F016FF616E072035
:2033000060F3030161660020A870A3E0A8780A280DDB316801F20272508A5044388004F080
:2033200003FF616E082060F30301616694E0306800F2027081898A4580F28E80022188F80A
:203340000110408A5044388004F0EEFE616E012060F30301616600200199488017203873F4
:20336000306800F2067001887980408838806CE0A878142870DB0620616E60F30301616645
:203380000020A87068E078883988814214D3032088F801000120616E60F303016166002070
:2033A0000199488017203873306800F2027081887980C088388048E0636E092262F303034C
:2033C000401A6366A9F8000046E03068B9F8003000F20270018AC2898D189D42A4BF511AFE
:2033E0008B4211DA042188F801100121626E61F3030262660021019A5180172139738188D2
:203400007980C088388020E0616E022060F303016166082038732020DFF82017087014E017
:20342000632815D1626FDFF81437012161F38F3262670421626E61F3030262660021019A56
:203440005180202119706870387304F06DFE03E0BDF808000199488001984188018007B053
:2034600098F80000DFF8C816887198F80120DFF8900C0270BDE8F08F94F8DB0160B10021BA
:20348000ABF888100820DFF8A81688710022DFF8700C027084F8DB2107B0BDE8F08FDFF82A
:2034A0003016DFF8DC0AB1F886200280DFF8542C1188418070471E49DFF8C80ACA6B4B6AD6
:2034C00022F44012CA6323F06053024000204861CA6322F44C32C86D4B6220F40000CA63A2
:2034E000C8650021DFF8A00ADFF8E425017082F88111DFF8980ADFF8F82A01701170DFF865
:20350000F42A1170DFF8F02A1170DFF8FC2B117070470000B05B0020F3F0FFFF3F0FFFFF0C
:20352000FFF03CFCFFFFC3F3AA6800208E5E0020B0400020656E0020306C00203C6C0020EB
:20354000D43F0020816E0020706E002078B4DFF8AC1A486910F1010F1CBF401C4861CA6D89
:20356000C2F3C05028BB42F40002CA650120CA6BDFF8183A60F38B22CA630020DFF8082A67
:203580004861107000221A70DFF8443583F88101DFF85C0ADFF85C3A02701A7040F255607C
:2035A000DFF8543A1A70CA6B60F31732CA63002089E2C86B820A02F00302012A02D0022AB4
:2035C00025D04EE0DFF8C02900231370DFF83C3B1C6804F578739D78FF2D46D0DFF8B84A7C
:2035E0001B8825889D4206D2CB6B022060F38B23CB63082033E04A6902EB820464009C429A
:2036000033D3DFF80C3B1C78012C2ED121E0DFF8783908221A70DFF8FC3A1C78022C24D0C6
:20362000DFF8EC2A1378012B1FD1DFF8E03ADFF8684A1D682288B5F8E043A24215D3DFF8DA
:20364000D82A1378082B02BFDFF8D04A2278082A0BD140F44060C8630420DFF82C29107081
:2036600003E0DFF8243904221A70C86B020B02F00302012A02D0022A15D03CE0DFF80C0936
:20368000DFF8882A00230370136893F81E25012A18BF042A33D1CB6B022262F30D33CB6371
:2036A000082202702BE0DFF8E42808231370DFF8643A1C78022C22D0DFF8545A2B78012B55
:2036C0001DD1DFF85C4ADFF8443A25881E6806F21E5463889D4212D3DFF83C3A1C78082CC9
:2036E00002BFDFF8385A2B78082B08D140F44050C863042002E00420DFF890281070C86B96
:20370000820B02F00302012A02D0022A2ED061E0DFF8BC23002382F88131DFF8F0391C6834
:2037200004F5A8631D78FF2D58D0DFF8F849DD882488AC4206D2CB6B022060F38F33CB6312
:20374000082044E0DFF8CC299B8812789C4201D3012A01D0032A41D1DFF8B4291378012B4C
:203760003CD14FF6FF75AC4222D137E0DFF86033DFF89C49082283F881212278012A2DD15B
:20378000DFF88839DFF89C591C682B8804F5A8629488A34204D3DFF87C492578012D07D075
:2037A000D28893421AD3DFF86C291378032B15D1DFF874492278082A02BFDFF870391C78AD
:2037C000012C0BD140F44040C8630420C04A82F8810103E0BE48042380F88131C86B020C5C
:2037E00002F00302012A02D0022A1DD043E0DFF8002800201070DFF8380990F8F839012BFD
:203800001EBFDFF830492078002838D0DFF8FC381C6894F80006FF2831D1CB6B022060F3BE
:203820001143CB63082029E0DFF8C42708231370DFF8E0381C78022C21D0DFF8D4582B781D
:20384000012B1CD1DFF8C438DFF8EC481E682588B6F85843A54212D3DFF8BC381C78082C96
:2038600002BFDFF8B8582B78082B08D140F44030C863042002E00420DFF874271070C86BD3
:20388000820C02F00302012A02D0022A13D03AE0DFF86007DFF8742800230370136893F830
:2038A0000046FF2C33D0CB6B022262F39343CB63082202702BE0DFF83C2708231370DFF87B
:2038C00054381C78022C22D0DFF844582B78012B1DD1DFF8904BDFF8343825881E6806F555
:2038E000C06463889D4212D3DFF82C381C78082C02BFDFF828582B78082B08D140F4402097
:20390000C863042002E00420DFF8E8261070C86BC0F30150012879D1486AC00E00F00700CC
:20392000012804D059D3032846D031D355E0DFF8DC27DFF8343B10681B8800F5C062D0883A
:20394000834259D3DFF8CC070078032804D0012808D19088834205D34A6A042060F3DD6234
:203960004A624FE0DFF8A8271378012B02BFDFF8A8070278082A02BFDFF8A03718780828ED
:2039800059D04A6A022060F3DD624A62002039E0DFF86436DFF8780700221A700378012B97
:2039A00002BFDFF874271078082802BFDFF86C371A78082A3FD10EE0DFF83C36DFF8A82A2D
:2039C00008201870DFF844071388046804F5C062D08883422FD3012029E0DFF81C2604206D
:2039E0001070DFF8842ADFF824071388046804F5C062D08883421ED24A6A032060F3DD6228
:203A00004A620820DFF8F025107014E0DFF8E835DFF8F80600221A70036893F80026FF2AB8
:203A200009D0CA6B012060F31552CA6302204A6A60F3DD624A62C86B820D02F00302012A78
:203A400002D0022A14D03DE0DFF8BC06DFF8BC2600230370136893F8A047FF2C36D0CB6B2B
:203A6000022262F39753CB630821017071BC7047DFF8942608231370DFF898361C78022C91
:203A800024D0DFF88C562B78012B1FD1DFF8DC49DFF8783625881E6806F5F46423899D4228
:203AA00014D3DFF874361C78082C02BFDFF86C562B78082B0AD140F44000C8630420107088
:203AC00071BC70470420DFF84016087071BC7047503E0020DFF82405416AC26B21F0E0617D
:203AE000416222F47F7221F460014162C2639208C16D21F48001C1659200C26300F1DA01D7
:203B000000F2AF1000220270427000200A804880DFF85C19DFF85C2908701080DFF8582934
:203B20001070DFF858291070DFF8F02C10807047AC44002096360020E65E0020450400202A
:203B40002DE9F843DFF83859DFF83849298822681323684604F0A7FCDFF82C291168009861
:203B600031F81020DFF89444E16DC1F3805048B941F48001E1650220E16B60F30101E16367
:203B8000082050E194F83C00DFF8806500F00300012840F08981DFF8D87864203870DFF8C8
:203BA000EC0890F822016428B8BF3870316801F5E4600378FF2B06D094F8AF3197F900E091
:203BC0007345B8BF3B70837A97F90000012B09D180B24243DFF8480C82FB00EC4FEA6C1078
:203BE00000EBD070DFF8342CDFF888881080DFF8340C0388DFF8300C008897F90020C01A25
:203C000002FB00FCDFF8240CACFB009E03EB9E13A8F80030606A400D00F00700012804D0E5
:203C200013D303280BD00ED30FE0642A04D1616A022060F35751616204F07FFA0CE091F8D8
:203C40004005FF2808D0042002E0642A04DA0120616A60F357516162E06B810801F003013B
:203C6000012902D0022916D047E0DFF80C280820107097F90010642977DA3168B8F8002076
:203C8000B1F8BA3528889A1890426EDBE16B072060F385013AE0DFF8E0170A780F2A13D03D
:203CA00097F90030642B08D033682A88B8F80050B3F8BA757D19AA4206DA20F0CC0040F048
:203CC0000400E06308204FE0C0F38110012812D1336804F1DA0003F2BA550288AF88BA42CB
:203CE00006D3E26B022060F38712E2630F203BE0521C028039E00F2036E0DFF87C170A78C7
:203D0000192A08D1E16B122060F387010020E163A4F8DA0029E097F90020642A09D0336899
:203D2000B8F800702D8803F2BA521388DB199D4206DAE26B012060F38502E263082013E0B7
:203D4000C0F3011001280ED104F1DA0052880388934205D3E26B022060F30512E26302E0B6
:203D60005B1C038001E019200870606A000E00F00700401E032837D8DFE800F002090F235C
:203D8000DFF890130878022811D1BDE8F183DFF8EC161C220A70BDE8F183DFF8E016082065
:203DA0000870316891F82007FF2800F0A180616A052060F31A616162002004F2AF114870FB
:203DC00065E03068DFF8681A0A7800F5E46043799A4200F08D80626A022161F31A626262DA
:203DE000807984F8AF011DE0DFF8441A0A78FF2A05D0E06B20F44070E063042021E004F27F
:203E0000AF104278042A13DBE16B626A21F44071E163022161F31A626262316801F5E4625F
:203E2000937903701C20DFF854160870BDE8F183B8490B78022B0AD1E06B20F44070E06317
:203E40000120616A60F31A616162BDE8F183E16BC1F30121012913D1DFF8D809017808293A
:203E600002BFB24A1078012842D1E16B022060F30921E163002004F1DA014880BDE8F183C1
:203E800004F1DA014B88B42B0ADB521C42700120E16B60F30921E16304F08EF9BDE8F183D9
:203EA0005B1C4B80BDE8F183DFF8D01508200870316891F84005FF281AD0E16B012060F313
:203EC0000101E1630320616A60F3575161620120E16B60F38301E1630820DFF89C15087040
:203EE0000320616A60F31A616420616284F8AF01BDE8F1837CB58E48DFF8905590F8062AFF
:203F0000DFF8401CDFF8404CDFF8403C032A0AD15E6A042262F394465E62227003220A70A2
:203F200080F8062A24E0042A0AD15E6A012262F394465E620222227001220A70042115E085
:203F4000052A09D15E6A022262F394465E62227003220A70052109E05E6A032262F3944621
:203F60005E620422227001220A70022180F8061A04F0DAF895F8CC0108B10021217073BDB6
:203F80004E410020FF3333FFA2680020A3680020DFF8F81491F8170198B1654A92F8060AA3
:203FA00006280ADA1548836B012262F39B63836301F5E671002008719CE7DFF8942B012028
:203FC000107002220D48836B62F39B63002280F8AE2183630420DFF8702B10700023DFF848
:203FE000640B037091F8CC0100B1137070470000A4680020A5680020A6680020B040002007
:204000007CB54B48DFF83C4B90F8061ADFF8385BDFF8382B08290DD1936B022161F39F739C
:2040200093630321297001212170082180F8061A00F002BC0929DFF81C6B16D1936B012114
:2040400061F39F73002182F8AE1193630221297001212170092180F8061A04F065F896F89A
:20406000CC01B8B10021297073BD916B41F040419163002382F8AE3103212970042121708F
:20408000072180F8061A04F04FF896F8CC0108B10021217073BD00000C6E0020DFF8B41AF0
:2040A00091F81701A0B1224A92F8060A06280BDBDFF8980A836B012262F31D73836301F5A9
:2040C000E671002008719BE7DFF8842A012010700222DFF8780A836B62F31D7300228363F0
:2040E00080F8AE210020DFF8602A10700423DFF8542A137091F8CC0108B100211170704711
:204100008D5E0020D05E0020A7680020B05B0020906E00209A680020AE680020AF6800203F
:20412000106E0020186E0020CD6B0020CF6B002040340020916E00200A6E0020F8B5DFF8BA
:20414000146A06F5E6746578DDB1DFF80C7A3B78BBB9DFF8082A01211170007800282CD055
:20416000DFF8FC291321117001202071DFF8DC09816B21F0734141F000718163BDE8F14013
:2041800006E7DFF8C859AB6BC3F30177012F40F00E8196F817215AB9DFF8C819002081F8DD
:2041A000060A03F0C1FFA96B022060F31F710FE1DFF8E82C1678042E1AD1DFF89009DFF856
:2041C0008429816B21F0734141F0807181630020DFF874190870002111700120DFF870294C
:2041E000107021710020DFF87C1981F8060ACCE09A0F012A02D0022A42D085E0A178D9B100
:20420000DFF85C2930201070012161710120A96BDFF8502960F39F710020A96385F8AE013E
:204220000220DFF82459DFF81C19287001200870092182F8061A82E0E178DFF82029A9B1D2
:204240000123137000780028E0D0DFF81429102111700220A96BDFF8EC2860F39F71A96311
:204260000320DFF8E4180870137089E0002010702078002800F09580DFF8CC28117090E0C3
:20428000A2785AB1DFF8CC0C01260670087800282AD0DFF8CC28102111703DE0E278002AED
:2042A00030D0217800292DD1DFF8B03801221A700078C8B1DFF8A828202111700120A96B43
:2042C000DFF8A02860F39F710020A96385F8AE010220DFF87458DFF86C1828700120087033
:2042E000092182F8061A2AE0A96BDFF85828022060F39F71A9630320DFF84C1808700121FC
:2043000011703DE001F081B8E07800B3DFF850283021117001206071002085F8AE0143F038
:204320004043DFF82418AB63032008700421DFF8145829700720DFF82C1881F8060A03F07F
:20434000F3FE2078002852D000212970F1BDA078DFF8002CD8B10126167009780029DBD07C
:20436000DFF8FC27202010701946022060F39F71A9630320DFF8D017DFF8C82708701670EE
:204380000820DFF8E02782F8060A00F026BFDFF8CC07002101701170207810B1DFF8A42700
:2043A000117095F8AE010A2821D36171F1BDE378002B04BFA17800291AD0DFF8A427302033
:2043C00010700121617121710220A96B60F31D71A9630020DFF8701785F8AE01087004226C
:2043E000DFF860170A70207808B100220A70F1BD1278002A1CBF96F81711002919D0DFF82C
:204400009C2A1378082B14D1DFF850270121117000780028084608D0A96B60F31D71A9637B
:2044200000202071BDE8F140EAE5DFF824170870CAE7DFF8282700211170DFF8182B117088
:20444000DFF80C271170207810B1DFF8F826117095F8AE010A2828BF6171C828C7D32171BF
:20446000F1BD00002A6E0020286E00202C6E0020885E0020D65E0020A0680020A1680020BB
:20448000BC680020785C00207C5C0020503E00207CB50246DFF8BC06DFF8B05600F5E67400
:2044A00090F8170100BBDFF8BC26002182F8061A03F03AFE686AA96B20F4E010686200222C
:2044C000022060F39B61A963002085F8AE010420DFF874160870DFF86C060270207800289B
:2044E00000F03B810A7073BD6E6AB30C03F00703012B06D0C0F01281032B00F0B88067D3FD
:204500000CE1A07800B3DFF894391E78082E1BD1DFF8400A01220270087808B3DFF8402659
:20452000202111700220696ADFF8382660F394416962DFF81456DFF80C162870032008702F
:20454000052182F8061A02E1E1782078002930D000282ED1DFF8040601230370107890B92E
:20456000696ADFF80026012060F3944169620220DFF8D455DFF8CC15287001200870042127
:2045800082F8061AE3E0DFF8D805DFF8D825102101700320696A60F3944169620420DFF8B0
:2045A000A855DFF8A01528700B70022182F8061ACDE0DFF8A825DFF89C39002111700028DB
:2045C000197000F0CA80DFF880150020087073BDE378002B1FD0207800281CD1DFF87C353A
:2045E00001211970107888B90220314660F394416962DFF85455DFF84C15DFF86825287007
:2046000003200870052182F8061AA0E0DFF85005102101708BE0A078E8B1DFF8383901226A
:204620001A7008780028DFD0DFF83425102111700120314660F3944169620220DFF80855D6
:20464000DFF80015DFF81C25287001200870042182F8061A7BE0DFF844180878042800F03C
:20466000B980DFF8F81400220A7000214DE0E378FBB12078E8B9DFF8E434012119701078D2
:2046800000282BD0DFF8D824202111700120314660F3944169620220DFF8AC54DFF8A4144F
:2046A000DFF8C024287001200870042182F8061A4DE0A078002824D0DFF8E0271378082B52
:2046C0001FD1DFF8900801260670087830B1DFF89024202111700420696A2AE0696ADFF885
:2046E0008424032060F3944169620420DFF85854DFF85014287001200870022182F8061A2C
:2047000025E0DFF8580400210170DFF848080170207810B3DFF83024117073BDA0780028C0
:2047200032D0DFF8303801221A700878B0B90420314660F394416962DFF80C54DFF80414EE
:20474000DFF8202428700320087082F8060A03F0EBFC207808B10021297073BD1021DFF864
:20476000000401700320314660F3944169620420DFF8D453DFF8CC1328700A700221DFF853
:20478000E42382F8061AE2E7E178F1B12078E0B9DFF8C8330121197010780028C7D0DFF8E8
:2047A000C023202111700220314660F394416962DFF89453DFF88C13DFF8A8232870032037
:2047C0000870052182F8061AC1E7DFF8D016087804281AD1A96BDFF86C23012060F31B613B
:2047E000A96326F4E016DFF860136E6200200870002111700120DFF85823107021710020A4
:20480000DFF8601381F8060A16E0DFF85013DFF84427002008700021117079E7D85E002063
:204820001F85EB511C6E00201A6E00203E0AD7A3796E002094680020BDE8734003F074BCE6
:20484000FCB4C24B9D6BAC0D04F00304012C02D0022C3AD047E193F8AE21142A11D3BE4CFA
:204860002578012D12D1087830B1996B0E2060F399519963F3BC11E4DFF8D81601200870BC
:204880000BE0DFF818160A78042A1CD10078002840F05381B14A012111700620996BA94A2C
:2048A00060F3995199630020A7490870002111700120A74A1070DFF8640BAA4A017182F8DD
:2048C000061AFCF7F8B9F3BC7047DFF8544B2678012E02BFDFF84C7B3C78012C04D1DFF87F
:2048E000486B3778022F1ED1C5F30160012825F040759D6306D0586A20F4E01025F07C45B8
:2049000058629D630021986B8E4A40F4400098638D4801701170DFF8040B8D4A818011706C
:20492000002000F009BF2C0E04F00304012C02D0022C51D0D3E0DFF8E44A6278002A49D047
:20494000854E3278012A02BFDFF850753E78082E24D1DFF800060270087898B9996B794A8A
:20496000012060F319619963002077490870002111700120764A107021710020794981F805
:20498000060A9EE77649132008700121217100206F49087045F040759D636BE7002A02BFED
:2049A000DFF8F8140A78082A14D16C4901250D7000780028D2D06A4A1321117025710020C2
:2049C000634908700220996B60F319619963F3BCFFF7DEBA0020A4E75E4E06F5E674627801
:2049E000002A31D05C4F3A78012A02BFDFF8AC241778082F28D1DFF85C25012010705A6A20
:204A0000087822F4E01250B1554D13212970012020710320996B5A6260F31B6129E7012009
:204A2000294660F31B6199635A6200204649454A0870002111700120454A10702171002046
:204A4000484981F8060A3CE7C5F38162012A01D1FCBC1DE5E178002904BFA07800281AD058
:204A60003F4A302111700120607120712946022060F39B619963002083F8AE010420324993
:204A8000087000222F480270207800283FF41BAF0A70F3BC704796F8170148B101202946C7
:204AA00060F39B61996300202071F3BCFFF722BA2A49DFF8A0240870002125481170017073
:204AC000207808B1204A117093F8AE010A2828BF6171C828FFF4F7AE2171F3BC704702B043
:204AE000F0BCFFF72BBBDFF838190A78012A02BFDFF83049217801297FF4E5AEDFF8282957
:204B00001478022C1EBFDFF8405C297800293FF4DAAEDFF888231178082905D1996B0120CF
:204B200060F3975100F002BE04297FF4CCAE007818B90A4A01211170AFE6996B0A2060F31A
:204B4000995143E79F6800209E680020B0400020366C0020503E00206D6E0020346C0020B9
:204B6000450400204034002038B4DFF8E02B516AC90B01F00701012906D0C0F03B8103294A
:204B800000F00E811FD335E1516A022060F3D1315162DFF8BC1B91F81701002840F0A180E1
:204BA000916BDFF8B03B022060F38711916302F2AD10002141700421DFF89C2B117000224D
:204BC0001A70012187E0DFF858180B78012B02BFDFF850482178012904D1DFF84C381C7815
:204BE000022C03D1906B20F4707015E1946BDFF8603BC4F38111012970D193F8171191B9AC
:204C00000220214660F38911916302F2AD10002141700421DFF8402BDFF8383B1170002253
:204C20001A70012157E003F5E673197879B1516A042024F4707460F3D1319463516200208B
:204C4000DFF8181B187108702146012017E1C4F301210129D97820D1002939D0DFF8FC5A25
:204C600001242C700078002848D0DFF8F44A102121700220916BDFF8DC4A60F30921916358
:204C80000420DFF8D41A087001212170022082F8AD010020587131BC7047C9B1DFF8BC4AD2
:204CA000012323700078002837D0DFF8B43A202119700120916BDFF89C3A60F309219163CC
:204CC0000220DFF8941A0870012119700420E0E00021DFF8880A017031BC704793F81701E4
:204CE00088B3916B012060F3871191630020DFF82C17087192F8AD0104280ED1916BDFF8B4
:204D0000543A012060F3092191630220DFF8481A0870012119700420BBE0916BDFF8343AF5
:204D2000022060F3092191630420DFF82C1A087001211970022082F8AD010020DFF8DC1649
:204D4000487131BC704703F5E67302F2AD11D878B8B1DFF80C5A30242C700120587118719A
:204D60000220936B60F387130020936348700420DFF8E429DFF8DC39107000221A70012017
:204D80005EE0DFF8D829107048780A2824BF00215971C828C0F07F800020187131BC7047D1
:204DA000DFF87C160B78012B75D1DFF87C462178022970D0DFF86C361C78012C6BD1DFF8AB
:204DC00088592978002966D0007830B1516A012060F3D131516231BC7047516ADFF87C39CA
:204DE000042060F3D13151620020DFF830160871187042E0DFF828060178012902BFDFF8E7
:204E000024361878012804D1DFF81C160B78022B19D1906B20F0300090630320516A60F3A8
:204E2000D13151620020DFF83019DFF8282908700021DFF8E805117081800020DFF81C194A
:204E4000087031BC7047916BDFF8040990F81701C1F3011101290FD1E8B1916B022060F3DC
:204E6000051191630020DFF8F018DFF8E82808700121117031BC704768B9916B012060F3F2
:204E8000051191630020DFF8D018DFF8C8380870187082F8AD0131BC70470000A26800205C
:204EA00030B4DFF8C008DFF8AC1890F8064ADFF8A828DFF89838032C0BD19D6B022464F31E
:204EC00011459D630423137003220A7080F8062A0FE09D6B012464F311459D630423137018
:204EE0000C700021DFF8682882F8D011022380F8063A30BC03F018B930B4DFF86808DFF8C4
:204F0000541890F8064ADFF85028DFF84038082C0BD19D6B012464F315559D630323137008
:204F20000C70082180F8061A12E09D6B022464F3155500249D6383F8AE41032313700422F6
:204F40000A700723DFF8082882F8D04180F8063ACFE70000356C0020F8B5DFF8F477DFF826
:204F6000EC5707F2CD163478002C3ED0DFF8944B2378002B39D1DFF8E427012111700078A9
:204F8000002854D0DFF8D827132111700120F070A96BDFF8740B014041F40051A96397F8ED
:204FA000170188B1DFF8BC1791F8060A062807DAA96B012060F38F31A9630020F0701EE27A
:204FC000DFF80C1C012008700220A96B60F38F31A963002085F8AE010420DFF87C17087092
:204FE0000021DFF870271170F1BDAB6BC3F38144012C40F0A98097F8170198B9DFF8642782
:20500000002182F8061A03F08FF8A96B022060F39541A9630020DFF8401785F8AE010870FE
:205020000421DEE7DFF8A80C0278042A18D1A96BDFF8D40ADFF81C27014041F48051A96334
:205040000021DFF814070170002010700121DFF8802B1170F070DFF80C1781F8060ABCE088
:20506000C3F3015001287078DFF8682B32D160B3012313700878DFF8DC36DFF8DC46DFF8B8
:20508000E426A8B1DFF8D876102139700220A96B60F31551002085F8AE01A96303202070B4
:2050A000042018700020F070072082F8060AD6E7A96B012060F31551A96303202070012088
:2050C0001870082082F8060AC9E7DFF890160870002188E760B3012313700878DFF87436A6
:2050E000DFF87446DFF87C2680B1DFF87466202131700120A96B60F31551A9630320207035
:2051000001201870082082F8060AA8E7A96B022060F31551002085F8AE01A96303202070AB
:20512000042018700020F070072082F8060A96E7DFF8281608700021117095F8AE010A2878
:20514000FFF452AF3171F1BD717899B1DFF810263020107001213171F1700220A96B60F34D
:205160009341A9630020DFF8F01585F8AE010870042136E71278002A1CBF97F817110029FE
:2051800017D0DFF84C2B1378082B12D1DFF8CC250121117000780028084606D0A96B60F3A3
:2051A0009341A9630020F0702CE1DFF8241A0870D3E7DFF8A82500211170DFF8182A11705B
:2051C000DFF80C2A117095F8AE010A2828BF3171C828FFF409AFF170F1BDBDE8F14002F0D8
:2051E000A3BFF8B5DFF86835DFF8604503F2CD12117800293DD0DFF80C592E78012E02BF4B
:20520000DFF8CC1A0D78082D33D1DFF8C8190E700078002800F0A280DFF8445513212970EE
:205220000120D0700320A16B60F31131A16393F8170188B1DFF82C1591F8060A062807DBA8
:20524000A16B012060F39341A1630020D070D9E0DFF87C19012008700220A16B60F3934183
:20526000A1630020DFF8F01484F8AE0108700421A3E0A56BC5F38131012940F0888093F87D
:20528000171159B9DFF8DC24002082F8060A02F04BFFA16B022060F3913185E0C5F3014175
:2052A000012951782DD1002970D0DFF8243A1D78082D6BD1DFF81C39DFF89C5401211970BB
:2052C0000078DFF89034DFF89C1468B1DFF89064202232700220A26B60F31142A26304206E
:2052E0002870032018704EE0A66B012060F31146A66304202870012018700020D070022071
:2053000041E031B3DFF8CC58DFF8581401232B700078DFF84034DFF8405480B1DFF84074A1
:2053200010263E700120A66B60F31146A66304202870012018700020D070022023E0A26BAD
:20534000022060F31142A263042028700320187019E0DFF87C090178042917D1A16BDFF853
:20536000F433012060F31131A1630020DFF8E8130870002119700120DFF854381870D170EB
:205380000020DFF8E01381F8060A26E73DE05078B8B1DFF8CC333021197001201071D070AD
:2053A0002946022060F38F31A163002084F8AE010420DFF8A41308700021DFF8982311709C
:2053C000F1BD93F8170138B10120294660F38F31A1630020D07012E0DFF88013DFF8F4372E
:2053E000087000211970DFF8E837187094F8AE010A2828BF1171C82828BFD170F1BDBDE8CC
:20540000F1404DE5BDE8F14076E5DFF85013DFF8C427002008701070F1BD00001C400020BA
:205420002C6C0020906E00209A680020FCB4C74B9C6BA50A05F00305012D02D0022D4AD0B6
:20544000F6E093F8AE21142A22D3DFF8B8462578012D23D10878B0B1996B0E2060F38D2141
:205460009963BB4991F81701002840F08D80996B022060F3934199630020B74983F8AE0193
:20548000087004214EE1DFF84C27012010700CE0DFF83C180A78042A40F0468100780028F7
:2054A00040F01681AD4A012111700620996BA94A60F38D2199630020A74908700021117047
:2054C0000120DFF80C271070DFF80C07A54AC17082F8061AFAE0DFF8285C2E78012E02BFB2
:2054E000DFF8587C3D78012D04D1DFF8546C3778022F1AD1C4F3013001280CBF24F440545F
:205500006FF315349C630021986B924A40F440609863914801701170DFF8BC06DFF8B02601
:20552000C17011700171002006E1250B05F00305012D02D0022D75D077E0854D05F2CD169C
:205540003278002A68D0DFF8BC753A78012A02BFDFF87CC79CF80070082F2AD1DFF87406F8
:205560000270087888B37E4A132111700120F0700020DFF85C16087044F440549C6395F8C7
:20558000170100283FF473AF764991F8060A06280ADB996B012060F3934199630020DFF8CC
:2055A0003816C870F3BCA7E4DFF82416012008705DE7002A02BFDFF818170A78082A2BD19C
:2055C000664901240C700078A0B9996B614A012060F30D31996300205F490870002111706B
:2055E0000120DFF8EC251070F17000205D4981F8060A6BE05A4913200870F4700020DFF87E
:20560000D01508700220996B60F30D31996395F81701002865D179E0504A00211170DFF80B
:20562000B42580E00846F6BCDBE502B0F0BC93E4DFF8CC1A0A78012A02BFDFF8004B2178B6
:20564000012971D1DFF8F82A1478022C1EBF3E4D2978002968D0DFF878261178082904D1BD
:20566000996B012060F38B2160E004295CD10078374990B19A6B0A2060F38D229A6391F87C
:205680001701002842D0374991F8060A06282DDBDFF83C250121117038E0304A012010705B
:2056A00006209A6B60F38D229A6300202A4A294B107000221A700120DFF8143501F2CD117A
:2056C0001870CA700020274A82F8060AFBF7F3BA996B0A2060F38D2199631D4991F817011C
:2056E000A0B1204991F8060A06280BDA996B012060F38F3199630020DFF8DC14C870F3BC42
:20570000FFF7CEBBDFF8C814012008700220996B60F38F319963002083F8AE0104200E49C4
:20572000087000210B4A1170F3BC70470020996383F8AE01F3BC70470849DFF8982408708C
:205740001070F3BC70470000916E0020B0400020503E00209F6800209E680020346C002079
:2057600045040020403400207CB5DFF8D809DFF8D849016801F62C0204F1D40150880B8888
:20578000984231D2DFF8B01B002081F8060A02F0CBFC606A616B20F4E070606221F04051CA
:2057A00020F038006062616321F04041A06B616300090001A06321F0706161630220616A1A
:2057C000DFF8C02B60F302016162DFF8BC0B01781170DFF8B82BDFF8B81B1078DFF8B42BB4
:2057E00008700021117073BDDFF8203393F817010028CED1DFF8405B95F8060A0028C8D0FC
:20580000DFF8FC582E78012E02BFDFF830090578012D04D1DFF828693078022816D1606A4C
:20582000616B20F4E070606221F0405120F038006062616321F04041A06B6163000900019B
:20584000A06321F0706161630120B8E7606AC00800F00700401E052800F2E680DFE800F0BC
:20586000032F598DB5C2656B2E0F06F00306012E02D0022E06D017E093F8BB01002840F0F0
:20588000F98004E04E8810888642C0F0F38045F040556563002048800120DFF8F45ADFF8BB
:2058A000E46A287002259BE048881588A842C0F0E180656B022060F31D75656354E0656B55
:2058C000A80F012802D0022806D017E093F8BB01002840F0CF8004E04E8810888642C0F067
:2058E000C98045F040456563002048800320DFF8A05ADFF8906A2870022571E048881588B3
:20590000A842C0F0B780656B022060F39F7565632AE0A56BAE0806F00306012E02D0022E95
:2059200006D017E093F8BB01002840F0A38004E04E8810888642C0F09D8045F00C05A563A3
:20594000002048800120DFF8485ADFF8386A2870032545E048881588A842C0F08B80A56B45
:20596000022060F38305A5630020DFF8245ADFF8146A4880287030707CE0A06B00F00305F9
:20598000012D02D0022D05D010E093F8BB01002870D10FE04D881688B5426BD340F0030099
:2059A000A06300204880DFF8DC5962E04D88108885425FD3A56B022060F301050020A56395
:2059C00048800320DFF8BC5953E0DFF8BC59DFF8B4092E780670DFF8B409DFF8B46905781C
:2059E000357047E0656B2E0E06F00306012E02D0022E05D00FE093F8BB0100283AD103E07E
:205A00004E881088864235D30020488045F04075656301202BE04D88108885422AD3656B81
:205A2000022060F319651FE0656BAE0E06F00306012E02D0022E04D00EE093F8BB01C8B92E
:205A400003E04E881088864214D30020488045F04065656303200AE04D881088854209D39F
:205A6000656B022060F39B65002065634880DFF820592870656AAD0905F007056D1E042D07
:205A80002DD8DFE805F003040F161D00ABE693F8BB0100287FF4A7AE0420616A60F3881159
:205AA000616273BD93F8BB0100287FF49CAE0520F3E793F8BB0100283FF495AE0320ECE7ED
:205AC00008885288824238BF0120E6D3401CB0F5803F01DA088073BD4FF6FF70FAE793F854
:205AE000BB0130B1626A022060F3881262620020F0E70888401CB0F5803FEBDB4FF6FF70A9
:205B0000E8E700006D6E0020FFCFC3FF503E0020F0B4DFF83416DFF880484B6BCD6D23F412
:205B200040034B6301F1D202002025F4802523F440131080CD654B632080D08025F4801558
:205B40004E6ADFF85808CD650640886B4E626FF31B10886326F4E01620F07040886301F215
:205B6000AD174E620020787025F4001526F4E046CD654E6238700027DFF80C086780077041
:205B800026F4FC76DFF80408077023F07043DFF81008077025F400250E4807700C4807701D
:205BA0004E624B63F60823F07063F6008F634B63CD654E6297805780DFF8C817DFF8D027B9
:205BC0000F701770DFF8CC271770F0BC70470000366C0020356C00201D4000202DE9F84FAE
:205BE000DFF86445DFF8BC97DFF8587504F1D2054FF6FF78288840451CBF401C2880E16D6D
:205C000009F5E776C1F3804038B941F48021E1650120616B60F315513BE0616BC1F3015016
:205C200001280DD1DFF880170878002802BF284A117808293DD1616B0E2060F3175128E08F
:205C400023480278082A03D0012060F3175120E08A0D02F00302012A02D0022A07D01CE0F4
:205C6000DFF84437187890B10021317021E038682A8800F502639888824204D3012060F363
:205C80009751616307E0DFF82027107888B941F440016163002030700BE0DFF80C07017842
:205CA000012906D1616B022060F39751002061632880E88840451CBF401CE880E16DC1F398
:205CC000005038B941F48011E165032026E000BFA2680020606A400A00F00700012804D05D
:205CE00023D3032815D007D31FE0DFF8101B087898B10022727024E03968E88801F5026287
:205D00009388984205D3616A012060F34B21616209E0DFF8E81A087898B90420616A60F373
:205D20004B216162002070700BE0DFF8D00A0178012906D1616A022060F34B21002061628F
:205D4000E8803868DFF8242B00F5026110880B89984224BF4A89824207D3DFF8140B0078F5
:205D600015281CBF1628012000D100208DF80000DFF8000B0A890088904224BF4A898242ED
:205D800007D3DFF8F40A007815281CBF1628012000D100208DF8020009F5D7700278052AFF
:205DA0001CBF062A072A01D1012200E00022827704F28D1A99F817219AF80030DFF8BCBA42
:205DC0009A4214BF012200228DF801209AF812309BF800209A4214BF01220022C27704F27F
:205DE000AD125078FF281CBF401C5070E36DC3F34050D0B9616A012060F30E31616243F467
:205E00000013DFF88415E365042008700121DFF87C3519700020DFF88835DFF8641A187057
:205E2000B84B18707080087046E0606A000B00F00700012804D04DD3032843D03ED349E0E8
:205E40000A78FF2A10D0616ADFF840251A2060F3113161620020DFF83015087010707080FA
:205E6000DFF83C1508703CE04A78FF2A08D0616A032060F30E31A06B616240F440600AE097
:205E80008878FF282DD0616A042060F30E31A06B616240F44000A0630021DFF8EC04DFF859
:205EA000EC240170002010707180964ADFF8D0190870DFF8EC140870107012E06846FEF754
:205EC00053FE0EE00DF101020DF102016846FFF7ADFA06E00DF101020DF102016846FEF7AB
:205EE000AFFCA88840451CBF401CA880E16DC1F3C04020B941F40021E165012060E094F87F
:205F0000240000F00700012805D0C0F0DF80032843D035D3DAE0DFF8201491F8060A00288D
:205F20001CBF0128062804D1DFF858190878002845D13A6892F82018FF2940D1DFF8442973
:205F40001078002800F0C480DFF83C14DFF83C340A781878024300F0BB8069490A78012A0E
:205F600002BF76480178012940F0B280744A1078022800F0AD80616A032060F30201A3E049
:205F8000DFF80404DFF8FC2301781170DFF8FC23DFF8FC13107808709AE0DFF89C1391F8CD
:205FA000060A062804DADFF8E4130A78042A06D007281ADBDFF8D0130A78042A15D10220DB
:205FC000616ADFF8C02360F302016162DFF8B80301781170DFF8B423DFF8B4131078DFF8EC
:205FE000B42308700021117075E0626A042161F3020262620122DFF89C1302280A700AD126
:20600000616A626B062060F3C50161620420012161F319620AE003280BD1606A626B40F019
:20602000380060620121042061F39B626263002240E0042818BF092808D1616A62F3C501D5
:206040006162616B62F31D71616325E0052809D1616A022060F3C5016162616B62F39F7104
:20606000616319E007280CD1616A042060F3C50161620120A16B60F301010422A1630020C0
:2060800018E008280BD1616A032060F3C5016162A16B62F38301A163002200200AE0626A51
:2060A000052060F3C502B84862620023B74A007812780B70B6490A70B24908700020688048
:2060C0000620616A60F38811616201E0FFF74CFBB049087828B9B178481E8041C043C00F86
:2060E00000E00120DFF80C1B087099F817018AF800009BF800008AF81200BDE8F18F0000B2
:206100002C6C0020356C0020A848D0F89410426E21F08041C0F8941022F0E07221F0005106
:20612000C0F8941042660022416F21F030014167DFF8C40AC0E9002270470000906E00205A
:206140009A680020B05B0020B0400020F8B49749D1F89420C2F3807020B942F08042C1F8AE
:20616000942015E0486E800D00F00700401E03286CD8DFE800F002142C4BDFF8802A13781F
:20618000012B05DDDFF8784A207808B1022062E04A6E052060F398524A6600205FE0DFF8A3
:2061A0005C0A0078032805DBDFF8542A1078002835D105E0012803DDDFF8442A107820B957
:2061C000DFF8402A0023138044E0022047E0DFF82C0A007803280BDDDFF8242A107860B105
:2061E0004A6E042060F398524A660320002229E003DBDFF80C3A187828B9DFF8083A0022E1
:206200001A80022027E0032000221BE0DFF8EC090378032B03DDDFF8E829107830B94A6E15
:20622000032060F398524A6600220BE0DFF8D8391A8802EB8204032062004FF6FF739A422C
:2062400088BF1A46DFF8BC391A8008E0DFF8AC29107820B101204A6E60F398524A66DFF8A7
:20626000AC291070D1F89420C2F3407020B942F00052C1F8942050E04B6FDFF87C091A09B4
:2062800002F00302012A02D0022A19D031E0DFF86C492278022A05D10026DFF86C7BC0E92F
:2062A000006717E0012A06D10022DFF8603BC0E90023022032E00022C0E90022F1BC704799
:2062C000DFF838291278042A09D10024DFF8405BC0E9004543F030034B67F1BC7047052AC5
:2062E00003D10022DFF82C3B15E000224FF080431DE0DFF808291278032A07D10024DFF8C2
:20630000185BC0E9004502201A4608E0062A0BD10022DFF8083BC0E9002301204A6F60F371
:2063200005124A67F1BC70470022DFF8F43AC0E90023F1BC70470000403400201B48416B37
:20634000026A21F44031416322F0E042026221F44021416321F44041C26D416322F4003244
:20636000C26500F1CC0100220A608A80016E21F080510166DFF8AC1A0A700021DFF8A82A09
:20638000117070479C6800209E6800209F6800209D680020B55E00201E400020FF71FCFF13
:2063A000346C0020503E00206E6E0020B0400020F8B5DFF8784AE16DC1F34040F0B941F4BD
:2063C0000031E1650120616B60F38F31616304F1CC00002141800822216E21F080512166BD
:2063E000DFF8441A0A700A21626B61F3134262630021DFF8302A11700180F1BD626B900B1E
:2064000000F00300012803D0022800F0CC81CFE1DFF81C3ADFF80C1A187801281EBFDFF8DF
:20642000145A2B78012B18D1C2F3014001280AD1206A20F0E04020620823DFF8EC09037096
:2064400022F4403201E022F4702262630422606B40F4404060630A7086E1DFF8DC090078E9
:20646000302818D1C2F3014001280AD1206A20F0E04020620823DFF8B009037022F44032EF
:2064800001E022F4702262630220626B60F38F3262630F2067E1130C03F00303012B03D058
:2064A000022B00F0AA800BE1DFF890592E78012E01BF0128DFF888090378012B10D1DFF864
:2064C00084592B6893F8F067FF2E1EBFDFF878592878002804D1DFF8746935780C2D08D1A8
:2064E000206A20F0E04020620822DFF83C09027033E1DFF85C59B3F822712E88206ABE428A
:206500000BD320F0E04020620820DFF81C39187042F440326263032025E1000F00F0070073
:20652000012804D003282AD004283FD063E003F5F0600278FF2A1CD0DFF8182940681368A9
:20654000984204D2DFF8103918784F2811D1206EC0F3007068B9226A042060F31E72226299
:206560000220087001F0DAFD04F1CC0100208880F1BD226A022060F31E722262F3E0012018
:20658000087003F5F06304F1CC001D898288AA4206D3226A052060F31E7222620220E2E006
:2065A000521C8280BDE8F14001F00CBE0220087004F1CC0503F5F062A8885388DFF868687E
:2065C000984210D3226A032060F31E7222620120087001F0A3FD0020A8800821206E40F08F
:2065E0008050206605E001F0EDFDA888401CA88001213170F1BD0220D8E0DFF84838DFF858
:2066000050581B682E88B3F82271BE4209D3DFF830582E78012E04D1032060F313426263E6
:20662000A1E0DFF818582E78012E01BF0128DFF810080578012D23D193F8F067FF2E1EBF5A
:20664000DFF80458287800281AD1DFF810683578082D07D1DFF8F40706780C2E02D00D786A
:20666000012D03D093F84005FF2809D10120114660F313416163216A60F31E712162F1BDC7
:20668000C2F38140012800F091800020087003F5A86204F1CC00538905889D4204D3DFF809
:2066A000BC371E78082E02D01278FF2A05D1626B012060F39342626355E06D1C0580F1BDF4
:2066C00003200870DFF8980700F1F50213780F2B1CBF55780F2D2BD013790F2B1EBFDFF8A3
:2066E00084572E780F2E23D0127A0F2A1EBFDFF878371D78042D1BD0DFF860271378042BF8
:206700001EBF00F2AD15AA780F2A06D1DFF834371D6895F84025FF2A0AD1DFF828572D680E
:2067200004F1CC0205F24E36538837889F4206D2626B022060F3913262630F2013E005F5E2
:206740009175DFF80CC76F88BCF80050AF4204D2DFF8EC562F78012F0AD0626B062060F3B7
:206760001342626301200870BDE8F14001F0D6BCB179FF291EBFDFF8F4462578012D0FD023
:2067800000F2AD10017804291EBFDFF8E4462578042D1CBF4078042802D15B1C5380F1BD6E
:2067A00000205080F1BD0F20DFF878160870F1BDDFF87016DFF87C5604220A70DFF870266E
:2067C00028781378034318D1626B012060F38F32626304F1CC00002242800823226E22F026
:2067E00080522266DFF8402613700A22636B62F31343636300220A700280F1BD6B6E00204F
:2068000000E000BF70B40022DFF82006DFF85036416B80F8AC2121F44051C26D22F48032AB
:2068200003F2C9144163C2650025A57021F47C61416300F1C60521F030014163002622F40D
:20684000004221F00C016E80AE80C26541632670667022F48042016A2E8021F06061C2659B
:20686000016283F8806170BC70470000065F00202A6C0020025F0020296C00206D6E00200A
:20688000366C0020916E00202DE9FC41DFF8D085DFF8985595F8DA0108F2BF1631780029CB
:2068A00000F09B8120B9FFF7ACFF012085F8DA0195F8AC0107283CBF401C85F8AC01E96D99
:2068C000327BC1F3004048B941F48031E9650E20696B60F38D21696300223EE0686BC0F34D
:2068E0008121012939D0DFF83C150978032918BF02291FD0000B00F00300012802D00228DA
:2069000004D014E0BE490878A0B926E095F8AC31032B03DDBA48017861B902E0B84B187847
