:020000040804EE
:2000000000000110ED050608FB050608FB050608FB050608FB050608FB050608FB0506087B
:20002000FB050608FB050608FB050608FB050608FB050608FB050608FB050608FB05060850
:2000400070B5DFF8A41CDFF8985C95F8AF0101F2E714227890424FF4AA7028449B41426A31
:20006000DB0FC2F30016D6B942F01001DFF87C2C41621268DFF86C1C92F80026FF2A06D14E
:200080000368062262F391330360002047E0026822F44C2242F40422026000203FE00268B5
:2000A000C2F38136012E3CD1930C03F00303012B02D0022B05D00FE091F82D11082966D1E2
:2000C00006E0DFF8281C096891F8B011FF295ED0072161F395421EE001F22D110B78082BD6
:2000E00005D0012161F395420260042015E0C2F30152012A497908D1012948D102680221C5
:2001000061F315520260012007E001293FD00268012161F3155202600020DFF8C81B087086
:2001200035E0160C06F00306012E02D0022E10D019E0DFF8B81B096891F8B011FF291CBF17
:200140006178002923D0DFF88C1C91F8EC1929B90FE0E3B191F82D11082918D142F44031B0
:20016000016001200AE091F82D11082908BF002B0DD0022161F3114202600020DFF8641BAA
:200180000870DFF8501C81F8EC0907F05DFE207885F8AF0170BD30B4DFF8441BDFF8445B62
:2001A000012081F8AF0100244FF4A270084430310269436B22F47C12026123F0100322F473
:2001C0004042436302615B082C705B00436322F44052026123F00C030468436323F002023E
:2001E000426324F0E074046024F0606202600025026B8D8722F000420263CD870D804D8742
:20020000826B22F40032826322F480218163DFF8C80B0570457030BC704700002DE9F84361
:20022000DFF8C87A386890F89014FF2904D0DFF8AC1B897A012900D00021DFF8AC4ADFF87D
:20024000946B90F800E696F8EE694FF49772A518A6F1040CEA78131FF72B9B41DB0FBCF173
:20026000F70F6CEB0C0CBEF1FF0F1CBF002B02EB820004D111EADC7F03D006EB860046001C
:2002800001E090F8BC61FFF7DBFEDFF8543AA87893F8EEC1012840F0CD814FF4A272BCF19F
:2002A000000F04F2B31003F130011A444DD1D2F834C0D2F810E04FEA5C0C4FEA4C0CC2F871
:2002C00034C02EF4405ED2F800C0C2F810E02CF0E07CC2F800C04FF0000CA1F83CC0D2F89A
:2002E00034C02CF00C0CC2F834C02CF0020CC2F834C0D2F800C02CF0606CC2F800C04FF025
:20030000000CA1F83EC0D2F830C02CF0004CC2F830C0D2F838C02CF4003CC2F838C04FF05F
:20032000000CA1F800C0A1F83AC0D2F838C02CF4802CC2F838C04FF0000C80F800C080F88A
:2003400001C04FF0010C83F8EEC14FF6FF783B6893F8F074FF2F0EBF4FF0FF3CDFF8807AD2
:20036000B7F900C08F8F47451CBF7F1C8F87CF8F47451CBF7F1CCF87D2F830E05FEADE77A9
:200380002CD14EF000431363536B146843F002035363022363F35B6400231460CB87916B22
:2003A000536B1568052421F4003143F0010364F398559163536315600024047041F480218B
:2003C000916343F004011369516343F44053136141F00801FF234370516321E117687F0EB2
:2003E00007F00707012F3BD01ED3032F08D01BD2CF8F052F3ED393F8F074FF2F1CD139E00F
:20040000B1F9007007F11909E145A4BF193FBC4530DA17684FF0010E6EF35B671760976B53
:2004200047F40037976323E0B1F83EE0B7B2BE4502D22F78012F0AD117684FF0030E6EF364
:200440005B671760976B27F40037976310E0B1F9007007F10A09E145A4BF0A3FBC4509DA4A
:2004600017684FF0040E6EF35B6717600027CF87A1F800C01768BF0D07F007077F1E042F1C
:200480004FD8DFE807F0030C101C41008E8F93F8B171BE4243D22E78012E6CD178E02E780C
:2004A000012E18D150E08F8FB6B2B74237D22E78012E07D0966BC6F380461EB92FE02E78B4
:2004C000012E58D14FF4D97C9C44B4F87460BCF80270BE420ED2DFF80C683678012E09D1C4
:2004E0006E78022E18BF012E04D0966BC6F34046002E4DD0D2F800C0062666F3985CC2F8C4
:2005000000C00026067043E0DFF8D8673678012EF0D14FF4D9761E44B679FF2EEAD0042674
:200520002AE0B4F87460B3F8B271BE4215D2DFF8B4673678012E04BF6E78032E0DD1966BF4
:20054000C6F340464EB90326D2F800C066F3985C0026C2F800C08E871AE02E78012E17D0EA
:20056000DFF880673678012E01BF6E78032E966B16F4C02F0CD10226D2F800C066F3985C33
:20058000C2F800C001260670966B26F4802696631669360B06F00306012E02D0022E12D0B8
:2005A00032E04FF4D9763344B4F874405B889C422ED26E78022E18BF012E29D0936BC3F336
:2005C00040432BBB2CE04FF4A0761E4477884E8FBE4208D3474506D01369012161F30D33A0
:2005E000136141701CE0B4F87440B3F8B2319C4208D26B78032B01BF926BC2F34042002A05
:20060000721C0CD000220AE093F84031FF2B07D01469022363F30D341461002242704A8714
:200620000178DFF8C02711704078DFF8641D0870BDE8F183BCF1000F1CBF002083F8EE0140
:20064000BDE8F183DFF84C0D0078022809D0DFF8480D0078012802BFDFF8400D0078012883
:200660001ED0DFF87C164FF480700844C169026889088900C161816921F040418161022153
:2006800061F3944202600020DFF8141D0870DFF8141D0870DFF8101D0870DFF8101D2FE01F
:2006A000DFF80C0D0278152A18BF162A0ED1DFF830164FF480700844C16989088900C16199
:2006C000816921F04041816103210FE0DFF810164FF48070182A084414D1C16989088900C2
:2006E000C161816921F0404181610421026861F3944202600020DFF8A81C0870DFF8A81C91
:20070000087070478269930F012B07D0C0F03B81032B00F0AC80C0F0858034E1096941B136
:20072000DFF8C415DFF88C2C91F8FF111278114310D0C169826989088900C161022161F35B
:200740009F7282610020DFF8601C0870DFF8501C087014E1DFF8281D09780A001EBFDFF8AF
:20076000242D1278012A18D1C26902F00303012B04D053D3032B3BD024D34FE0002900F0C9
:200780000581DFF8041D0978012906D1DFF8FC3C1021197042F00301E7E0DFF8F02C10216F
:2007A0001170C169826989088900C161022161F39F7282610020DFF8F01B0870DFF8E01BB0
:2007C0000870DCE0002900F0E180DFF8C02C102111700121C26961F30102C2610120DFF837
:2007E000C81B08701320DFF8B81B08700120C6E0002900F0CB80DFF8942C102111700221B2
:20080000C26961F30102C2610220DFF89C1B08701320DFF88C1B08700220B0E0910889000E
:20082000C1617047DFF88C1B0978002940F0AE80DFF84C1C0978002902BFDFF8AC1491F88F
:20084000B111002900F0A280DFF8402C102111700121826961F39F72016C826141F01001A2
:200860000164017F01F0030103297BD17047DFF8441B0978002940F08980DFF8041C0978DE
:20088000002902BFDFF8601491F8B11100297DD0DFF8F82B10211170DFF8381591F8D82908
:2008A000012A27D191F8F829002A4DD1DFF83C24126892F8A523FF2A46D08369012262F37D
:2008C0009F73026C836142F010020264027F02F00302012A5AD0C369012262F30103C36171
:2008E0000120DFF8C42A10701320DFF8B42A1070012046E0022A04BF91F8F829002A23D12C
:20090000DFF8E823126892F8A523FF2A1CD08369012262F39F73026C836142F010020264A2
:20092000027F02F00302022A30D0C369022262F30103C3610220DFF8702A10701320DFF829
:20094000602A107002201CE08269012161F39F72016C826141F010010164017F01F0030191
:20096000032913D0C16941F00301C1610320DFF8381A08701320DFF8281A08700320DFF865
:20098000541401F08BBB22F0404181617047000030B4DFF8FC0A0078012802BFDFF8F40A94
:2009A000007808282BD1D148006800F2B2604078FF2824D0DFF8E00A8269C16922F04042D1
:2009C000826189080268836922F4E01202608900022262F31D73C1F38102032AC1618361E7
:2009E00000F07B8141F00C01C1610320DFF8B81908701320DFF8A8190870002065E1DFF8E8
:200A00009C0A0078012802BFDFF8940A0078082828D1B648006890F8B206FF2822D0DFF822
:200A2000780A8269C16922F04042826189080268836922F4E01202608900012262F31D73C6
:200A4000C1F30112032AC161836100F0468141F03001C1610320DFF8501908701320DFF87C
:200A60004019F8E0DFF8300A01688A0C02F00702521E032A00F22E81DFE812F00400060029
:200A8000A000C40030BCDDE5DFF808190978022900F02381DFF800190978012902BFDFF8D9
:200AA000FC180978012940F01881DFF8F8190978002900F012810268012161F39442026081
:200AC000C44991F8D829130006D18169890F022940F08B8030BC7047844B1B6803F621049A
:200AE0002578FF2D04BF6478FF2C04D0046CC4F30014002C5CD0012A29D191F8F829002A03
:200B000051D193F8A523FF2A4DD08269920F012A08D08369012262F39F73026C836142F091
:200B200010020264027F02F00302012A00F0D580C369012262F30103C3610120DFF8682801
:200B400010701320DFF8582810700120BEE0022A04BF91F8F829002A25D193F8A523FF2A17
:200B600021D08269920F012A08D08369012262F39F73026C836142F010020264027F02F010
:200B80000302022A00F0A980C369022262F30103C3610220DFF8102810701320DFF800285B
:200BA0001070022092E08169890F012973D17BE0816941F04041816130BC7047DFF8F017D7
:200BC0000978152918BF162900F08780DFF8C8170978012940F081800268012161F3944201
:200BE00081690260890F022977D08269022161F39F7282610020DFF8B0170870DFF8A01785
:200C0000087062E0DFF894170978012911D00268022161F3944202600020DFF884170870E9
:200C2000DFF880170870DFF880170870DFF87C1711E0DFF87C170978152918BF16290CD171
:200C40000268032161F3944202600020DFF850170870DFF8541703F075BE18293DD0DFF817
:200C6000541709780029B7D1DFF814180978002902BF1D4991F8B1110029ADD0DFF80C2807
:200C8000102111700121026861F3944281690260890F012908D08269012161F39F72016C27
:200CA000826141F010010164C16901F00302032A13D041F00301C1610320DFF8EC160870AF
:200CC0001320DFF8DC1608700320424981F8D80904F013B821F4E011016030BC70470000CF
:200CE00074410020A95F0020D43E0020C85C0020384890F8D8190A0013D1DFF8F01CD1F8EE
:200D00001401C0F30160022862D0D1F81421022060F31962C1F814210020DFF88C16087061
:200D200055E001291DD1DFF8C81C096891F8A513FF2933D0DFF8B41CD1F8143162F3196348
:200D4000C1F81431D1F81421C2F38162012A3FD0D1F81431012262F39B63C1F81431012121
:200D60002FE002291AD1DFF8881C096891F8A513FF2913D0DFF8741CD1F81431012262F329
:200D80001963C3F38162022AC1F8143120D0022262F39B63C1F81431022112E0DFF84C1C5B
:200DA000D1F81431012262F31963C1F814311A46C2F38163032B0BD042F04062C1F814216F
:200DC0000321DFF8E425117080F8D819132051E370470000C434002087400020B23E0020F8
:200DE000FC5F0020A75F002078B4DFF8A4060078012802BFDFF89C06007808282FD1DFF84B
:200E0000F00B006800F2B2604078FF2827D0DFF8DC1BDFF8AC2C4FF4807008440168836944
:200E2000114001600222416921F0706162F309238A0F032A4161836100F0A88241F04041B7
:200E400041610320DFF8601508701320DFF8501508700020DFF86C1C81F8D80956E2DFF83A
:200E60003C060078012802BFDFF834060078082830D1DFF87C0B006890F8B206FF2829D0EE
:200E8000DFF8681BDFF8382C4FF4807008440168114001604169826921F0706141610121E8
:200EA00061F309228261114601F00302032A00F06D8241F0030181610320DFF8EC140870EE
:200EC0001320DFF8DC1408700020DFF8F81B81F8D8091BE2DFF8141B4FF480700844026850
:200EE00002F007035B1E042B00F24D82DFE813F005009E008801EB010F02DFF898341B7864
:200F0000012B18BF002B09D1DFF8BC3B1B780D2B04D0DFF884341B78012B12D0DFF8A01B9A
:200F2000114041F0030101600020DFF874140870DFF870140870DFF870140870DFF86C14D6
:200F400006E2930903F007035B1E042B6BD8DFE803F0031A2E445E00DFF8702B12787AB157
:200F60000368032262F3881303600020A1F868002120DFF834140870FD20DFF82814E7E19D
:200F8000DFF84C1B0DE0DFF8682AB1F8681012684FF474731A445288914280F08981DFF89C
:200FA000341B0978002940F0838171BC7047DFF8403A1B68B1F86820B3F8D0339A42C0F0E1
:200FC000E5810368042262F3881303600020A1F86800FE20DFF8CC13BAE1DFF8143A1B688F
:200FE000B1F86820B3F8D0339A42C0F0CF810368022262F3881303600020A1F868002220F1
:20100000DFF8A41308700020DFF89813A0E1DFF8C81A4978002900F0B981012161F38812CA
:201020000260202093E122F4E071AEE1DFF864231278022A09D0DFF860231278012A02BFE7
:20104000DFF858231278012A11D04169026821F070614161032161F3020202600020D049F9
:201060000870D0490870D0490870D04970E1DFF8782D1278152A18BF162A04D1416921F080
:20108000706141615BE1182A05D1416921F070614161052154E14269130E03F00303012B0F
:2010A00002D0022B71D0A6E00969002966D0910E01F00301012904D064D3032941D028D398
:2010C00060E0DFF8BC130978002900F05F81DFF8B863DFF8B8533678DFF8E839B049B24C3F
:2010E000012E0AD110262E7042F0406242610320207083F8D809132007E110222A70022281
:20110000456962F31B6545610020207083F8D809FBE0DFF86C130978002900F03781DFF840
:201120006C23102111700121426961F39B62426101209D490870DFF88C1981F8D809132025
:20114000E2E0CF490978002900F02081DFF8A018096891F8A513FF2910D0CC4A1021117069
:201160000221426961F39B62426102208E490870DFF8501981F8D8091320C5E0022161F353
:201180001B62B9E022F0406137E0BD490978002902BFDFF8541D91F8B111002900F0F680DC
:2011A000DFF84C18096891F8A513FF2909D1012161F31962C2F38161032942610ED171BCDD
:2011C0007047B24A102111700121426961F31962C2F381610329426100F0D880416941F085
:2011E00040614161032070490870DFF8D81881F8D809132088E022F04071416171BC704753
:2012000064490B78022B20D0032B11D0DFF8E027126802F2A5346478FF2C09D0DFF8A448AA
:2012200094F8F849002C04BF92F80026FF2A15D1594A1278012A02BF584A1278012A04D1EE
:20124000984A1278002A40F09780DFF8A427126802F2A5325278FF2A00F09880012B18BFCC
:20126000002B40F09380DFF8601809780D2900F08D8049490978012940F08880DFF8441855
:2012800091F8F81900291EBF8649097800297DD0DFF85C17096891F80016FF2976D10268B5
:2012A000012161F30202C2F38211052902606DD00268052161F38812026010203A49087094
:2012C0000020384944E0DFF8201B0A78152A18BF162A5BD030490978012957D1026802215B
:2012E00061F3020241690260C1F3016102294DD04269022161F31962426100202A490870E1
:20130000DFF8C01781F8D80925490870A7E22349097801290CD0032161F302020260002065
:201320001F4908701F4908701F4908701F490FE0DFF8B41A0A78152A18BF162A0AD1042139
:20134000026861F302020260002015490870164900F0C6BD182A19D049490978002902BF79
:20136000DFF8841B91F8B111002905D00E49097811B1464A102111700221026861F30202ED
:20138000026071BCB4E4D108C900016071BC7047A85F002092680020486E0020FA6B0020A3
:2013A000A0680020A55F0020A2680020A65F0020F76B0020046C0020DFF80817DFF82C0681
:2013C00091F8D829130011D1D0F81811C1F3015102294ED0D0F81821022161F31552C0F8B7
:2013E00018210020DFF86C1C087041E0012A14D1D0F8183162F31553C0F81831D0F81821BC
:20140000C2F38152012A34D0D0F81831012262F39753C0F81831012024E0022A11D1D0F8A6
:201420001831012262F31553C3F38152022AC0F818311ED0022262F39753C0F81831022059
:2014400010E0D0F81831012262F31553C0F818311A46C2F38153032B0BD042F44002C0F888
:2014600018210320DFF8EC2B107081F8D809132000E07047DFF8E01B087006F0E5BC00009D
:20148000FD6B002097680020A3680020450400202A6E0020286E0020744200203C6E002003
:2014A000396E0020496E002078B4DFF8B00B0078012802BFDFF8A80B0078082830D1DFF864
:2014C0003005006800F2B2604078FF2828D0DFF81C154FF480700844816921F470018161BB
:2014E0000168826921F460310160022161F3934282611146C1F30162032A00F0AE8141F077
:20150000407181610320DFF84C1B08701320DFF8481B08700020DFF8AC1581F8D8095DE12A
:20152000DFF8400B0078012802BFDFF83C0B007808282FD1DFF8B804006890F8B206FF28FF
:2015400028D0DFF8A8144FF480700844816921F4700181610168826921F4603101600121B2
:2015600061F3934282611146C1F38112032A00F0748141F0C00181610320DFF8D81A087077
:201580001320DFF8D41A08700020DFF8381581F8D80923E1DFF854144FF480700844026811
:2015A000D30B03F007035B1E032B00F25381DFE813F00400DC00F2001601DFF8782C12782B
:2015C000022A09D0DFF8702C1278012A02BFDFF89C2A1278012A0FD08169026821F4700112
:2015E0008161022161F3D13202600020DFF8681A0870DFF87C1A10E1DFF8EC271378152B29
:2016000018BF162B06D18169026821F4700181610321FCE08269182B05D122F470018161B2
:2016200004210268F3E0130D03F00303012B02D0022B6FD096E0096919B9022161F317522B
:20164000C1E0910D01F00301012904D05FD3032944D02AD35BE0DFF81C1A0978002900F007
:20166000FC80DFF8146ADFF8145A3678DFF85434DFF8E419DFF8DC49012E0AD110262E7099
:2016800042F4400282610320207083F8D8091320A3E010222A700222856962F317558561A5
:2016A0000020207083F8D80997E0DFF8C8190978002900F0D280DFF8C4291021117001216B
:2016C000826961F3975282610120DFF888190870DFF8F01381F8D80913207CE0DFF89419A7
:2016E0000978002900F0B980DFF89029102111700221826961F3975282610220DFF8541941
:201700000870DFF8C01381F8D809132063E022F4400129E0DFF85C190978002902BFDFF8E9
:20172000C81791F8B111002900F09780DFF84C29102111700121826961F31552826111464F
:20174000C1F38152032A00F0888041F4400181610320DFF800190870DFF8681381F8D8094E
:20176000132038E022F44011B5E3DFF8C81A0978022972D0DFF8C01A0978012902BFDFF884
:20178000EC180978012968D1DFF8F4180978002959D171BC7047DFF850160B78152B18BFEF
:2017A000162B5AD0DFF8901A0978012955D161F3D13281690260C1F3015102294DD0826990
:2017C000022161F3155282610020DFF888180870BC4981F8D809DFF8801808703FE0DFF8FD
:2017E0008C18097801290AD0022161F3D13202600020DFF864180870DFF874180DE0DFF8D2
:20180000E8150B78152B18BF162B07D1032161F3D13202600020DFF840185FE3182B1CD07B
:20182000DFF850180978002902BFDFF8BC1691F8B111002907D0DFF81C18097819B1DFF8DD
:201840003C28102111700121026861F3D132026071BCB1E522F46031016071BC704771BC51
:2018600006F0F2BA61494FF4807008448269930C03F00303012B06D0C0F0B380032B00F017
:20188000AF8050D3ADE0DFF8DC371B7823B1DFF8D8371B78082B0AD022F0C00141F4402129
:2018A00081610168C1F3C23102294FD17047930903F00303012B00F0978031D3032B09D061
:2018C0002ED2DFF870190978022900F08D8042F0C0015AE0DFF85C291278022A04D1826900
:2018E000022161F3871272E0DFF8FC241278152A18BF162A0FD0DFF874371B78162B1CBF9F
:20190000152B182A07D0DFF830291278012A02D10969002968D18269012161F3871256E0B2
:2019200022F0C0015FE0DFF834371B7823B1DFF830371B78082B18D022F0407141F44021A7
:2019400081610168C1F3C23102294DD00268022161F3D13202600020DFF8FC160870DFF8AF
:2019600010170870DFF8EC1635E0130E03F00303012B39D031D3032B08D02ED2DFF8B418DE
:201980000978022930D042F040717BE3DFF8A4281278022A08BF022116D0DFF84C24127860
:2019A000152A18BF162A0ED0DFF8C0361B78162B1CBF152B182A06D0DFF87C281278012AEF
:2019C00001D1096981B90121826961F3196282610020DFF884160870704722F0407102E065
:2019E00062E522F4402181617047000074410020C85C00203349DFF8180B91F8D829130064
:201A00000ED18169C1F30131022958D08269022161F30D3282610020DFF8381608704DE056
:201A2000012A0FD1836962F30D3302688361C2F30232022A43D00368022262F30E3303601C
:201A4000012035E0022A10D18369012262F30D3302688361C2F30232032A30D003680322AB
:201A600062F30E330360022022E0032A10D18369012262F30D3302688361C2F30232042A32
:201A80001DD00368042262F30E33036003200FE08369012262F30D3302688361C2F30232E2
:201AA000012A0CD00368012262F30E3303600420DFF8A025107081F8D8091320DAE4704756
:201AC00038FEFFFFC4340020F46B0020E25F0020E35F0020E45F00208540002078B4DFF82D
:201AE0007C050078012802BFDFF874050078082832D1DFF8200A006800F2B2604078FF28BC
:201B00002AD0DFF8142A4FF4807010440168826921F4E041016022F4405221F46061016065
:201B20008261022161F38B2282611146C1F30142032A00F0CE8141F4403181610320DFF87F
:201B4000141508701320DFF8101508700020DFF8CC1981F8D80983E1DFF80805007801281E
:201B600002BFDFF804050078082831D1DFF8A409006890F8B206FF282AD0DFF89C294FF4EE
:201B8000807010440168826921F4E041016022F4405221F4606101608261012161F38B2231
:201BA00082611146C1F38132032A00F0928141F4404181610320DFF89C1408701320DFF890
:201BC000981408700020DFF8541981F8D80947E1DFF844294FF48070104401684B0A03F07F
:201BE00007035B1E032B00F27181DFE813F00400020116013A01DFF83C361B78022B09D04B
:201C0000DFF834361B78012B02BFDFF860341B78012B12D021F4E04101608169026821F4F7
:201C200040518161022161F34B2202600020DFF828140870DFF838142FE16B4B1B78152B84
:201C400018BF162B07D121F4E0410160816921F4405181611AE1182B08D121F4E0410160DD
:201C6000816921F440518161042110E183691C0B04F00304012C03D0022C00F08F80B5E00C
:201C800012692AB921F4E04101601A460221DBE00A0B02F00702521E032A00F27C80DFE8AF
:201CA00002F0021B4C64DFF8CC130978002900F01081DFF8C823102111700421026861F32D
:201CC0000E3202600320DFF88C130870DFF84C1881F8D8091320C1E0DFF898231278002AA2
:201CE00000F0F780DFF89063DFF890533678DFF82C38DFF86423DFF85C43012E0DD11021FE
:201D000029700121056861F30E3505600420207083F8D80913201070A2E010262E7021F471
:201D2000E04101600221856961F30D3585610020207083F8D809107092E0DFF838130978F3
:201D4000002900F0C680DFF83423102111700221026861F30E3202600120BE490870DFF84A
:201D6000BC1781F8D809132078E0C2490978002900F0AF80C14A102111700321026861F338
:201D80000E3202600220B3490870DFF8901781F8D809132062E021F4E04199E0B54A127886
:201DA000002A02BF504A92F8B121002A00F09180B24B10221A7001228369C1F3023162F313
:201DC0000D330129836100F084800268012161F30E32026004209F490870DFF8401781F814
:201DE000D80913203AE000BFFC6B002023F4405171E0DFF84014097802296AD0DFF8381442
:201E00000978012902BF99490978012961D19C490978002953D171BC7047DFF8241C0B7866
:201E2000152B18BF162B54D0DFF80C14097801294FD1026861F34B2281690260C1F3013107
:201E4000022946D08269022161F30D328261002080490870DFF8C41681F8D8097E49087012
:201E6000FDE482490978012909D00268022161F34B2202600020784908707D490DE0DFF89F
:201E8000C01B0B78152B18BF162B07D10321026861F34B22026000206F491FE0182B18D001
:201EA00074490978002902BF0F4991F8B111002905D06849097811B1704A102111700121D7
:201EC000026861F34B22026071BC93E521F46061016071BC7047816171BC704708705D49D1
:201EE000087071BC70470000D43E0020DFF828164FF4807008448269930A03F00303012B13
:201F000006D0C0F0A380032B00F09F804AD39DE0544B1B781BB1544B1B78082B0AD022F4EE
:201F2000404141F4406181610168C1F34221022949D17047930B03F00303012B00F0898030
:201F40002DD3032B08D02AD2BA490978022900F0808042F4404151E0B64A1278022A04D16D
:201F60008269022161F38F3267E0DFF8D42A1278152A18BF162A0DD03C4B1B78162B1CBF2F
:201F8000152B182A06D0AC4A1278012A02D1096900295ED18269012161F38F324DE022F43C
:201FA000404155E02D4B1B781BB12D4B1B78082B15D022F4403141F4406181610168C1F315
:201FC0004221022945D00268022161F34B220260002021490870264908701E4930E0130C2F
:201FE00003F00303012B34D02CD3032B07D029D29049097802292CD042F4403142E08D4A98
:202000001278022A08BF022114D0DFF8342A1278152A18BF162A0CD0144B1B78162B1CBF3D
:20202000152B182A05D0844A1278012A01D1096979B90121826961F311428261002006494A
:202040000870704722F4403102E047E522F4406181617047A2680020A06800202A6E002062
:20206000286E00203C6E0020396E0020FA6B0020A55F0020FD6B0020A36800204504002054
:20208000496E002081610320DFF8C41A08701320DFF8C01A08700020DFF8801481F8D809F6
:2020A00005F0D2BE18B4DFF870144FF4807008440268D30803F007035B1E042B00F2238274
:2020C000DFE813F00500C70042011C021F0283691C0F04F00304012C06D0C0F0B780032CBD
:2020E00000F0B18050D3B1E0DFF86C4A247824B1DFF8084C2478082C03D0C16921F03001D3
:202100004EE0C269130903F00303012B00F0FE8137D3032B0ED034D246490978022900F06F
:20212000F58142F03001C1610320DFF8241A08701320D1E13F4A1278022A05D1C2690221AC
:2021400061F30512C261C6E1DFF8F4281278152A18BF162A0FD0DFF8283C1B78162B1CBFAE
:20216000152B182A07D0344A1278012A03D10969002940F0CB81C269012161F30512C2610D
:20218000A9E122F030015BE0DFF8F84B247824B1DFF8F44B2478082C10D0C16921F00C019E
:2021A000C16143F040518161016C21F010010164C2F38241022968D111BC7047C26993083D
:2021C00003F00303012B00F0A18137D3032B09D034D218490978022900F0988142F00C015C
:2021E000C16147E1134A1278022A05D1C269022161F38302C2616EE1DFF844281278152A07
:2022000018BF162A0FD0DFF8783B1B78162B1CBF152B182A07D0084A1278012A03D10969E9
:20222000002940F07381C269012161F38302C26151E100BF92680020486E002022F00C0108
:20224000C16111BC704711BCFEF7A2BB23F0405151E1B049096891F8A023012A27D183691E
:202260000268012161F3C502C3F301710329026006D043F040518161016C21F01001016491
:20228000C2F38241022900F041810268022161F3944202600020DFF8BC180870DFF8EC1AB0
:2022A0000870DFF8AC180870DFF8E41A16E162B90268032161F3C5028169026041F44071D1
:2022C0008161017801F007015BE0032A40F01E8191F8C313FF291BD10268042161F3C50256
:2022E0008169026041F440218161C2F3C231022900F00C81022161F3D13202600020DFF8F7
:2023000054180870DFF8841A0870DFF84418E5E00268052161F3C5028169026041F4406127
:202320008161C2F34221022900F0F080022161F34B2202600020DFF81C180870DFF84C1AF2
:202340000870DFF80C18C9E083691C0A04F00304012C06D0C0F0CD80032C00F0C78053D3C8
:20236000C7E0DFF8F447247824B1DFF890492478082C0AD09908890041F44071816102F0F5
:202380000701032954D111BC704703F00302012A00F0BC8035D3032A0AD032D2DFF8F4191A
:2023A0000978022900F0B28043F00301816161E0DFF8E0291278022A05D102211A4661F3B2
:2023C0000102826187E0DFF878261278152A18BF162A10D0DFF8A8391B78162B1CBF152BD4
:2023E000182A08D0DFF8B0291278012A03D10969002940F08B808269012161F3010282616D
:2024000069E09908890076E0DFF87849247824B1DFF874492478082C1CD0416921F040415E
:20242000416143F44071816102F0070103296DD00268032161F3020202600020DFF8141763
:202440000870DFF848190870DFF804170870DFF8401943E04269930F012B57D041D3032BB5
:2024600017D03ED2DFF82C19097802294ED042F0404141610320DFF8D81608701320DFF8C0
:20248000D41608700020254981F8D80911BC05F0DBBCDFF800291278022A08BF022116D013
:2024A000DFF89C251278152A18BF162A0ED0DFF8D0381B78162B1CBF152B182A06D0DFF809
:2024C000D8281278012A01D10969F9B90121426961F39F7242610020DFF87816087011BCB2
:2024E000704722F04041416111BC704711BCFEF77BBC23F44071816111BC704711BCFFF782
:20250000B1B911BCF2E422F03801016011BC704774420020C85C002074410020C434002077
:20252000F8B5DFF878484FF48A7025186868810801F00301012907D0C0F07D82032900F0C3
:202540002282C0F0248176E2686AC0F3003000285FD02868010F01F00301012902D0022962
:202560001FD053E0DFF8EC050078132802BFDFF83008407801284CD1DFF828080078082841
:2025800002BFDFF824080078012842D1DFF81C18102008700220296860F31D7129600120D2
:2025A00030E0DFF800080078082825D1DFF8A405007808B3DFF8C807007801281CD1DFF8D0
:2025C000E007407804F11006012837680DD100203060686AC0F3403008B1FFF763FDDFF820
:2025E000CC1737601020087006E0012F04D0DFF8B807007801280CD02968012060F31D7129
:2026000029600020DFF8A817087002E020F040502860686AC0F3C030002800F00F8268680B
:20262000810E01F00301012906D0C0F0AD80032900F09A8039D3A7E0DFF87817097851BB7D
:20264000DFF86C17097800291EBFDFF808150978002920D0010901F00301012902D00229E5
:202660000DD01FE0DFF8501791F8B011002900F0E581DFF848170978FE290CD13CE0DFF8C9
:20268000381791F8B011002900F0D881DFF8B0130978FD2940D0DFF82817084040F00060F0
:2026A0006860C3E120F03000C7E1DFF80C1791F8B011002900F0C281DFF8EC1609780129A2
:2026C00002BFDFF8EC261278012A02BFDFF884241278132A26D1DFF8E4261278182A21D0FF
:2026E000FE2A0FD16968012060F39B61C1F301100228696000F0A2816968022060F305116A
:20270000696094E16968012060F39B61C1F301100128696000F092816968012060F3051125
:20272000696084E1012902BFDFF884160978002902BFDFF820140978132940F07F81DFF8D5
:202740007C160978182900F0798140F04060686004F11001002088600320DFF8241D0870E2
:202760002020DFF8481664E1DFF86C1C0968B1F9CC1304F1100001EB81028068510089B25E
:202780008842C0F05B8124E120F0406055E1686AC0F3004000284CD0A868810901F0030160
:2027A000012902D0022916D040E0DFF8A8030078132802BFDFF8E8054078012802BFDFF8B9
:2027C000E4050078082834D1A968022060F38711A960012026E0DFF8CC05007808281BD1D9
:2027E000DC480078C0B1DFF898050078012813D1DFF8AC05407804F110060128376809D1E6
:2028000000203060686AC0F3403008B1FFF74AFC376001E0012F0CD1A968012060F387117C
:20282000A9600020DFF88815087002E020F0C000A860686AC0F34040002800F0FF80A8681D
:20284000010A01F00301012906D0C0F09880032900F0868034D392E0DFF85815097839BB5C
:20286000DFF84C15097800291EBFBA49097800291ED0810A01F00301012902D002290CD07B
:202880001BE0DFF8340590F8B001002800F0D6806B480078FE280BD132E0DFF81C0590F8C7
:2028A000B001002800F0CA8065480078FD2837D0A968022060F30B21B7E020F4406060E077
:2028C000DFF8F41491F8B011002900F0B780DFF8E0140978012902BF9E4A1278132A25D1A3
:2028E000574A1278182A21D0FE2A0FD1A968012060F30921C1F381200228A96000F09E802D
:20290000A968022060F38B21A96090E0A968012060F30921C1F381200128A96000F08E80D8
:20292000A968012060F38B21A96080E0002902BF88490978132940F0818041490978182908
:202940007CD040F44070A86004F11001002088600320DFF82C1B08702020DFF8501468E0B5
:20296000DFF8741A0968B1F9CC1304F1100001EB81028068510089B288425FD351E020F4CF
:202980004070A860F1BDDFF8500A006890F81E18FF2924D06968012060F38301696029683B
:2029A000686AC1F3017140F480500129686208D02A68012161F31D722A600021DFF8F02323
:2029C000117040F4004068626868C0F38160022834D06968022060F39B61696026E090F80D
:2029E000A003FF282AD06968022060F383016960A968686AC1F3811140F48030012968627F
:202A000007D0AA68012161F38712AA600021E84A117040F400306862A868C0F301200228A4
:202A20000CD0A968022060F30921A9600020DFF8501A0870F1BD20F00C006860F1BD0000E8
:202A4000FC6B0020F0B4D548DFF838CA00F110014FF0FF320A604FF480720244936B956902
:202A60001468D66923F40053936325F0405523F490439363956123F40043936325F04045D1
:202A800023F480539561936324F0380423F40033146024F4E0179363176026F03C060CEA88
:202AA00007074FF0000CA0F868C0176027F46037DFF8D4C91760B408D661A400DFF8CC6946
:202AC000D4612E4096610CEA0606966127F46067DFF8BCC9556917600CEA0606966125F0E2
:202AE000404526F440565561966125F0706526F00C065561966124F4706427F4E0470026E1
:202B00008E6023F48031916325F0405521F480619163D4614FF4E171084424F0C003068004
:202B2000176096615561D361106C0A4920F0100010640E70DFF848190E7005490E709C49F5
:202B40000E7092490E7092490E70F0BC70470000A2680020A06800203C6E00202DE9F84F69
:202B60008E4D4FF4CE702C18DFF8280921780278914280418A49C00F087005F11009DFF806
:202B80001809627803789A428041C00F4870DFF80C09A37C02789A428041C00F88704FF66D
:202BA000FF714FF0FF30C9F80000B5F8680088421CBF401CA5F86800D9F8080010F1010F71
:202BC0001CBF401CC9F808004FF480702E18B06BC0F38021A1BB3168C1F3C20140F410500D
:202BE0000229B0630BD03268022161F3C50232600021DFF8AC281170DFF8A828117040F4A9
:202C00008040B169B063C1F38102032A08D041F00C01B1610021664A1170DFF86428117005
:202C2000C0F3C02100295AD140F40060B0634FF4E1702F18314800783870534800784DE051
:202C4000C0F3403008B1FFF72DFAB06BC0F3803008B1FFF765FCB06BC0F3C02000283ED009
:202C6000DFF874A7DAF8000090F8B206FF2819D04FF4E170DFF884B02F189BF80000397816
:202C800088420FD0D9F800800120C9F80000B06BC0F3803008B1FFF743FCC9F800809BF818
:202CA00000003870DAF8000090F8B306FF2816D04FF4E1702F18344D7978287888420ED0B7
:202CC000D9F800800120C9F80000B06BC0F3803008B1FFF725FCC9F8008028787870DFF8D3
:202CE000B40700782070DFF8B00700786070DFF8AC070078A074BDE8F18F0000396E002039
:202D000030B4264A4FF4A27010440025016B21F08063036323F080430169036321F03C04D4
:202D2000046102F1620124F440644D8023F000530461036324F440740568046123F0C0535A
:202D40002D0903632D01056024F0C00423F0007302F2BF12046103630025174895708D80C0
:202D6000157055700D80A0F88C504FF4D7710844DFF8081D05800820887130BC70470000EC
:202D8000FA6B00202A6E0020286E0020A55F0020A65F002092680020486E00207441002032
:202DA00084400020FB6B00209768002045040020A3680020FD6B0020D43E0020F76B0020BA
:202DC000CFFFFFF32DE9F04FDFF80C96DFF81C1CD9F800004FF4E063184485B001F1220258
:202DE0000378B2F80080FF2B00F0D582DFF800AC9AF80030012B40F0CE82DFF8F83BDFF8EB
:202E000080BC019301F162044FF4A273CE1891F8ED3101F2BF15B3BB336B23F08063336346
:202E2000336923F03C03336100236380336B23F080433363336923F44063336133681B0957
:202E40001B0133600023AB70336B23F00053336323F0C053376927F440773761336327F00E
:202E6000C00333610023A380336B23F00073336300232B706B702380019F7B80ABF8003051
:202E8000012381F8ED3103ABB2F90210DFF8F47B0FFA88F2891A0AB2002A48BF4942ADF883
:202EA0000A100021ADF810104FF47A71ADF81210407879883A88FF2807BFADF80C105A801A
:202EC000ADF80C2059800120009004ABDFF8B80B028803A902A805F08BF860884FF6FF7159
:202EE00088421CBF401C6080A08888421CBF401CA080A8781F283CBF401CA870306BC0F384
:202F0000406151BB40F0085030630221326961F30922326140F0806030631146012060F3AB
:202F20008301316100208BF801002870022060F30511316141F0C001306B40F00060306372
:202F4000316140F0804008218BF8001030630220316960F38B21316108E23069C0F30120FC
:202F600001281EBFDFF8240B90F8E501002830D03169012060F309213161387B082818D119
:202F80007988388888423FBFD9F8002002F20672D38899420DD2138983420AD2081A208037
:202FA00080B2918952898B189842BCBF511A81420BDB17203873D9F8000000F20672108829
:202FC00078805088388004F03FFF306B40F0805030633069810801F00301012902D00229CB
:202FE0003CD058E09AF80210022918BF032905D13169032060F38501316149E029780429C6
:203000000FDB3169022060F3850131612020DFF8801A0870387B68706320387304F014FFB6
:2030200043E0C0F301100128DFF85C0A008808D1B0F5ED7F39D83169022060F30511316109
:2030400033E040F20E2188422FD33169012060F3051131612878401C287026E09AF803103B
:20306000082904BF9BF80010082905D19AF80210022918BF032905D16878387304F0E4FEA9
:20308000306902E0397B63290FD040F00C0030610020608009E0D9F800106088B1F80A174D
:2030A000884224BF00208BF801003069810901F00301012902D0022931D01DE0D9F80010A1
:2030C000BDF80A2001F202714B889A4202D33A7B082A04D040F0C0003061082009E0A088B2
:2030E000098888421BD33169022060F3871131611C208BF8000012E0D9F80000BDF80A10FD
:2031000000F202704088884209D2387B082806D13169012060F3871131610020A080306913
:20312000C0F381200128387B40F00881172818BF082826D1306800F00F01052902D00629A2
:203140000CD015E0D9F8000000F20270408AA8EB0000788004F078FE306809E0D9F8000058
:2031600000F20270408A4044388004F06DFE30680009000130600220316960F38B21316107
:20318000F4E0307800F00F00401E072800F2AB80DFE800F0F0F0040A14497C87A8781428A9
:2031A000C0F2E880052075E03168032060F3030131600020A8704FF47A70D9E0D9F80000E8
:2031C00000F20271488940451BDA01208BF80100488AA8EB0000788004F036FE316801205B
:2031E00060F30301316000200199488017203873D9F8000000F20670018879804088388048
:20320000B1E0A8780A28C0F2B580488AA8EB0000788004F019FE3168072060F303013160D4
:203220000020A870A4E0A8780A28D9F800000CDB00F20270408A4044388004F005FE3168CE
:20324000082060F30301316094E000F202718889804580F28F8002208BF80100488A404432
:20326000388004F0F1FD3168012060F30301316000200199488017203873D9F8000000F2EB
:20328000067001887980408838806CE0A878142870DB0620316860F3030131600020A870E4
:2032A00068E078883988814215D303208BF801000120316860F3030131600020019948808F
:2032C00017203873D9F8000000F2027188887880C888388047E03368092262F303033360EB
:2032E000401A208046E0D9F80000238800F20271088ACA8984189C42A4BF101A834211DA31
:2033000004208BF801000120326860F3030232600020019A50801720387388887880C8889B
:20332000388020E03168022060F303013160082038732020DFF85817087014E0632815D1FC
:203340003269012161F38B2232610421326861F3030232600021019A51802021DFF8302776
:2033600011706870387304F06FFD03E0BDF8080001994880019801994088088005B09BF81C
:203380000000DFF8F81688719BF80100DFF8C41C0870BDE8F08F91F8ED0170B1DFF8EC26E7
:2033A0000020A2F88A000820DFF8D02690710020DFF8A02C107081F8ED0105B0BDE8F08F50
:2033C000DFF8C816DFF82406B1F888104184DFF8881C098881847047C85C0020DFF80C162C
:2033E00010B401F1FC00C26B8369046822F48072C26323F4401322F02002C263836122F0B0
:203400008002C26324F06054046023F4404322F400728361C263002423F4402322F01002EC
:203420004C618361C26322F04001C16323F44003836121F00801C16323F44053836123F43E
:20344000403221F004018261C16322F44062DFF8881B82610C70DFF8341681F8AD41DFF8ED
:203460007C1B0C70DFF8781B0C70DFF8781B0C70DFF8741B0C70DFF8E41B0C7010BC7047B6
:20348000A168002038FEFFFF3FFFF3FCFCFCFFFFFF330CFF1D6E0020FE6B00200A6C0020A5
:2034A000A0680020A268002030B4DFF84015486910F1010F1CBF401C486101F1FC00C26BED
:2034C000C2F38003002B54D142F01402C2630122836962F30D3300224A6183610021DFF8AA
:2034E000F82A1170012262F38B23C16B836141F00801DFF8E83AC16300221A7001228369E1
:2035000062F38F33836141F02001DFF88035C163002283F8AD210122836962F311438361A7
:2035200041F04001DFF8B83AC16300221A700122836962F39343836141F08001DFF8A43AFB
:20354000C16300221A700222836962F31553836141F48071DFF8903AC16300221A7041F41E
:203560000071C1630121826961F397528261002036E28269130B03F00303012B02D0022B24
:2035800021D045E0DFF8D83A1B684FF4787423449C78FF2C3CD0DFF8CC4A1B8824889C42AE
:2035A00005D2022161F30D32826108212DE0496901EB8104610099422AD3DFF8AC1A0978EB
:2035C000012925D11DE0DFF8A41A097802291FD0DFF8941A097801291AD1DFF8843ADFF817
:2035E000841A1B680988B3F8E033994210D3DFF8801A0978082902BFDFF8781A097808299E
:2036000006D142F4405181610421DFF8CC29117081698A0A02F00302012A02D0022A10D03A
:2036200035E0DFF83C1A0B6893F81E15012918BF04292CD18269022161F38B2282610821D1
:2036400022E0DFF8282A1278022A20D0DFF8182A1278012A1BD1DFF8083ADFF81C2A1B6826
:20366000128803F21E535B889A4210D3DFF8002A1278082A02BFDFF8FC291278082A06D19B
:2036800041F4406181610421DFF85029117081698A0B02F00302012A02D0022A2AD058E0AB
:2036A000DFF8BC2913684FF4A86213441A78FF2A4FD0DFF8C829DD881288AA4206D28269DF
:2036C000022161F38F32826108213FE0DFF89C499B8824789A4201D3012C01D0032C38D126
:2036E000DFF884391B78012B33D14FF6FF739A421ED12EE0DFF870291278012A29D1DFF8ED
:20370000602913684FF4A8621344DFF870299D881288AA4204D3DFF854492478012C07D0FB
:20372000DB889A4215D3DFF844291278032A10D1DFF8E82B1278082A02BFDFF8E42B1278AF
:20374000012A06D141F4404181610421CF4A82F8AD1181690A0C02F00302012A02D0022A39
:2037600019D03DE0DFF8BC1B91F8F81901291EBFDFF8B41B0978002932D0DFF8E41809685E
:2037800091F80016FF292BD18269022161F311428261082121E0DFF8D4281278022A1FD02C
:2037A000DFF8C4281278012A1AD1DFF8B438DFF87C2B1B681288B3F858339A4210D3DFF87C
:2037C000B0281278082A02BFDFF8A8281278082A06D141F4403181610421DFF80428117029
:2037E00081698A0C02F00302012A02D0022A0ED034E0DFF86C18096891F80016FF292DD0A7
:203800008269022161F393428261082123E0DFF85C281278022A21D0DFF84C281278012A60
:203820001CD1DFF83C38DFF8082B1B6812884FF4C06423445B889A4210D3DFF834281278FC
:20384000082A02BFDFF82C281278082A06D141F4402181610421DFF88C2711708169C1F371
:20386000015101296BD10168C90E01F00701012904D051D303293DD02CD34DE0DFF8E01702
:20388000DFF8B02A0B6812884FF4C0611944CC88A2424DD3DFF8D4371C78032C04D0012CAB
:2038A00008D189888A4205D30268042161F3DD62026056E0DFF8B0170978012902BFDFF8DF
:2038C000B0170978082946D1DFF8A817097808294AD040E0DFF890170978012902BFDFF815
:2038E00090170978082902BFDFF88817097808293AD10BE0DFF86827DFF8381A12680988F6
:203900004FF4C0631A44D28891422DD30268012161F3DD62026027E0DFF84427DFF8141AE7
:20392000126809884FF4C0631A44D28891421BD20268032161F3DD620260082111E0DFF82A
:203940002017096891F80016FF290DD08269012161F3155282610221026861F3DD620260EE
:203960000021DFF88426117081698A0D02F00302012A03D0022A0FD030BC7047DFF8E01633
:20398000096891F8A017FF292DD08269022161F397528261082023E0DFF8D0261278022A75
:2039A00021D0DFF8C4261278012A1CD1DFF8B036DFF82C2C1B6812884FF4F46423441B8904
:2039C0009A4210D3DFF8A8261278082A02BFDFF8A4261278082A06D141F440018161042056
:2039E000DFF87816087030BC7047000074410020FA3F00205E3F002030B4DFF8E80B00F1BD
:203A0000FC018A6BCB6B0C688D6922F080428A6323F00203CB6322F000428A635B085B000E
:203A200022F0005224F0E064CB638A630C6025F440758D6125F0FC039A088B6124F4600469
:203A400092000C608A6100F15E0100220A8000F2BD104A8002704270DFF88C1B0A70DFF805
:203A60008C1B0A80DFF8881B0A70DFF8881B0A70DFF8841B0A8030BC70470000C445002061
:203A8000824000201A370020FA5F0020D43E0020450400202DE9F843DFF8600BDFF8607B7A
:203AA000026839881323684604F07AFBDFF8540B0068BDF80010DFF82C9B30F8110009F15A
:203AC000FC05A96BC1F3407242B941F00050A8630220A96960F30101A961A4E12A7E02F032
:203AE0000302012A40F07581DFF8FC8ADFF87065642188F800104FF4E462DFF80C1B91F842
:203B00002A116429B8BF88F8001031688B181A78FF2A08D009F2BD1298F900401278A242FE
:203B2000B8BF88F800209A7A012A08D198F90020DFF8D83A5043A0FB0332900901E098F94E
:203B40000000DFF8B42ADFF8C83ADFF8C0EADFF89C4A1080DFF8BC0A1B88008898F9002090
:203B60001B1A5343A3FB0EEC00EB9C1020802868400D00F00700012804D013D303280BD0EE
:203B80000ED30FE0642A04D12968022060F35751296004F062F90CE091F84005FF2808D0B3
:203BA000042002E0642A04DA0120296860F357512960A869810801F00301012902D00229A7
:203BC00011D03CE098F9000064286EDA32682188B2F8BA2538885118884266DBA96907204A
:203BE00060F3850134E0DFF8081A0A780F2A12D098F90020642A07D03A8837682388B7F871
:203C0000BA75FB189A4206DA20F0CC0040F00400A861082045E0C0F38110012845D137681E
:203C200009F15E0007F2BA570388BF88BB423AD3AA69022060F38712AA610F2031E0DFF803
:203C4000B0190A78192A08D1A969122060F387010020A961A9F85E0027E098F90020642A6F
:203C600008D032683B88278802F2BA5214882744BB4206DAAA69012060F38502AA6108203B
:203C80000FE0C0F3011001280FD109F15E0052880388934207D3AA69022060F30512AA6152
:203CA0001920087001E0591C01802868000E00F00700401E03282FD8DFE800F002B90919C3
:203CC000DFF8A8030078022807D1BDE8F183306890F82007FF2800F0AA802968052060F33E
:203CE0001A612960002009F2BD11487064E03268DFF83C1C09784FF4E46010444279914228
:203D000000F095802A68022161F31A622A60807989F8BD011C2087E0DFF8140C0078FF281E
:203D200005D0A86920F44070A86104201EE009F2BD125178042910DBA869296820F440709D
:203D4000A861022060F31A6129604FF4E46130680844807910701C2066E0C44800780228CC
:203D6000A86909D120F44070A8610120296860F31A612960BDE8F183C0F30120012814D187
:203D8000DFF8B00B0078082802BFDFF89405007801284CD1A969022060F30921A96100201F
:203DA00009F15E014880BDE8F18309F15E004388B42B0AD3481C50700120A96960F3092116
:203DC000A96104F089F8BDE8F183591C4180BDE8F183A348006890F84005FF2827D0AA69AB
:203DE000012060F3010241F04040A86303202968AA6160F357512960012161F38302E86BFF
:203E0000AA6140F00100DFF8E827E8630821117040F00200E8630320296860F31A61642008
:203E2000296089F8BD010820DFF8C8170870BDE8F18370B5DFF8EC04DFF8CC4790F8062ABD
:203E4000DFF8F41ADFF8F45ADFF89837032A0CD1D3F8FC60042262F39446C3F8FC602A707B
:203E600003220A7080F8062A2AE0042A0CD1D3F8FC60012262F39446C3F8FC6002222A7098
:203E800001220A70042119E0052A0BD1D3F8FC60022262F39446C3F8FC602A7003220A7092
:203EA00005210BE0D3F8FC60032262F39446C3F8FC6004222A7001220A70022180F8061A47
:203EC00003F0C2FF94F8FD0108B10020287070BDDFF83427DFF80C1702F2FD1092F8172117
:203EE0009AB1DFF8402492F8062A062A09DAD1F81031012262F31143C1F8103100214171CC
:203F000097E7DFF83C3A01221A700222D1F8103162F311430022C1F8103181F8BC210422BA
:203F2000DFF8181ADFF8103A0A7000221A70007800B10A70704770B5DFF8E803DFF8F849D8
:203F400090F8061ADFF8F459DFF8982608290FD1D2F81031022161F31553C2F810310321E6
:203F6000297001212170082180F8061A01F0B8B80929DFF8946616D1D2F81031012161F368
:203F80001553002182F8BC11C2F810310221297001212170092180F8061A03F055FF96F850
:203FA000FD01B8B138E3D2F8101141F44011C2F81011002182F8BC11032129700421217058
:203FC000072180F8061A03F03FFF96F8FD0108B10020207070BD00009A6800209B68002089
:203FE0009C6800209D6800209E680020DFF81826DFF8F01502F2FD1092F8172192B1C94A48
:2040000092F8062A062A09DBD1F81031012262F39343C1F81031002141718CE7DFF820390A
:2040200001221A700222D1F8103162F393430022C1F8103181F8BC210021DFF80029117066
:204040000422DFF8F4180A70007808B10020087070470000A45F0020E65F00209F680020AE
:20406000C85C0020C66D0020486E002092680020A6680020A7680020CA6D0020D26D0020A6
:20408000F8B5DFF88405DFF85C5500F2FB1490F81701B0B9A349DFF8A06881F8060A03F03A
:2040A000D3FED5F81011022060F39541C5F810110020DFF8881885F8BC010870042030700B
:2040C00015E1DFF8D00C0078D5F81011042817D1DFF8C40C084040F08050C5F810010020E0
:2040E000DFF858180870DFF8501808700120DFF85018087000208B49E07181F8060AE2E0E2
:20410000080D00F00300012802D0022834D09FE0607930B1DFF8E01C3020087001202072E7
:204120005CE0A179DFF8D40CE1B101210170DFF808682178DFF804787A4809B11021B1E0DC
:20414000D5F81021012161F31552002185F8BC11C5F810210221397001213170092180F8FA
:20416000061A50E00170A078002800F0D080DFF8CC1700200870CAE06079F0B1DFF8802C05
:20418000012010706078002846D0DFF86C2CDFF8A8671020107041F44010C5F810010020F0
:2041A00085F8BC010320DFF8941708700420307007205C4981F8060A97E0A07900283FD0C8
:2041C000A07800283CD1DFF8341C01200870207810B3DFF8241C202008700120D5F8101199
:2041E000DFF8587760F31551002085F8BC01C5F81011022038700120DFF83C170870092072
:20420000484981F8060A03F01FFEA078002800F0848000203870F1BDD5F81011022060F367
:204220001551C5F810110320DFF8101708700120DFF80417087008203A4981F8060A42E0C0
:20424000DFF8B81B00200870DFF8B41B0870F1BDA079C8B1DFF8A02BDFF8DC663020107033
:204260000120207241F44010C5F81001002085F8BC010320DFF8C4160870042030700720A7
:20428000284981F8060A30E06279DFF8740B9AB301220270DFF8A0666278DFF8A0762148F4
:2042A000AAB12021DFF8502B11700221D5F8102161F31552C5F81021032139700121317035
:2042C000082180F8061ABDE8F14003F0BDBD41F44011C5F81011002185F8BC11032139703E
:2042E00004213170072180F8061A03F0ADFDA07898B100203070F1BDDFF8002B0021117028
:204300000170A07818B1DFF830160020087095F8BC010A2824BF00202072F1BD996B0020B3
:204320009B6B0020C4340020496E0020C46D0020E46D0020E26D002070B5B348A94E00F22E
:20434000FB1490F8170106F1FC05D0B9DFF8441B81F8060A03F078FD2868696920F4E010A0
:204360002860022060F311410020696186F8BC010420DFF8C855DFF8C015287000200870D5
:20438000FEE02868810C01F00701012905D0C0F0AE8003296AD02FD3A9E0607968B1DFF892
:2043A000F4090078082808D1DFF8541A012008706078002840F0C0800FE0A079002800F011
:2043C0000281A078002840F0FE80DFF8301A012008702078002840F092802968012060F3AB
:2043E000944129600220DFF85455DFF84C152870012008700420BDE0A17961B1A17851B944
:20440000DFF8F81901200870207808B3DFF8E81910200870A2E06179002900F0B480DFF8C8
:20442000E01901200870607890B1DFF8CC19102008700120296860F3944129600220DFF811
:20444000FC54DFF8F414287001200870042091E02968022060F394412960DFF8E054DFF821
:20446000D814287003200870052083E0A079D0B1A078C0B9DFF8841901200870207838B3DA
:20448000DFF87419202008700120296860F3944129600220DFF8A454DFF89C14287001206C
:2044A0000870042066E06079002800F08C80DFF8E4080078082840F08680DFF84419012027
:2044C0000870607820B1DFF830192020087045E02968032060F3944129600420DFF85C54AE
:2044E000DFF85414287001200870022042E06179C1B1DFF80C1901200870607870B3DFF855
:20450000F818102008700320296860F3944129600420DFF82854DFF82014287001200870CB
:20452000022027E0A17971B3A17861BBDFF8CC1801200870207888B1DFF8BC182020087057
:204540000220296860F394412960DFF8F053DFF8E81328700320087005200BE02968042013
:2045600060F394412960DFF8D453DFF8CC13287003200870DFF81C1981F8060A03F064FCBB
:20458000A07860B348E0DFF80C18097804291AD120F4E0102860DFF82C1B6869084040F041
:2045A000805068610020DFF894130870DFF8881308700120DFF8881308700020DFF8D41874
:2045C000E07100F08BBDDFF8341800200870DFF830180870A07810B1D8490020087070BD41
:2045E000E66D002074410020A05F0020EA5F00209868002099680020EC5F0020905D002032
:20460000B4680020945D0020D43E00203E0AD7A3D46D0020D66D00200020287070BD30B4CC
:20462000DFF8A40A0078012802BFDFF8A00A0078012804D1DFF8980A0078022824D1DFF8B5
:20464000443D03F1FC004269C2F30171012922F04051416106D0026822F4E01221F47C11BE
:20466000026041614169DFF86C4AB54A41F4404141610020B1490870AF49087004F2FB11A4
:20468000C8711070087251E0DFF8F83CDFF8444A03F1FC0004F2FB114269150F05F0030588
:2046A000012D02D0022D47D0B4E00B79002B3CD0DFF8243A1B78012B02BFDFF8D84624781F
:2046C000082C10D1DFF8384723704B783BB3DFF82847132323700123CB710021984B19702F
:2046E00042F0405148E0002B02BFDFF8A8261278082A1AD1DFF8043701221A700A7872B133
:20470000DFF8F43613221A700122CA7100218C4A11700221426961F31D72426192E0436991
:20472000012262F31D73436192E00020DFF8CC160870DFF8CC1605E10D792DB3DFF898593D
:204740002D78012D02BFDFF84C562D78082D1BD1DFF8AC460123237003684C7823F4E013CD
:204760006CB1DFF8945613242C700124CC7122F44031036041F04051416130BC36E403606F
:20478000DFF840391A4060E0C2F30142012A01D130BCD1E58A79002A04BF4A79002A1BD0D0
:2047A000DFF854463022227001220A72CA710222446962F311444461002083F8BC0104222C
:2047C0005E485D4B027000221A708978002900F0AD80027030BC704794F817214AB14369A6
:2047E000012262F3114343610020C87130BCFFF720BBDFF8082600201070DFF8042610700D
:204800004F4A10708878002800F086804B4A0020107081E00D7955B3DFF8BC582D7835BBBD
:20482000DFF8D84501232370DFF86C351A400B785BB1DFF8C445132323700123CB7142F031
:204840000051416130BCFFF743BB42F08052426100203A4A1070384A10700120384A107095
:204860000020C871DFF82C1681F8060A45E2C2F38142012A02D130BCFFF702BC8A79002AD3
:2048800004BF4A79002A07D0DFF86C453022227001220A72CA711EE0CA78002A1CBF94F87A
:2048A0001721002A2AD0DFF8EC241278082A25D1DFF84845012222700A784AB1436901229E
:2048C00062F3934343610020C87130BCFFF733BB1B4C012222700222446962F39344446122
:2048E0000020164A83F8BC0110700422124802708978D9B10021017030BC7047DFF8FC24D7
:2049000000201070DFF8F82410700D4A1070887810B1094A0020107093F8BC010A2824BF9C
:2049200000220A72C82824BF0020C87130BC7047316E00208C6800209768002096680020FA
:20494000046C0020087030BC7047DFF8381A10B401F1FC000268D20B02F00702012A06D08E
:20496000C0F04C81032A00F01D811FD346E10368022262F3D133DFF85C27036092F817217F
:20498000002A40F0B1804369022262F39753436101F2BB11002048700420DFF8702A10702D
:2049A0000020DFF86C2A1070012064E1DFF818271278012A02BFDFF814271278012A04D15C
:2049C000DFF80C271278022A19D14169DFF8442A114041610321026861F3D13202600020E4
:2049E000DFF8281ADFF8EC26087002F2FB12DFF8201A08701072D071DFF800143BE143693D
:204A0000DFF8D026C3F38154012C6AD192F817419CB9DFF8002A1A4042F40002426101F276
:204A2000BB11002048700420DFF8E02910700020DFF8DC29107001201DE102F2FB129478A6
:204A40007CB1DFF8D049234043610423046863F3D13404600023D3710022DFF8A0331A7023
:204A60000FE1C3F30123012B93791FD1002B35D0DFF88843012323701378002B41D0DE4CCA
:204A8000102323700223446963F3092444610420DFF8783918700120DFF8743918700220D3
:204AA00081F8BB010020107210BC7047B3B1D34C0123237012789AB3CF4B20221A70012282
:204AC000436962F3092343610220DFF8402910700120DFF83C2910700420DEE00020C74934
:204AE000C9E092F817318BB34369012262F3975343610022DFF82039DA7191F8BB21042A1B
:204B00000ED14369012262F3092343610220DFF8FC2810700120DFF8F82810700420BCE0CD
:204B20004369022262F3092343610420DFF8DC2810700120DFF8D8281070022081F8BB0132
:204B40000020DFF8D418087210BC704702F2FB1201F2BB119379B3B1A74C30232370012348
:204B60001372D3710222436962F397534361002048700420DFF8942810700020DFF89028FB
:204B80001070012077E09D4B0020187048780A2824BF00211172C828C0F081800020D07112
:204BA00010BC7047DFF820251278012A77D1DFF820251278022A72D0DFF810251278012A84
:204BC0006DD1DFF8442C1278002A68D0DFF8042502F2FB12137833B10268012161F3D13211
:204BE000026010BC70470468042363F3D13404600023D3710022814B1A7042E0DFF8C824BA
:204C00001278012A02BFDFF8C4241278012A04D1DFF8BC241278022A17D14169026821F05B
:204C200040614161032161F3D13202600020DFF8DC17DFF8A024087002F2FB12DFF8D01798
:204C400008701072D0716D4915E04369DFF88424C3F38163012B11D192F81711F9B1426994
:204C6000022161F39B6242610020DFF8A01708700120DFF89C17087010BC704792F817218F
:204C80006AB94369012262F39B6343610020DFF87C271070DFF87827107081F8BB0110BC1A
:204CA000704730B47B48DFF8681790F8064ADFF85C27DFF8D036032C0DD1D3F810510224D2
:204CC00064F39F75C3F810510423137003220A7080F8062A11E0D3F81051012464F39F75AF
:204CE000C3F81051042313700C700021DFF8E42382F80212022180F8061A30BC03F0A4B8EF
:204D0000F0B4DFF8D043DFF8080794F81711DFF8FC26DFF8C83B71B35E4991F8065A062DB1
:204D200025DAD3F81071012666F31967C3F810710026032D84F802620CD102243D4664F3D9
:204D40009F75C3F81051042313700322027081F8062A0BE001243D4664F39F75C3F810511F
:204D6000042313700470022081F8060A94E0DFF8704B012121700221D3F8104161F31964A1
:204D8000002183F8BC11C3F8104104211170002185E000009A680020FFFFC3CF30B43D4857
:204DA000DFF86C1690F8064ADFF86026DFF8D435082C0BD1D3F81051012464F38715C3F876
:204DC0001051032313700C70082111E0D3F81051022464F387150024C3F8105183F8BC4136
:204DE0000323137004220A700721BA4A82F8024280F8061A81E7000045040020026C002089
:204E0000036C0020F0B4B34CDFF8040694F81711DFF8F825DFF8C43A79B31E4991F8065A86
:204E2000062D26DBD3F81071012666F38B27C3F810710026082D84F802620AD101243D46C6
:204E400064F38715C3F8105103231370047008200CE002243D4664F38715C3F8105183F8DF
:204E6000BC610323137004220270072081F8060A12E0DFF86C4A012121700221D3F81041B3
:204E800061F38B240021C3F8104183F8BC111170042104E0C4340020F0BC02F0D5BF017055
:204EA000F0BC704770B58B4901F2FB100279CAB1894A1278B2B9DFF82C2A01211170017891
:204EC00089B3DFF8242ADFF8BC44132111700121C171D4F8100120F4735040F40050C4F89D
:204EE00010019BE2DFF89C44D4F81021C2F38123012B40F0948091F8171179B9DFF8EC19E8
:204F0000002081F8060A02F09FFFD4F8100120F44C6040F40060C4F81001B3E0DFF8D01907
:204F2000097804291AD1DFF85C44DFF8E024D4F8101121F4735141F48051C4F810110021BC
:204F40001170DFF8CC2411700121DFF8942911700021C1710020DFF8941954E0C2F38112DE
:204F6000012A4279DFF88C1921D1DAB101220A704578DFF89C24DFF89434DFF8701925B18C
:204F8000DFF86469102535702DE0D4F81051012060F38715C4F810510320187001201070E0
:204FA000082030E0DFF83C290020107072E05AB301220A704578DFF85824DFF85034DFF89F
:204FC0002C1985B1DFF82059202028700120D4F8105160F38715C4F8105103201870012008
:204FE000107008200FE0D4F81061022565F387160025C4F8106184F8BC5103241C7004230C
:205000001370C571072069E0DFF8D8381A700A7094F8BC110A2953D30021017270BD42794E
:205020003AB1DFF8C4283021117001210172C17121E0C278002A1CBF91F8171100292BD014
:20504000DFF8AC180978082926D1DFF8982801211170017859B1D4F81021012161F38B222F
:20506000C4F810210021C171BDE8704096E6DFF87018012008700220D4F8101160F38B2119
:20508000C4F810110020DFF8841384F8BC0108700420DF49087070BDDFF84828002111701A
:2050A000DFF850281170DFF83828117094F8BC110A2924BF00220272C82924BF0021C1713C
:2050C00070BD0000FFFFFCCFFA6B0020486E002092680020D43E0020256E002081F8060AF7
:2050E000BDE8704002F0B0BE70B5DFF80C080078012802BFDFF804080078012804D1DFF859
:2051000000080078022829D19E4CDFF8F827D4F81011C1F3013001280EBF21F44050DFF8C7
:20512000E8070840C4F81001B849D4F8100140F03000C4F8100100200870B549087002F25E
:20514000FB100021DFF89827C171117001720020DFF890170870DFF89C172DE1894CD4F818
:205160001011080B00F00300012802D002284CD047E1DFF8902702F2FB100279002A00F07D
:20518000FA80DFF82C2D1278012A02BFDFF860371B78082B11D1DFF85C371A70427862B316
:2051A000DFF8443713221A700122C2710020DFF83027107041F4405049E0002A02BFDFF80A
:2051C00030170978082940F0D680DFF8182701211170017889B1DFF81027132111700121FF
:2051E000C1710020DFF8F81608700220D4F8101160F30D31C4F8101110E1D4F81021012173
:2052000061F30D32C4F81021A6E0DFF8F82602F2FB10037903B3DFF8983C1B78012B02BF37
:20522000DFF8CC361B78082B16D1DFF8C83601221A704278002A00F08880DFF8AC3613229C
:205240001A700122C27121F0434040F44050C4F81001BDE87040D5E5C1F30163012B40F0C6
:20526000938092F817217AB9DFF88016002081F8060A02F0E9FDD4F8100120F0434040F098
:205280000070C4F810018FE08B0F4279012B2ED1002A70D0DFF85816097808296BD1DFF86E
:2052A00054265A4B012111704578594ADFF83C167DB1DFF83456202028700220D4F81051ED
:2052C00060F39F75C4F81051042018700320107050E0D4F81061012565F39F76C4F81061CE
:2052E00004241C7015700022C271022042E03AB3DFF80026454B012111704578444ADFF89D
:20530000EC158DB1DFF8E065102535700125D4F8106165F39F76C4F8106104241C70157022
:205320000022C271022025E0D4F81051022060F39F75C4F81051042018700320107019E0D6
:20534000DFF8AC251278042A15D1DFF8C025114041F48051C4F8101100212C4A11702C4A89
:2053600011700121DFF8782511700021C1710020DFF87815B2E6DFF86C1500200870DFF85F
:20538000741519E0744100204179B9B1DFF858253021117001210172C1710220D4F8101196
:2053A00060F31961C4F81011002084F8BC0104201649087000201649087070BD92F8171119
:2053C00059B1D4F81021012161F31962C4F810210021C171BDE8704063E4DFF80825117074
:2053E000DFF810251170DFF8F824117094F8BC110A2924BF00220272C82905D30021C1718B
:2054000070BDBDE870404DE570BD00009668002097680020FFFC3FFFCF400020BDE87040B1
:205420006EE4000070B5DFF84C0CDFF8B044006800F62C0204F1580150880B88984223D2E7
:20544000DFF8A814002081F8060A02F0FDFC04F1FC0001680369826B21F4E071016023F098
:20546000405321F038010160036122F080624169826309090901416123F04F41016122F032
:2054800000718163022151E0DFF8783493F8170120B9DFF8580490F8060AE0B904F1FC000F
:2054A00001680469826B21F4E071016024F0405321F038010160036122F080624169826329
:2054C00009090901416123F04F41016122F00071816302212AE0DFF820040078012802BF18
:2054E000DFF818040078012804D1DFF814040078022830D104F1FC0001680469826B21F4E8
:20550000E071016024F0405321F038010160036122F080624169826309090901416123F0CF
:205520004F41016122F0007181630121026861F302020260DFF8D803DFF83C1B00780870FC
:20554000DFF8381BDFF8CC03007808700020DFF8301B087070BD04F1FC000468E40804F067
:205560000704641E052C00F2EE80DFE804F00336689BC2CA0469250F05F00305012D02D0EC
:20558000022D06D017E093F8E451002D40F0018104E04D881688B542C0F0FB8044F040542F
:2055A000046100244C800124DFF8D05A2C700224DFF8C45AECE04C881588AC42C0F0E98075
:2055C0000569022464F31D7505610024DFF8AC5A4C802C70DFF8A05ADAE0446904F003054B
:2055E000012D02D0022D06D017E093F8E451002D40F0CF8004E04D881688B542C0F0C980FC
:2056000044F00304446100244C800324DFF86C5A2C700224DFF8605ABAE04C881588AC42AA
:20562000C0F0B7804569022464F3010545610024DFF8485A4C802C70DFF83C5AA8E0446905
:20564000A50805F00305012D02D0022D06D017E093F8E451002D40F09C8004E04D88168814
:20566000B542C0F0968044F00C04446100244C800124DFF8085A2C700324DFF8FC5987E0E0
:205680004C881588AC42C0F084804569022464F3830545610024DFF8E4594C802C70DFF827
:2056A000D85975E00469A50F012D02D0022D05D010E093F8E441002C6BD10FE04D881688D5
:2056C000B54266D344F04044046100244C80DFF8A8595DE04C881588AC425AD30569022458
:2056E00064F39F75002405614C800324DFF888594EE0874CDFF8805924782C70854C2478B4
:2057000044E00469250E05F00305012D02D0022D05D00FE093F8E451002D3AD103E04D8825
:205720001688B54235D344F04074046100244C8001242BE04C881588AC422AD3056902246F
:2057400064F319651FE00469A50E05F00305012D02D0022D04D00EE093F8E451CDB903E03E
:205760004D881688B54214D344F04064046100244C8003240AE04C881588AC4209D30569F1
:20578000022464F39B65002405614C80DFF8EC582C700468A40904F00704641E042C1FD8BE
:2057A000DFE804F03003080D120093F8E41149BB04210EE093F8E41121BB052109E093F847
:2057C000E411F9B1032104E00B8852889A4205D20121026861F38812026070BD581C0BE09A
:2057E00093F8E42132B10368022262F388130360002006E00888401CB0F5803FA8BF4FF652
:20580000FF70088070BD0000496E0020F0B4334CDFF87058DFF8707804F1FC00002301698E
:2058200021F4400204F1560102610B8022F44012836B026123F40003836300262E60CE801C
:2058400023F000660368DFF8445886633B40476903602F40476123F4E015056027F4701354
:2058600004F2BB1700247C70436126F0805425F4E0468463066000233B700027244B1F7043
:2058800022F04052234B1F7024F08064154B1F7026F4E075174B1F70114B1F7002618463EB
:2058A00022F04F42026124F00074846324F080720560826325F038058F80EA084F8005609C
:2058C000D200DFF8B417476102600F70DFF8AC170F70DFF8AC170F70F0BC70477441002061
:2058E000046C0020026C002045040020C43400209A680020036C0020FA6B0020486E0020FD
:2059000092680020D43E00203FC3FF3CFFCFFF3C96680020976800202DE9F84FDFF8D80BA1
:20592000DFF8D82BDFF84C5700F156044FF6FF782188414500F1FC061CBF491C2180B16BED
:2059400002F2FB17C1F3C05343B941F40001B1630121336961F31553336143E03169C1F3B5
:205960000153012B0FD1DFF8981B0978002902BFDFF8901B0978082943D133690E2161F36B
:20598000175333612EE0DFF87C3B1B78082B05D03369012161F31753336123E08B0D03F034
:2059A0000303012B02D0022B05D01EE0DFF8503B1B78A3B116E0D5F800C023884FF4026EB9
:2059C000F444BCF804C0634505D33369012161F39753336107E0DFF8283B1B788BB941F4DA
:2059E00040013161002179710BE0DFF8141B0978012906D13369022161F3975300213361A4
:205A00002180E18841451CBF491CE180B16BC1F3C06323B941F00061B163032122E0316821
:205A2000490A01F00701012904D022D3032914D005D31EE0DFF8D01A097891B116E02B6834
:205A4000E1884FF4026C63449B88994205D33368012161F34B23336009E0DFF8AC1A097896
:205A600099B90421336861F34B2333600021B9710BE0DFF8941A0978012906D133680221C4
:205A800061F34B2300213360E1804FF4026329681944DFF8783AB1F808E01B88734524BF41
:205AA000B1F80AC09C4507D3DFF8643A1B78152B1CBF162B012300D100233B70DFF8543A2C
:205AC000B1F808E01B88734524BFB1F80AC09C4507D3DFF8443A1B78152B1CBF162B012361
:205AE00000D1002302F217197B7099F80120052A1CBF062A072A01D1012200E00022BA7065
:205B000000F29B1A99F800209AF80030DFF8A0B39A4214BF01220022FA7000F2BB109BF893
:205B200000209AF812309A4214BF012300233B714378FF2B1CBF5B1C4370B36BC3F3007C95
:205B4000BCF1000F1DD143F08051B1630121326861F30E3232600421DFF8C0291170012119
:205B6000DFF8BC2911700021DFF8B8291170DFF8B8291170F971DFF814291170397201703A
:205B8000E3E033681B0B03F00703012B05D0C0F0AC80032B44D040D3A7E00878FF2810D044
:205BA00031681A2060F3113131600020DFF86C190870DFF86C1908703872F871DFF86419BD
:205BC00029E04878FF2808D03168032060F30E317069316040F030000BE08878FF2800F0E3
:205BE000B4803168042060F30E317069316040F4404070610020DFF824190870DFF8201977
:205C00000870F871DFF8841808703872DFF814190870DFF81419087097E0FEF796FE94E0A2
:205C200071690B0903F00303012B02D0022B28D02AE04078142817D3012A1AD1787848B173
:205C400021F0300040F4405040F020007061FFF7D9F87AE00120DFF8D0281070DFF8CC08E2
:205C6000084040F481505CE0DFF89808007804286BD13878002840F0B7800120DFF8A42841
:205C8000EBE7FFF731FA60E0DFF8A4281278012A02BFDFF8A0281278012A56D1DFF89828A6
:205CA0001278022A1EBFDFF894281278002A4CD0DFF850281278082A07D17269012161F3BA
:205CC00005120021726141703FE0042A3DD13878002840F08980DFF84C2801201070DFF8D9
:205CE0004C08084040F481501BE071698B0B03F00303012B02D0022B4CD04EE04078142836
:205D000042D3012A30D03878002878D10120DFF814281070DFF8A40B084040F0805040F46C
:205D2000004070610020DFF8F4170870DFF8F01708700120DFF8541708700020DFF8801B15
:205D4000F87181F8060A02F07FF8A08840451CBF401CA080B06BC0F3006100295AD140F031
:205D60008070B0630120B8E0787848B121F4404040F0405040F400407061FEF737F9E4E7F4
:205D80000120DFF8A427C4E7DFF8780700780428DBD1B8E7FEF743FCD7E7DFF89427127842
:205DA000012A02BFDFF88C271278012ACDD1DFF888271278022A1EBFDFF880271278002ACF
:205DC000C3D0DFF840271278082A04D17269012161F38F3275E7042AB7D1387878B9DFF885
:205DE00044270120107095E7DFF84007084040F4005040F020007061FEF782FFA5E7DFF837
:205E0000BC0A084040F0005040F400407061FEF75FF89AE7317801F00701012905D0C0F091
:205E2000E580032946D038D3E0E0DFF8941A91F8061A08001CBF0129062904D1DFF8FC06D8
:205E40000078002848D1286890F82008FF2843D1DFF8E8060078002800F0CA80DFF8BC06D6
:205E6000DFF8BC1600780978084300F0C180DFF8C0060078012802BFDFF8B80600780128CF
:205E800040F0B680DFF8B0060078022800F0B0803168032060F30201A6E0DFF88006764999
:205EA000007808707549DFF87806007808709FE0256E0020DFF8081A91F8061A062904DA0E
:205EC000DFF85C261278042A06D0072917DBDFF84C261278042A12D10220316860F30201C4
:205EE000DFF838063160007863490870DFF830066249007808700020614908707BE0336880
:205F0000042262F30203336001235D4A40F0007013700229B0630AD132683369062161F3B6
:205F2000C50232600421012262F319630AE003290BD13168336941F0380131600122042185
:205F400062F39B633361002341E0042918BF092908D1326863F3C5023260326963F31D723E
:205F6000326124E0052908D13268022161F3C5023260726963F3010218E007290CD1326846
:205F8000042161F3C50232600121326961F39F720423326100211AE008290BD1326803216D
:205FA00061F3C5023260726963F383027261002300210CE03368052161F3C503DFF85C1556
:205FC00033600025DFF8583509781B78157040F080602A4A1370284A1170B06300206080FF
:205FE0000620316860F38811316001E0FFF71AFA2348007828B9F979481E8041C043C00F4B
:2060000000E00120DFF8BC1A087099F800008AF800009BF800008AF81200BDE8F18FDFF824
:20602000D81401F1F8004269C36BD0F800C022F44022426123F4800322F440324261C36323
:2060400022F4404242612CF0E04C002241F8502F8A8023F40013816CC0F800C021F0080130
:206060008164C363DFF8D0140A70DFF85C1A0A7070470000C85C00209468002095680020E5
:20608000CC5F0020D4400020FF71FCFF0F003C00F8B5DFF8645405F1F804E16BC1F340500D
:2060A00018B941F40010E063D6E16069820B02F00302012A03D0022A00F0E781C4E1DFF885
:2060C0000C2A1278012A1EBFDFF8042A1278012A1AD1C0F38142012A0DD1226822F0E04216
:2060E000226021F48001E1630821DFF8DC29117020F4402001E020F470206061606940F407
:2061000040406061042081E1DFF8C8291378302BC0F3814219D1012A0DD1226822F0E042E3
:20612000226021F48001E1630821DFF89C29117020F4402001E020F4702060610220616917
:2061400060F38F3161610F2060E1012A03D0022A00F0AD800FE1DFF880291278012A01BFCE
:20616000012BDFF8D0231278012A10D1DFF86C29126892F8F037FF2B1EBFDFF8B4331B78A4
:20618000002B04D1DFF858391B780C2B0BD1206820F0E040206021F48000E0630820DFF8E2
:2061A000281908702CE1DFF83C69B2F8227136882368BE420ED323F0E042226021F48001E9
:2061C000E1630821DFF80029117040F44020606103201BE1180F00F00700012804D0032817
:2061E0002CD004283FD0F1BD4FF4F06010440178FF291DD0DFF8F01840680968884204D2AD
:20620000DFF8E80800784F2812D1A06CC0F3C00070B90420194660F31E7121600220C64926
:20622000087001F00BFE05F1500100208880F1BD0220194660F31E712160E7E04FF4F0638E
:2062400050351A44A8881289904206D32168052060F31E7121600220D8E0401CA880BDE8D1
:20626000F14001F03FBE4FF4F06150351144A8884988DFF85468884211D30320194660F37A
:206280001E7121600120AC49087001F0D7FD0020A880A06C40F00800A064082005E001F00D
:2062A00021FEA888401CA88001203070F1BDDFF82C28DFF8306812683688B2F82271BE428D
:2062C0000AD39C4E3678012E06D161690C2060F313416161032099E0DFF8FC673678012E31
:2062E00001BF012B934B1B78012B27D192F8F037FF2B1EBF8E4B1B78002B1FD1DFF8F037E0
:206300001B78082B08D1DFF8D8371B780C2B03D0894B1B78012B03D092F84035FF2B0DD1EE
:206320006269042060F3134241F48000E06301202168626160F31E712160F1BDC0F301405C
:20634000012800F0A2804FF4A861114435F8500F4B89984204D3DFF898271278082A02D02C
:206360000978FF2905D16169012060F3114161614CE0401C88E0DFF87C178A7B0F2A1CBFD9
:20638000CA7B0F2A28D0CA7C0F2A1EBFDFF8682712780F2A20D04A7E0F2A1EBFDFF85C27DA
:2063A0001278042A18D0DFF848271278042A1CBF0A780F2A06D1DFF82427126892F8402547
:2063C000FF2A09D1DFF814271268503502F24E366B8837889F4206D220F44C2040F40040D2
:2063E00060610F2012E04FF491701044DFF8F42640881288904203D24E48007801280BD017
:206400006169092060F31341616101204A490870BDE8F14001F012BDB079FF281EBFDFF85A
:20642000E40C007801280CD0487804281EBFDFF8D80C007804281CBF8878042801D1581C7A
:2064400000E000206880F1BDDFF88006DFF8801600780978084318D150356169012060F3EC
:206460008F31002068806161A06CDFF85C1620F00800A064082008700A20616960F31341E6
:20648000616100202C4908702880F1BD046C002000E000BF70B4184B03F1F8004FF4FC7284
:2064A000416921F44054002183F8BA1144610026C16B21F48015DFF8181DC5630A4424F4E7
:2064C0007364967044614A3324F0C004446125F4002524F00C045E809E80C563446116807F
:2064E00025F48022C2631E80026822F06062026081F8AC6170BC704774410020D43E00200E
:20650000266E00209A680020236E00201A600020F86B002016600020F76B002096680020A1
:2065200097680020026C0020036C0020CFCFFFFFFA6B0020486E002092680020496E002037
:206540002DE9F041DFF8884CDFF8906C96F8EA0104F2E9152978002900F0A48120B9FFF75B
:2065600098FF012086F8EA0196F8BA0107283CBF401C86F8BA0106F1F800C26B697CC2F33C
:2065800000534BB942F48011C1630E21426961F38D22426100213EE04269C2F38123012BCA
:2065A00039D0DFF83C3C1B78032B18BF022B20D0120B02F00302012A02D0022A05D014E0C8
:2065C000DFF8202C1278A2B925E096F8BA21042ADFF8102C127801DB5AB900E0DAB943696C
:2065E000012262F30D33436115E0DFF8F82B12782AB94269012161F38D2242610BE0DFF8AE
:20660000E82B12783AB14369022262F30D330022436186F8BA2169744FF6FF7206F14A0199
:206620004B8893421CBF5B1C4B808B8893421CBF5B1C8B80C76BEB7B2E7CC7F3C04CBCF19B
:20664000000F0AD147F40023C363436923F0CC0343F048034361002353E04769C7F3810CCF
:20666000BCF1010FDFF884CB9CF800C038D1BCF1010F06D012233E4663F3890646610023DF
:206680003FE0C7F3011CBCF1010F67D1DFF84CC4DCF800C04FF4F46EF444B1F802E0BCF878
:2066A0000480C64506D327F44C7343F020034361002326E0C7F30127012F8F88BCF80CC0CC
:2066C00009D167454AD34669022363F30926002346618B8015E0674540D3466901230AE078
:2066E000BCF1010F0FD105233E4663F3870600234B804661012363F3092600238B8046615B
:2067000001231E462AE04FEA971C0CF0030CBCF1010F03D0BCF1020F07D013E0DFF8D0CA67
:206720009CF800C0BCF1030F11D0DFF8C4CA9CF800C0BCF1040F11D147F0C0034361012645
:2067400000230BE0DFF8A87A3F78032F06D14669022363F387164661012300262E74EB73BA
:20676000DFF8906A6B7CDFF86C7A3370EE7B3E702D7CDFF8646A35700D8895421CBF6A1C2A
:206780000A80C26BC2F3804525B942F48021C163042167E00268520E02F00702521E042A20
:2067A0005BD8DFE802F003781E344300DFF8482A1578002D01BF5578002D9278002A3FD1DC
:2067C000C64D0A882D684FF4F4663544AD88AA4247D2002B45D1DFF8142A1278022A5AD1F8
:2067E00009E0DFF8142A1578002D04BF5578002D01D192780AB1032247E0B84A0988126834
:206800004FF4F4652A44D28891422AD223E0B34A126892F8A027FF2A3DD00368062262F35C
:206820005B63036000200880012020E0DFF8C8291578002D04BF5578002D01D192780AB198
:20684000012222E0A54A098812684FF4F4652A445288914205D223B91DE00A88642A00D2C0
:2068600043B10221026861F35B620260002084F8AC0110E0DFF880291378002B04BF537827
:20688000002B08D1927832B90522036862F35B6303600020088094F8AC01DFF8601908704E
:2068A000BDE8F08140B1DFF82C1900200870DFF82819087086F8EA01BDE8F081FF3FFFCF02
:2068C000C434002010B5DFF8142902F1F8000369590C01F00301012902D0022935D0E0E02A
:2068E000DFF8B81D0C78002C04BF4C78002C01D1897891B1DFF80819097808291CBF0329C3
:2069000004290AD102211A4661F3524202610B21026861F30712026010BDDFF8E41809781B
