:020000040800F2
:2000000000000110890300089703000897030008970300089703000897030008970300086F
:200020009703000897030008970300089703000897030008970300089703000897030008B0
:20004000816807E002681168536889185B18C36008320260C2689142F4D04A1C82600878D6
:20006000704738B504460D46A068E168884212D120686168884208BF00F0C3F82068227C8E
:20008000016802B14944A160426852180830E26091422060ECD0A068401CA06000F8015D5F
:2000A00031BD2DE9F0418AB000F1080105910268520801EBC201069100210791089101687C
:2000C000490800EBC10108310091017901F001018DF8101040680099400801EBC000019080
:2000E00000200290039084E005A8FFF7A9FF044614F0030603D105A8FFF7A2FFC61C25098D
:200100000F2D1BD105A8FFF79BFF00F10F0515E005980168081805990790496808180890BC
:20012000059808300590079808998842F0D0401C079010F8011D00A8FFF793FF761EF2D1EB
:20014000002D51D005A8FFF77BFF0646A00800F00300032804BF05A8FFF772FFDDF80080F6
:200160000299039F06EB002008E0A8F10808801A58F8081C58F8042C5718394658F8082CA0
:200180008A1A8242F1D30C1AAE1C2DD0BC4206D158F8044B58F8040B0719BC42F8D00298F3
:2001A000039914F8015B884217D100980199884208BF00F026F8009800689DF81010029071
:2001C00009B148440290009902984968009A09180832884203910092E7D00298401C02903F
:2001E000761E00F8015DD1D10298039988427FF47BAF0198009981427FF476AF0AB0BDE8EA
:20020000F081012000F000B82021090326311820ABBEF9E74048414A82B0016841F470012B
:2002200001603F48016841F001010160002181600168114001603B494160016821F4802178
:2002400001600021C16038490A6842F480520A604CF6CC4235490A6045F255520A600122F3
:200260004A6040F6CA028A6000220A60CA68002AFCD14AF6AA220A60002101910091016810
:2002800041F480310160016801F4003100910199491C0191009919B90199B1F5A04FF2D109
:2002A0000168490C01F001010091009901292CD1016C41F0805101641D490A6842F44042D8
:2002C0000A6081688160816841F400418160816841F4A051816017494160016841F080712E
:2002E000016001688901FCD540F20571124A11608168890889008160816841F00201816082
:20030000816801F00C010829FAD14FF000600B49086002B0704700BF88ED00E0FFFFF6FE30
:200320000038024010300024082004E000300040007000400A544007003C024008ED00E0BB
:2003400008B1084901600848704708B107490160074870470FF23100704708B1054901606A
:2003600005487047400400000000002000100000000001100001000000000010D0F800D04B
:20038000D0F804F07047000080B5FFF743FFBDE8014000F001B8FEE7C046C04600F002F813
:2003A00000F02AF84EF68851CEF20001086840F470000860BFF34F8FBFF36F8F4FF00070E2
:2003C000E1EE100A704750F8041B61B150F8042BD30744BFA9F101039A180023091F42F8DB
:2003E000043BFAD1EFE77047DFF800F09D620020DFF800F01563002000F00BF8002801D035
:2004000000F00AF80020C046C046FFF7EDFFFFF7EFFF01207047000010B507497944183105
:20042000064C7C44163404E00A68081D511888470146A142F8D110BD080000005000000095
:2004400087FFFFFF1C0D0100186300200000000053FCFFFF020000000200000030000000D2
:2004600006000000400400200400000037FCFFFF02000000020000001A0000009E310000F0
:2004800044040020D45E0000DD5D00180002FD3C0000F20E000160160201080420108040BF
:2004A0005AA5FDFEF7FBDFEF7FBF00FF0102040810F2FF0001F5FF11F9FF21FDFF3103FDE9
:2004C000FF4104FDFF5105FDFF6106FDFF7107FDFF8108FDFF9109FDFFA10AFDFFB10BFD38
:2004E000FFC10CFDFFD10DFDFFE10EFDFFF10FFDFF0111FDFF1112FDFF2113FDFF3114FDD4
:20050000FF4115FDFF5116FDFF6117FDFF7118FDFF8119FDFF911AFDFFA11BFDFFB11CFD6F
:20052000FFC11DFDFFD11EFDFFE11FFD3E2F202006DFF800F04B03000808127D0830157CCA
:20054000B500F0E8F8874C874D002060700121284600F035FC0008100731FC0121F120004F
:20056000F0361021081232101201081237102108400233FC7B4D32523732F0010033FC776E
:2005800012101700A800F08BFC0FF208358C26A888009000A9A8798DF80400E806101307E8
:2005A0000055F8080B00F042FC761EF0D10FF2411000F09C2C200A3D1529466FF00C0000F8
:2005C000F0B9FC0A120A0A32B40A12090A1067AFFC00F0BEFC04F10C00FFF797FF00212196
:2005E00061E168401AA06002E0A52100F8011BEFF308818842F8D35548564B01684FF6FF50
:20060000021140544A114301600FF26C10534A232144688557102C28BF0F242401002D4363
:20062000BF05F00F05ED1805F8044CAC540830491EEED162B600F09B6814039DFC73BD98BF
:200640002420465DFF3E48017819B1417881B164214160816800291CBFC268002A30D08415
:2006600069521800238C4201D3944215D3816113E0416809B1491EEBE700F03AF8BFF34F90
:200680008F3348364A016801F4E0618621122035FEE7641C8461846994423EBF1F467B1C1D
:2006A000402F0CD22778A52FF3D0121B0369934238BF134603614269521C4261816191BDA9
:2006C0001E49487070471D8416B9862270841403704710B50464101508F82046BDE81040BD
:2006E000FFF714BFFEE70000FEE772B61B481C72300E21F0020101601A48016841F000613E
:20070000016008100C7101600020164908604FF0FF3015081033106048605060886090602D
:20072000C860D060086110614861506188619061C861D06170479C6F0120FF17E022FFC936
:20074000FEF6337977040CED00E0180410100003FA0500E400E00400FA0510E000E080E26E
:200760000C11181294041C0380E100E0FF9F22120F04121304120604121404120504521564
:2007800008521608523F20524010524108524208522108522208524808524908522508524A
:2007A0004708120404120E04520B10520C08520D08520E08520F08521008521108522F0843
:2007C000523808523908523A08523B08523C08524408524508524608431E008C52180812E7
:2007E00036041203041DE624100240010000035001024002085204085208085210085220F0
:20080000085240085280081106320208520210520408520808521008432002084340023059
:20082000128010520480520480520480110843080020521008522018524008528008530055
:200840000108520208520408520808521008522008524008128008520880520880520880CD
:20086000560800560800520880520880520880520880520880520880520880520880520892
:2008800080520880520880520C80520C80520C80520C80520C80520C80520C80520C8052E2
:2008A0000C80520C80520C80520C80520C80520C80520C80520C8052108052108011082697
:2008C0000470561080561080110852200852400852803031805210805210805210805210F0
:2008E0008052108052108052108052148052148056140056140056140056140056140052A2
:2009000014805214805214805214805214805214805214805214805214805218805218803F
:20092000521880521880521880521880521880521880521880521880521880521880521829
:2009400080521880521880521880521C80521C80521C80521C80521C80521C80521C805285
:200960001C80521C80521C80521C80521C80521C80521C80521C80521C8052208052208087
:20098000522080522080522080522080522080522080522080522080522080422080100BD8
:2009A00041494A6802F00C02042A02D00804202419E03E4A18E00A680B68C2F38052002A9C
:2009C00003F03F0314BF394A394AB2FBF3F20B68C3F388135A4308200401435B1C5B0016BE
:2009E000101700E0324A02604B68314AD0F800C0C3F303139B5C2CFA03F343141001D0F84D
:200A00000412438223121C0F836049684368C1F34231895C23FA01F1C198061E2556061C27
:200A20000C7047244A0029116814BF084321EA66051112F2002112F2001D12F2001A12F2D6
:200A4000001612F2001312F2000F121D7405163830100E9698000024F400C8620020E01191
:200A6000474230141240041210041214041218041220041224041FF0B4630630342301248D
:200A80000D6894402540A54229D103259D400668ED432E40066006680F799F403E43066094
:200AA0000E79012E18BF022E11D186682E40866086684F1A10198660466826EA0404446085
:200AC00044688E799640B6B234434460C4682C40C4061C12CD799D402C43C460521C9B1C9F
:200AE000102ACBD3F0BC70479C082D8E07142A21017141718171C171704741837047CB08A9
:200B000000EB830001F007018900036A4FF00F0C0CFA01FC23EA0C03036202622C06036A97
:200B2000194301627047C4095E41CC091255082E380E081E2062092C37A81D4DFFF7F0FF10
:200B4000286000988008686015D00020FFF702FB2968086001206968022909D3FFF7E4FF62
:200B600029684860022003E0296841F82040401C69683609140331BD0D4BD3F41C11BCF1A3
:200B8000000F09D010F10E0F06DB00F110025868829608200E4CF82210704705480068007B
:200BA000B9704780B55A1401BBFF02F01C0501BD2870012008FC071D2E081C01F7FEBE406F
:200BC000071C10B5DFF8D4540FF2F844002028602871A86020AE0823BCF8061C0AFEF800D9
:200BE00020E8602874686104F140072001F0B1F8081C1DBDE83240F0E058B100220270036A
:200C0000224270002242608260C260026142618261C18C0830192DE9F0410546002415B135
:200C20000E46022E01DB042446E0EF69002F46D0B7B4500F020F41D20CEB4C0EDFF85804F7
:200C40004FEA8E0C5CCA2338D10E20024CF8005028200A0FF264470CEB0C1E07EB8E072ED7
:200C60001C2B00EB8E080220287069706A60AB6001220698E8604FF40071786A00F02BFB8F
:200C8000786A01224FF4807100F025FB012088BC0A2004C8F8084001211E2C10F6FA012ED5
:200CA00002D1A869401CA86100F062FB28618C091C17F0810324FAE70224F8E7042100B1F9
:200CC000017808467047032340B143420A2D3E0312C1845C060AB1806810601846C6092465
:200CE000152044B12078022802D100F03FFB00E060692169401A10BD661C1F38B5C069F802
:200D0000B1008802281CD2DFF8801300EB400201EB820400EB001200202071A0D80A100237
:200D200094312068142C010538B11E0A100600F01DFB216848611E1360289020053240459A
:200D4000E031BD1C682C05A8FFF7C4FE0120820B1203061DA808100720ADF8060060686808
:200D6000B1422C0521FFF724FE2089A60B20066068FFF776FE2189083001B4FEE01C2002B1
:200D800016FEA06908300B12FE94F82C20E18A2069FFF7A80C1001618CE00C3001A2FE02B0
:200DA0005A2300A96220040600A08A009024200252FE208C54212410034CFE13BD708A20A5
:200DC0000284B0A06A4C1401F5FD60482FB5F9280C2340FA8E21402006206B00904BF6FFFA
:200DE000709C157C1C0140ADF8C60920012002902C13C8F906159216E0721C055CFA616B5A
:200E000094F9380A0C23A4FE081C07994D012600F01F01062803100D400945F8201094F959
:200E20004000616BFFF79420C340001C1C1F04B070BDF8B50D46044616468C49012001EA3A
:200E400004028A421F462AD104203071B968B01203100F10D2F96811B16A6A415C1182404D
:200E60001CB060B914300119D1688212808210031BFA12E068CA400200F0FAF91612C016F1
:200E80001210CA163888140159FA78861C033071B06030760B32F2FA103D0D46606A2E688B
:200EA00000F006FA2A794FF45F41022A08BF4FF45B41084240F0B680002E00F0C480521E68
:200EC000062A00F2AF80DFE802F00413405259757500644A0121104090261BA280AE240532
:200EE000710022F0698178121002C7F997E0822009F44132B2F5413F08D129711616A8280A
:200F00004008584900F0D9F988E0574A3A10018580033A1003F2697168D23A5019022A05A3
:200F2000DB0A04120E0282828A1206FCD5C9B201827178012970D101DE2002ACF96AE012DB
:200F400050010ED0487E100163D105422160501978F9616A00200882002159E033462A46FD
:200F60002146FFF758FF014652E03A2C10014DD1062C7201A8200C73F9B06802288941C9F5
:200F800043606AC90F1063606A6A100377F935E030381C0302EA0003937C0512073A14013B
:200FA000B168A86E14010FD2F1821C06626A128A4254A8686A031360B116131ED1521576E3
:200FC000340351F919E060805A3A1825801750F9761580140199F970802D7C0434032860F8
:200FE00005E0190632025C5002002181B11A6E6836031F82F9140521301DAA04100FBDE8FC
:201000007040AAE670BD04490FF2340022E70B081C0170001E600D1EB8100D1E00E00C1C94
:201020000180000775071DD20B1002040010820C12840412401012020412C4241DBC074EC2
:20104000005C096302000C3DAF07510C2201082E58F70C2DBF072C080000801A0600F734C4
:201060000020F00C12FF08C32200012280053D840872070C1F00013208225C4472804421ED
:201080003C5248442D240D2C0402494AF6AA209207110D1C0B30004080B54149884208D1A3
:2010A0000121E4041610B433FC000A700116E03C181E805203324C18100380000AE0371803
:2010C000420B3011184240301DAE051E04740E5C0139BC01D0033C01A6880D60041C38BF2F
:2010E000FB02992B484FF6C072B1FBF0F032400243A2804FF6FE7322881A402280264B2A14
:20110000689A4208D25200B1FBF2F18AB2042AB8BF042189B220E0EB88F203200776B34295
:2011200004D102EB42021E200406E019235A430A143241F4804189B20A0504BF41F0010122
:2011400089B280B24FF49672504341F400414FF47A7289B290FBF2F0401C2084A1834FF68E
:20116000F531208840F06A20108020880840A98808436989084320802989A8082E81F80302
:20118000150C165438258015402C0A40420F00A186010041F2883192071381808C1C0171F0
:2011A000C1809C07140181418106140141818140100329018812BF8C1E71BA0780036211ED
:2011C00040018014220014525214332A14A8900401F0FE010182381261246232241009820A
:2011E0008814BF114322EA010181101004818A008B41EA8E100802000A7047FFE7C94381F0
:201200003A1C1E10B43848384900684A688C6890422CBF364B002312199A18121A8A60A88B
:20122000230C68AC091C02F31C190CC20F1C07A82404FB13228A601058082C0480B50FF25C
:201240008501E00F1C05FFF718FC2A482B0C106C04490849000160141011E22007602649BD
:201260004160F02111700C1307211C1FBD23D8077C05704730B41E481B3E101005816853BE
:20128000689568997C1009174C00245B19E3185B1A936E3C111568B3FBF4F46519156051AB
:2012A00060A82505FB143393601021343802106830BC6E1C060080B5FFF79DFF0D821023AB
:2012C000491C4C1406491E04D14268521CB4100271426081741D200F1D3C101EE4A0092C95
:2012E000024190020048101E234408123F0C12D8141EF844081E8C40081C0320706070FF07
:20130000DC031F0041020710070400F06DFADFF87C14041C1054201D18224FF0A5334F68E3
:201320000026AF420DD2D15C071C2151F8047C5FEA9C0C07D057F804EBBCF1010C7644F90A
:20134000D100E01E460C31521E40F8046BE7E2051DD2122C01F810B1CA1210067CFA04F50E
:2013600000400823601C054204F16C016C30DE041DC205100D606604200FF2E511FFF77512
:20138000FB00F0DF74231004E41E40B6091C081020DFF804140860F1BD80093F141060032F
:2013A0001C0ADFF8FC03DFF8DC130068497877101982270843501F0122AA04101423DFF850
:2013C000E04310421CBF256869185B1C10EA420F1CBF650C2C0A92005B1C0834182BF0D320
:2013E00030BC2A081C07DFF8BC231021116080DA09200890134A6E42EA8000486670200282
:2014000098130860141E084C063D0C091C0E4381460127A9F10060B0F5004F83B00DC80683
:201420003E1324081C3DA1EB0908D4490978A84588BFA84629B9D24B42463146C01800F0B3
:20144000B8FA4644C144A5EB08050DB900273FE005EB0900401E8008A0EB9900441C37D038
:20146000DFF8488340A2092C2A11FAA04230D3A819451E4FEA990109F003008900301A00D3
:20148000910021071D01910420641E7F1E3946B14204D38D42D2051DD0051EE02E031C0570
:2014A0009A120201920029600C200B78FF211143401E0191EAD100A9522410F3F9009800E1
:2014C0001D0090381D002CDBD10027B249361C02384603B032091F83A9DC12240901B170C8
:2014E0004770B4A7490A46008CF005016452F8045BEB18062024641EF1D113BB47F6C073E3
:2015000001225B5C0FF2A924542B18BF002201F5FE410123C13125780E78B542124004658B
:20152000784E785B1C0C3C095B1C891CA41C232BEFD322F0052C01102092A80C39AA2C0EE2
:20154000F0B5954C83B0A068A068C00703D5A0683E041005A060A06880071F0E43C00614EB
:20156000421014510E32200E52400E32400E52000E42801C33F002081808724D000C10F0D0
:20158000010638D16E1C28217B4A714B6F6E97B36F6E074205D06F6E87436F6617689F42E9
:2015A00005D34000491C0C321829EFD323E0C800E16414200800F0F80003D5704921600423
:2015C00021503EE1CA031C03E1600126E1A20320020401E1600852020832F808180D084333
:2015E000E060E06840F48030E0605EB905DC2B00A9D4140460F920B10199861C1AF07BF8A4
:2016000001268EBB287878B3687890B9012068700020A86600F080F9407609200460820110
:2016200026207C6E14032074686E40FC180568661AE0AF6EB766181913D23F483918CA786E
:201640008B784978385C43EA022241EA022140EA01210788100B00F04EF8381D0126A866DD
:2016600002E000561C022870D6B99E0C1002F900F0665A300FFC72217C904204BF01F0ECCC
:2016800000C4280DD06268100100F01368217052C408217810043EBB00F026F9C63001F0F0
:2016A0004070CE1F0840170B5003E06820F0040852020842F80852F42843F400081002F01F
:2016C0000040E09012177C1221041C0A0CF903B0F0BD1B4AD36880083E0720052B03D51A44
:2016E0004B1360041005D3685B085B00D308400223F004030852020832F808100143F00108
:20170000081E01E2031C04186300209CE390041DDA0F1E01E50F1F103C84071D0C081E0091
:20172000FC14120C0C121C202DFC141D8F071308842812041412242C100B23016745AB89BF
:20174000EFCD5468697320031C40612053544D33324634303720314D4220426F6F746C6F8C
:2017600061646572000062F30F2262F31F4200B500BF130096469446103928BFA0E80C5040
:20178000FAD85FEA417C28BF0CC048BFC6041C092BC90728BF20F8022B48BFF8161F2B0042
:2017A0004C052F80B5D8041C1903F90B4940B10A7B32B902780A70436842784B60806805C1
:2017C000E0FD2008540D2D18061E48F0151C074A7001BD01490873E4D4081E04BC0D1C02C4
:2017E0000160436050061C03F18160FFE7CA032C01614161CC0F1C06416982680069491C5C
:2018000086071C08F302FB1311814201D0017E042D82041C0A416902698068891A421E52C1
:201820001AEC071FF100200D1C227047F0B44369856802695C1CB4FBF5F605FB1644A61A95
:20184000B6FBF5F705FB176514D046680768620D1008FB03732EB111F8017B03041C077672
:201860001EF9D14461C168A9620E2C042946C16010461E0FA0060022FAE701694069721C0C
:201880000F70B4036984685A1CB2FBF4F504FB1524422C1710030FD045680654100905FBE2
:2018A00003632DB113F8016B0104126D544004046170BC10464A2DFC181C015000C154035A
:2018C0001C0505D5DFF84C10014A051248062D70053F44001A1742410E123C2623C90726B6
:2018E0003234265234263230261DD607110E2406FFE7094800887047E065DC290C120804FB
:2019000010073B2A19087F6E5D4C140C121604100662B38B0708D0521EEE163BA81C093BFC
:2019200000F024808B07F6D183074404100E8000BF103A07D330B4B1E83810103AA00610A2
:201940000BF9D230BC530724BFB1E80810A0041F44BFD006163BF0133BD2161631F025F474
:201960001C0344BF0B7803141812083E212A23083A2211042403CBF7D25307D411F81E2123
:201980007A061C0C2360B1104206D003EB43010FF258C6051C03095803E05274062C021878
:2019A0002BF2D37006101A0F4AA0F10063934221BF00F1604303F5084340F20F2C63451099
:2019C000D208181A100361914209D31A10034000F508401A64072188428041C00F704794E3
:2019E0002FFFFF4A171D7A124240079300400C92800C92C00C3DB90A52010C120205520200
:201A00000C92040C92060C52080C2DAE17920A0C920C0C920E0C52106C1D6E0B92400C924A
:201A2000800C92C00C53001190210C521248210C92140C92160C92180C921A0C921C0C72C2
:201A40001E0C100880B502234C22DFF8E413041E035C1B1D4C081EE02C081EE02C081C0E13
:201A60000863421C4A61021D083088634A6301BDD8071DCC071DAE052C01FA02909E081235
:201A8000572C3C01B043A0361B12E0062C020500207A5E0F1260061D820C1D380F12512264
:201AA000139873042C15830FF2B9190FF2711B00253E4607F1800AA4F84850514672111F48
:201AC00086FA910C20059001234B22012110300380FA0A22111A200C78FB0298022805D134
:201AE000FA2084F84A00122F56FB48121E0186071001EF2230102390FC10100603460146A7
:201B0000FF2206F1D5200BF087FC002D0CBF584648467061222C02D0FC3146E4071C0E0D90
:201B2000FD6D1C4C343436022D08F10408BFD32E0813F1683010060BFD0FF2C11038670E00
:201B400019862C03D110786750BA1A3C03FD00F01CF8000830048F10B5B24C059A1C030B3C
:201B6000FB04F14C5E0C1C01104005D60D200404BB38B5AC4C18200209FB05461A111424B6
:201B800002FB2843322810144782B00024DFF8A4A2A94EFF274FF4FA78A6F11009482C139C
:201BA00023FDC92003F8100CFF23B030131A46A0F80280A0F8008006219A48056828780048
:201BC00090A6C81C0923FC082006F80C0C494601300E100D687870702878B07097480078C3
:201BE000F07096062330710620047071B771F771B22369FD5E1C1504FD641C2836022C0AA9
:201C0000F10C0AC5D3BDE8F38718B4011D0908151C230A02120EF02AB4BF090AFF217E4A03
:201C200082F84A30C9B2FF291FBF7C4C24682478A1420AD1DBB2F9AC081C0FFA2B05D10021
:201C4000F10C01104614BC00F0A4B911F0042144B001714B09444004426883F8962044523A
:201C60006B4410040BD1D2B2F92A4410012A06D13E11463603163281461F30B42012140B97
:201C8000050FF2B814A800005930BC091ABC6001F0EDBD1872A018295C1EE1BC0D18050CF3
:201CA0004615461E46290C2C04FFF7F9FD30B1CA0F3E30000F1005FFF7A1BD70BD18182EA3
:201CC0009D300D4C1321421E022A03D9121F01D0921E03D1484951F82000DE121C05002190
:201CE0000246062A037016200C05DB102803D2414850F8220001881C2D1E0E1E3C5A0C1405
:201D00000186B0007814091646092E0D4628BF0826941E1803EF22062102C21B5FFBDE13CD
:201D20006032861E04420E1C0966FDB4F84820384801A910B20A1C01ABFE06B00D2C02FED2
:201D4000F780B94E0C1C0BB0F980B20028FAD002BD80B588CA07100BFFF767FA05E080B52C
:201D6000084611461AAA1F74FACE0A1DA0041C0502BDFFF7D5BAF8A21410180024FF29222B
:201D8000D90124B1F5805F02D3B1F5405F1BD30224B1F1006F0E1004F1016F14D3030E21E5
:201DA0001C10071D4DA9420DD304241C08100102D31B06200106D3052A10025F12D3190EC2
:201DC0001C1D0FD204EB4405AE000FF25C07F519F6596F68BE195718BE4203D32046AC68D5
:201DE000A0120516F2281EB5B80C1C03186D0120040C081E984E1012B00C1FA06E3A14111A
:201E000004124404123A20123B04123C041284101D78041C07100078FF1F107AFF1F300471
:201E20003D1F102D8B0413BF43BC4E104B0422A70C3D090540011000D70C3D231822F90C09
:201E4000213C6302001811043202182D2C152D6E121C021F462800000B3C122F1646A046B7
:201E600004D02046A84734197F1EFAD1FFE740AC142D40163E5B40162C0C274C201DFFF74E
:201E8000F7FF6168FF2998BF3E141C0500281EBF224D019A074F12D004152C0300FE20687C
:201EA00005B4161C01744174460B100B754B214175012181752021C175161C097631BD15C7
:201EC00049096801B10874A817110A1D28091801B1087C22114A220F101C012907D096082B
:201EE0002C0B7542784A7582788A75C078C875A2071C130021082809DA012303FA00F0052D
:201F00004B1B6803B11A7E02B80B3B01216021D91DA4082C0200A5A5A59E08138180741007
:201F200003714B21C17184180372202141726811262C060A78D21F082A0ED838131C1805AA
:201F4000060708090D0D0C0C003DE031E00FE058E002685269104763E0BA081D4C162006B6
:201F60008171C271037200993C2DC8064E389C131C0A69002138B1A9786A7802EB01981090
:201F80001C1200F0C1FA01462878A07208226878E072A87820731A0E4C1773A173E07320DB
:201FA00074607404F10A0123685B6820468AE0406938B11A0B300101EB033CF309BDBA58DD
:201FC000F200A25820046173080AA073521DAE18115E125D52600858B10A79CB7803EB026C
:201FE00022582392B23E12A15A2C0270B582B03C1614020D46ADF8211C03AB6878A97844A0
:20200000103320E906132979068011212068866928780C280CBF022201222046B0477421B2
:202020006A21781007E87860732879A0739D4612E006117F200574FF2060742046DA400226
:20204000984773BDC42006216809698847A080384146601A8120E072A0792073E079607399
:20206000207AA073607AE073A088000A2074A088401E01E0051C093040184780884FF65FB4
:2020800022106A181DD2096ED13E0819C91C02B5FFE704BA03180213FF064872140720206C
:2020A000760A206076A076041D4E171D041729ED1D2C0341842C02FFF70BFFAC041C06BDF2
:2020C000E8344010E1007E88081976281606220B2181728321C1728221017300214173FFCF
:2020E000218173C173A61007417E8173817EC17300B61203901C1118474176827670474A5D
:20210000780B2383728323C37202480E10114273FF228273C273027442744A78802A0CD05C
:2021200082041C12842A0BD0852A0AD0862A09D0872A08D0882A07D0F2081804F777BF04F7
:20214000E014562C0462E0A0E0B4E0C2172C058879C97901EB00CA1211A44C0289FF18B146
:2021600096213003AFE7207614221407207E80B18878CA78429C20020A7949790834022242
:2021800068D269A6280346904708B15824020622236860413E21AE1818027E4AB30022A0A7
:2021A000F8462080F844208A7880F845200B79CA781B0416100E624B7902EB03228B79D2DF
:2021C0001802648B78B02623D2182C43CB7808430B7908524B082001897951081DC61925D0
:2021E0000C270622161E187C061012027EA2B30222891C90F8443090F84540A34231D24EB7
:202200001005300C7853FA84F3321116100244305C1C841C01401B18CC0A1F4B83361A8132
:202220002ED21A2EF303921C304004082ACED311BC7C200401B010BCBEE70E1805027E8AA7
:20224000B18A78C9DE230221C22C08511889B201B1AEE7817EDC131F12FB561C4C036100C1
:202260002119E02C191809207E28B12168496A2046884267207636565B384404984721682F
:20228000C968403E087E0614070D46E06960B32668943A2C06216C366A04F120030A031841
:2022A0000538B10B20A07283C42F8720D6031C030BE0E06985840CA002401B14D31A320164
:2022C00062FC0100FF20A0F4031298822C0EE06170BD120442EA816141EA03220099E42301
:2022E00019941DCE1B1E01BE191F30B4EE041C01730B1DE2041801F10C04361C01F8015BE1
:20230000F40C2C0E5B521C0578AA42F7D342680A60037A58B4062C0943C00F4873487B0817
:20232000B9900CE2116002887330BC4410060A1D1CD00A7B027044F003010300220C1D48DA
:20234000200A0A68497B001D21B1D100C90880200203E051050A2D5E1C3D8E1330052101CB
:20236000634174C1740A36604A1C2268FEF706FE80B2652803DB642001E0A185246B34B1EB
:20238000A28D4EF660218A42F7DA8118F5E710FA031C0605680C461DE060681C17101440ED
:2023A000A968084216D1207B297C4840697C084210D1607BA90C12E90C1C0802BF207A29C4
:2023C0007B884206D14C10240585696908001CBFA4200A2D6B002DDFD131BD026812B97A42
:2023E00010080246106B0028FBD11163DE1D88171C02C16041610A1422611C900200220AA4
:2024000060283268282118100C6848B10379B3EB112FF9D18268105A4C01C8B21040049198
:202420001AB2C21A1C0118B40B1408212010030479B4EB13201F02695821F00703D0D8B2EA
:2024400018BC104711BC22D24222119E2DB4152C067200F118014A800A10161760085258B6
:2024600004002180F82410901E6AD8081802F017FBA09631F420011D8847142F211DBC0BC7
:202480001C0C94F8240040B104F1180041880180F20711104C0410BD208310BDDE1C430137
:2024A00070462D0C1E1002606808E06A10120213888B421EBF002BCB181380C0690028F494
:2024C000D120621C01E6FA4054041C0200F007F8C611221D12140128FAF2A229E21C01A547
:2024E00068153E04100FA06001E06568A5B1288B08B1ED69FAE70576232E1D781C07286843
:2025000040B1FF2208210636271C01FEF7CEFC1D16309A1EA51E1C140170BD42701C0D41E9
:202520006004E01A46D369002BFBD1D161085E1E1D400E1D7C151C039C530FF29C48181CCE
:2025400008288005F505560320A870720B2C0520A880A860E860260A1C04FEF728F905F199
:20256000450D1E90B0132E53C60721141E2C7E192003288205F504321001746036322005C5
:2025800082A861E861211D1E1C040FF905F50150101C2DFA19337311463C0113F973D00B98
:2025A0001001DFF828721C01383684D80B11722E58F41B10030190012740241F59F9EE14EC
:2025C0001FAA024C141C03FEF758F9B9EC1D2309D10C1C015FF9F1101A233AD30C1C07674A
:2025E000F936E06978A1B9B9F41D201608BF002806D1029820B93068019008B16F7028E08F
:2026000056F8080C7A2333682E1C02D8F81FE0080C2C090100234A68104610F801CB2C1E72
:20262000600202BF5B1C0C2319D10AE35B1C181C150DD15B1C202BE5D300272F70A97802F9
:20264000292CD1A98829BBE098071C199BF826E0D1F80C9003FB09F0BC464FEAC00E13F882
:2026600002A01AEA0C0F05841E201A4C605FEA106CCE44F4D12AEA0C009854CDF808E0C8EF
:20268000680299029A01909C1C02019B08187A0D140221AFE7016C153815682C0F641C1836
:2026A000361035022C08F12008FFF476AF04300D1F878030152F007C60161C2070B40228E1
:2026C00028BF03241FD27B4C04EB00146578002D1ABFA478022C022415D00FF2E415FA0BFA
:2026E0001C020605EBC60A211C0385685618B5E2041C04042408D33AB17C0E1218D21E1BF3
:2027000048041F1B5230112F20460E157003F0B40FF2B0342C041C4686680023E60A113612
:202720001C092328D33AB305684D19164680045F7B05BC114C05C4684068E500B1EE111F31
:2027400011B19C111F89189E11100911301861180126491EAE40141FF15114292C14F6B29A
:202760000EB9401C012602783243760000290270F4D1F0BC061F1C1CF8B5024613014A49A5
:202780005C18A568EDB235B1022D5BD049D3032D00F07F8085E0121A1D760B1C0C18160613
:2027A000EBC00235E01668AE190827EA1113CB0604637F1E0AE1081024EDD1D3685668DF43
:2027C00000B5FBF7FC664407FB1C57B7FBF3FC203703FB1C77DF1901257F1E05FA0CF514DF
:2027E0001C10F353B15B1EEDB20DB9761C012537782F436D221412379C1C03054697680509
:20280000FD2A1C0187420134062C09C2D2012541E0585C00283EA41A1300C2942C09840660
:2028200090198168905900F08D3218100770022530E05B5C73BB201303DA201C1564069355
:2028400059921900259268AAB11E46FF2705F01F0E8E4496A6181C0B9EF820E0F44505D05D
:20286000D4F80CC00CA41812C40810026D1C9542BA1F7BEB3A0F1005FFF73AFF032509703B
:202880001F38B9D0145D22062D60211C01A070A578182F4404EC0B1EA019261001A001840E
:2028A0000C2E5C981C6F2000050C1C010020A1941C20022400207C184E01461161182D76E4
:2028C000041D50091C0278024D0A740D100510460BE00000E4282D64091C020846014DBE9A
:2028E0001522BF101E29CC086F9CFC7009100200F0B2B8411C0222FEF7B196091E1C2004A7
:202900002C01E84310AA171C017221464219400360FEF7DDFD10110E1C027104F6186C048B
:2029200072D4121003806104F5032472CB121003C06104F648244FC2FD38202DDC102D6432
:202940002C2DD8103E0042201C090820FDF7DBFDDFF88443095C043C052046FDF770FE0964
:20296000C2101C01FDF76BC8202D5620210C700121FE020C1F1BFE461E11383005BFFDD409
:202980004C0922052C12553632060A700150FE202A700106FE400C1F00FE901E1004F80F00
:2029A000F21521133C10057DFE0FF29521140A12780A10013131160A12730A100105213F0F
:2029C0000A126E0A1001E121400A12690A10011931420A100264FEB94CD61D340D3DD21E00
:2029E0001C051020600221B6480A201FFB4F8A1612601615B8111412B2141C0206FB13BD91
:202A00005E111C0320022908D2F8183406EB410200EB021000426F47BD12221C06022C1A3B
:202A2000D2C9B1A148740E91201E504A111C03A8219F4A5180061C0591420CBF13213FE6A5
:202A400013200F01F01F039A409C4B490943F8212010BD024028052A09D241B191488A34C8
:202A60000300EB03100090125E601C0230B587B0CE1D2005F00070FDF735FD0A3C058060FA
:202A8000FDF730FD8A68112C022DF9894DBC2D3E2994214707FA8A6700A9981C020290AD0C
:202AA000F8A51C35B221141C0105000CB6211119413422A93C2325F9363217201D002B105E
:202AC0000220039004363214103619DC10011600035E700180F90E0C1C037AF907B03090F1
:202AE000211E049010A663161C0C67A06810F0E05F1E462DD0314638B805100AFCFC40B32C
:202B0000707B00B1042028720820072814BF3168002169600A1DF81F1002682860B01E2080
:202B200028022068722946307BA8723079E87270792873B0796873F079A873307AE87370B9
:202B40007A2874B07A6874F07AA874BA23A3F95A2802C7FC0028EC1402F84019BF5623213F
:202B600000043010F02EBA464A434802F114030021AEE7444A410C6C020121A8E73E112DE8
:202B80008A201C03DBF9287A04680D2D86034002707331469A2404686828683060C4500164
:202BA000687A021E2C24B073A87A3073E87A3071287B7071687BB071A87BF071E87B3072C7
:202BC000287C7072687CB072A87CF07282113721480435BA2F53BC2C0D3003264C20482217
:202BE000707001A3F92070100784F8210004F1140194082176700560682068606160721E61
:202C0000848E111C01A07A84B0112C1EE07A2076207B6076607BA076A07BE076E07B207716
:202C2000207C6077607CA077A07CE077360B50070E48FEF71CBC0D4A07E810028BE79C6337
:202C4000463DE82A5DF0181E643A151268041DF8181ECCC41012F0041E1430041FB46B4452
:202C60000411083D40082DB60F61281E228C212EB9A0185C02DFF82013662039802E194E6F
:202C800020110A6B07E0883210122F806060203C05FDF709BC30B40392193C0303600022EC
:202CA000038C191F03602E091C0D731C4600E0641E4568ED0701D4002C4218101068E407E4
:202CC00054D58A79012A02680CBF42F08002220470010260CA121240121D092D6001600A5D
:202CE0007A12122012122012724A12121012121012728A1212081222084871121204121221
:202D000004121C09CC788A78240644EA82720CCE0D100404424C790988086C0552491E110C
:202D200043C161741F1C0300E05B1E4152181C0501D5002BF9D140FA233C05010080F0017C
:202D400002309C18300B70B4827A01219140DFF80C2213DE100E1360CB43D4691C40D461DC
:202D6000047B9CB9D4680A201B60C5884688DFF8EC4146EA0545867A44F83650857A0688B6
:202D800004EBC504858814300D6560047B012C13D1D4680C43D460052EB2C02EB2C62E1080
:202DA00003C47A002C54CC1C1B1C400C435460048914B955692B405361012C02D153690BF2
:202DC000435361407B018E263C05D0690843D061107E1B4E102C1D1D78111D76111C0A7264
:202DE00041728172C1728170C17003100B2C010221418A113280D0140368520112D5F21948
:202E0000BA1003D0F8803103D412C00810040C7A4B7A94B9121C0E410D6843EA45532343F2
:202E200012E082681201486A031C05E8D48268D20048A4101004E3D4042232E026200951B6
:202E40004E6844EAC60423432B433E102B8B7A03F00F038B7200F5C0735C68240924015CD6
:202E6000605C688D7A2C435C604D7B8C7B2D0445EA04640D7B44EA0524CD1650049C604D06
:202E80007C8C7C16337CC91810022143D9605A2E11C619115416118011D21E101A15200A6B
:202EA0000113D3F8B04114F0040414720A200807BF640D1460E40854600E100704F0020414
:202EC000547203F5D87A100404F00F0494728210060AD4749C68D4729C0A13147306230C18
:202EE000540610040E9473DC68D40411161274061C0A0C5474DB681B0E937429B9C13E1A18
:202F00001F2001DE1A2DD60D22690C2301610C6C02002A42690A222D98123D34031E66946F
:202F20002221043C0B1810F0030308D0C91A1FD3DB07E81B3E2DF41B1C042D130030B41481
:202F40007C042D1C1C2C0520E93C00FAD8490E1C17E90C461D061A40012D89002841342D81
:202F6000020E3001C918180C12CB2821082DA0031C0630B583B00E2156483C321D78334C84
:202F80000CD0251D242868E8B100A8FDF7B1FA26282D4C073D98079D96072DC8332C0855EA
:202FA000F8040CFDF70DFA0021F60A30093BF8286800A9FDF75DFA01101C0944F8641C0CFF
:202FC00035292CD7D303D4051C012DE9FC8A142C032B2C88462442151F0086180930050446
:202FE00017F5196868E06CF20A7B6C1E288E283C05F059FDF7D8F941AE18300106F8686A5A
:203000001F28FA78171C03812B280DD2EC161D2A061C01400302362B1C0242682AB16E23C8
:203020001C028901D0114A2B12510424022B2800D3E41D24291D06071E4034111E84C20858
:20304000101343681A4CA34215D10389174C31B134F81200184324062590110E2310990E2F
:203060003409104168E1B1018940684183B413220E341A1EA4120D083003E1D003220C107F
:20308000100104220B083003D9D005220A1010010622090823D1D0342EF47C095E00380545
:2030A0003D983011042D082F3D1C2E5D04264DD0313D2A1A5D8C31710C92800C9300100C51
:2030C00092200C92400C21313DC71A3D342E710C21173D59164DA42F810C92100C92200CCB
:2030E0004E40461B5D643081608E048826830004609320003092083082023093400018910B
:20310000F02130214B5DD831810C92025492200C92408491609300080C82109C8301000CBD
:2031200092020C92040C92080C92100C9300010C92020C95088304000C92080C92100C52E3
:20314000203B35EC92080C11254DA2123003FDF740FD06061F4CB1D4362C07606560268181
:20316000E0602061C02B1C04704079E070BDA8041E24F4081D42171DC8031C062A0DD00AD2
:20318000604B60142A113C0304E00446E02A113C07E160508908810020C864041DCC0B1C07
:2031A00008001AD0256813E0286818EC0D1D01311004BF8047686850602C01016041721141
:2031C0002F62817C111DE81F1C094162C161ED68002DE9D1FD5E093C012081318E0F1204E0
:2031E000901001F8FC05061C1CF2FCB4B321892081A0EB0108276824E03E680EB338891FE9
:20320000FA88F9484511D2391B1C12B1FDF7E3FC824670688047FDF7DEFC0246786851AE61
:20322000031C0B2BF838893189081838813889A06A24100B388180B2318990FBF1F201FBD4
:20324000120E1C05FF68002FD8D16082291F2269F0221C02F013F8E502082C02BEFC2061B6
:20326000E40EF107AA1DBA041D1613100A10B4521A02614368CB1A0362241C046899B1C43D
:203280006894A60E100F1446C4608469A24200D304B98261C4699C1430051C46C461446A56
:2032A000A3142C0C43628368D2184369D21A82606423EE302F42619E2625341E70301A1CA3
:2032C00001FEF7B86A1C1201081C07B4FB06462A4C322120CA111F64F874091DDA2E10018F
:2032E00099FD291C1005FFF795FD314602081C0191FD04FE0B2C040DFD18B1607814241CEE
:203300000160701E621C50036868FDF7031412401412A81043FBFC101280101E7058132CD1
:203320000200F06CF8060C1D620D4005FD104CFEF78BF92012102020026078A0B9761C0338
:2033400019F801280F142E1C0357F860B908441B1E40B413400214F805468C4C0E80FD28AB
:2033600046FCF7FCFB6078207031BD1470741A3D94121C107948B9FDF717FC2188401A61C1
:203380008880B2884224080A5C032071207910CC171C07FDF708FC2080658031481B140AA5
:2033A000FCF7FBFAFDF7E4FBFEF705FFC811041C0843FCFDF7D9FEFEF7F5FA70171D3E2365
:2033C000100335F8FFF7E9141005EEFB4B28FBD301341C05FDF788FC10B9FEFE2F2D920EEC
:2033E0001C09FCF7AEFBFCF76AFBBDE801B4092376BC201E784C0B2304BF121001FEF7A849
:203400007E1E027A0C1C09FEF70CBF10B5064CFDF7C9A22E1E0106092D0E0910098242F6BA
:20342000D0481C206010BD30C41C0112210190063C01CCB8D0900E2F194CD80A2D54171ED5
:203440006B6C0D1C055C0504F17C032A081E323C141C0675FE04F1A40305F1EE3233F14C09
:2034600012126C1212CC12121812325C1212631212F412122412326C122F5AFEE40B1E3281
:20348000E01C236DBE6C1C0189BEFCB80A1E4374151245043D0C381DB81B124B041D8C068E
:2034A000200500694100205F420C20060200E55E00204F5F0C1E038C0B1F204C940E100234
:2034C0001DFEF71A621E1CA20B2F52FDA40E1007FFF750F8012104F11012120D1A12200846
:2034E0002C0245FD601C5A0B2DF22E1C0441B8F8B5114DE0122C03F11C062F1D760C2FFFDA
:20350000FD0413100636FD0AE005F13801AA11321303FD08220118123E0A1C023801E0B2AF
:20352000A4071C03F90028EDD15A074C0737361D022CE1D3F1BD401CAF0000541C4F3D62AB
:20354000C7051240082914523810F10F0440048148002039442C127F0812830412D1141259
:20356000B508129104129D0483B1444C2130C31163042130C3DD46143C0141055AF004BC0C
:2035800014454431333435202D204D3420436F6E74726F6C6C6572FB2415541C0B04460492
:2035A0004979440E31044878440CB4261E063032100510BDC8A1FFFFC00449BC1EAC382717
:2035C000280A206820188047241DAC42F9D1C41005FFF79BFEFFF7E70412CF04200614FFD2
:2035E000FFF7ADFEF8E7501DF0141FFA015A1A214843E061C0200201020304042D231C61A2
:20360000D04EE89D391F00407C2A21012D181D1C030902000807740E5C03FFF7F8FFFB281B
:103620002521181203181C02FFF7FABF683302BFE6
:207FC0005468697320697320612053544D33324634303720314D4220426F6F746C6F6164FE
:047FE00065720000C6
:047FFC00EEE5553F1A
:00000001FF
